{
  "abi": [
    {
      "inputs": [
        {
          "internalType": "address",
          "name": "_addressProvider",
          "type": "address"
        }
      ],
      "stateMutability": "nonpayable",
      "type": "constructor"
    },
    {
      "inputs": [],
      "name": "ADDRESSES_PROVIDER",
      "outputs": [
        {
          "internalType": "contract IPoolAddressesProvider",
          "name": "",
          "type": "address"
        }
      ],
      "stateMutability": "view",
      "type": "function"
    },
    {
      "inputs": [],
      "name": "POOL",
      "outputs": [
        {
          "internalType": "contract IPool",
          "name": "",
          "type": "address"
        }
      ],
      "stateMutability": "view",
      "type": "function"
    },
    {
      "inputs": [
        {
          "internalType": "address",
          "name": "asset",
          "type": "address"
        },
        {
          "internalType": "uint256",
          "name": "amount",
          "type": "uint256"
        },
        {
          "internalType": "uint256",
          "name": "premium",
          "type": "uint256"
        },
        {
          "internalType": "address",
          "name": "initiator",
          "type": "address"
        },
        {
          "internalType": "bytes",
          "name": "params",
          "type": "bytes"
        }
      ],
      "name": "executeOperation",
      "outputs": [
        {
          "internalType": "bool",
          "name": "",
          "type": "bool"
        }
      ],
      "stateMutability": "nonpayable",
      "type": "function"
    },
    {
      "inputs": [
        {
          "internalType": "address",
          "name": "_tokenAddress",
          "type": "address"
        }
      ],
      "name": "getBalance",
      "outputs": [
        {
          "internalType": "uint256",
          "name": "",
          "type": "uint256"
        }
      ],
      "stateMutability": "view",
      "type": "function"
    },
    {
      "inputs": [
        {
          "internalType": "address",
          "name": "_token",
          "type": "address"
        },
        {
          "internalType": "uint256",
          "name": "_amount",
          "type": "uint256"
        }
      ],
      "name": "requestFlashLoan",
      "outputs": [],
      "stateMutability": "nonpayable",
      "type": "function"
    },
    {
      "inputs": [
        {
          "internalType": "address",
          "name": "_tokenAddress",
          "type": "address"
        }
      ],
      "name": "withdraw",
      "outputs": [],
      "stateMutability": "nonpayable",
      "type": "function"
    },
    {
      "stateMutability": "payable",
      "type": "receive"
    }
  ],
  "bytecode": {
    "object": "0x60c060405234801561001057600080fd5b506040516107ac3803806107ac83398101604081905261002f916100d1565b80806001600160a01b03166080816001600160a01b031681525050806001600160a01b031663026b1d5f6040518163ffffffff1660e01b8152600401602060405180830381865afa158015610088573d6000803e3d6000fd5b505050506040513d601f19601f820116820180604052508101906100ac91906100d1565b6001600160a01b031660a0525050600080546001600160a01b03191633179055610101565b6000602082840312156100e357600080fd5b81516001600160a01b03811681146100fa57600080fd5b9392505050565b60805160a0516106796101336000396000818161011a015281816101ae015261036c01526000607701526106796000f3fe6080604052600436106100595760003560e01c80630542975c146100655780631b11d0ff146100b657806351cff8d9146100e65780637535d24614610108578063d54ba9541461013c578063f8b2cb4f1461015c57600080fd5b3661006057005b600080fd5b34801561007157600080fd5b506100997f000000000000000000000000000000000000000000000000000000000000000081565b6040516001600160a01b0390911681526020015b60405180910390f35b3480156100c257600080fd5b506100d66100d1366004610471565b61018a565b60405190151581526020016100ad565b3480156100f257600080fd5b50610106610101366004610517565b61023f565b005b34801561011457600080fd5b506100997f000000000000000000000000000000000000000000000000000000000000000081565b34801561014857600080fd5b50610106610157366004610539565b61033e565b34801561016857600080fd5b5061017c610177366004610517565b6103e4565b6040519081526020016100ad565b6000806101978688610563565b60405163095ea7b360e01b81526001600160a01b037f000000000000000000000000000000000000000000000000000000000000000081166004830152602482018390529192509089169063095ea7b3906044016020604051808303816000875af115801561020a573d6000803e3d6000fd5b505050506040513d601f19601f8201168201806040525081019061022e9190610589565b5060019150505b9695505050505050565b6000546001600160a01b0316331461025657600080fd5b6040516370a0823160e01b815230600482015281906001600160a01b0382169063a9059cbb90339083906370a0823190602401602060405180830381865afa1580156102a6573d6000803e3d6000fd5b505050506040513d601f19601f820116820180604052508101906102ca91906105ab565b6040516001600160e01b031960e085901b1681526001600160a01b03909216600483015260248201526044016020604051808303816000875af1158015610315573d6000803e3d6000fd5b505050506040513d601f19601f820116820180604052508101906103399190610589565b505050565b60408051602081018252600080825291516310ac2ddf60e21b81523092859285929091906001600160a01b037f000000000000000000000000000000000000000000000000000000000000000016906342b0b77c906103a990889088908890889088906004016105c4565b600060405180830381600087803b1580156103c357600080fd5b505af11580156103d7573d6000803e3d6000fd5b5050505050505050505050565b6040516370a0823160e01b81523060048201526000906001600160a01b038316906370a0823190602401602060405180830381865afa15801561042b573d6000803e3d6000fd5b505050506040513d601f19601f8201168201806040525081019061044f91906105ab565b92915050565b80356001600160a01b038116811461046c57600080fd5b919050565b60008060008060008060a0878903121561048a57600080fd5b61049387610455565b955060208701359450604087013593506104af60608801610455565b9250608087013567ffffffffffffffff808211156104cc57600080fd5b818901915089601f8301126104e057600080fd5b8135818111156104ef57600080fd5b8a602082850101111561050157600080fd5b6020830194508093505050509295509295509295565b60006020828403121561052957600080fd5b61053282610455565b9392505050565b6000806040838503121561054c57600080fd5b61055583610455565b946020939093013593505050565b6000821982111561058457634e487b7160e01b600052601160045260246000fd5b500190565b60006020828403121561059b57600080fd5b8151801515811461053257600080fd5b6000602082840312156105bd57600080fd5b5051919050565b600060018060a01b03808816835260208188168185015286604085015260a06060850152855191508160a085015260005b828110156106115786810182015185820160c0015281016105f5565b8281111561062357600060c084870101525b5050601f01601f1916820160c0019050610235608083018461ffff16905256fea2646970667358221220973ecac4e81b2bc0f837a88d860b3896a87886e5aaa0df21c3eb2f3b3766c3f764736f6c634300080a0033",
    "linkReferences": {}
  },
  "methodIdentifiers": {
    "ADDRESSES_PROVIDER()": "0542975c",
    "POOL()": "7535d246",
    "executeOperation(address,uint256,uint256,address,bytes)": "1b11d0ff",
    "getBalance(address)": "f8b2cb4f",
    "requestFlashLoan(address,uint256)": "d54ba954",
    "withdraw(address)": "51cff8d9"
  },
  "id": 6
}