{
  "abi": [
    {
      "inputs": [
        {
          "internalType": "contract IERC20Metadata",
          "name": "_asset",
          "type": "address"
        }
      ],
      "stateMutability": "nonpayable",
      "type": "constructor"
    },
    {
      "anonymous": false,
      "inputs": [
        {
          "indexed": true,
          "internalType": "address",
          "name": "owner",
          "type": "address"
        },
        {
          "indexed": true,
          "internalType": "address",
          "name": "spender",
          "type": "address"
        },
        {
          "indexed": false,
          "internalType": "uint256",
          "name": "value",
          "type": "uint256"
        }
      ],
      "name": "Approval",
      "type": "event"
    },
    {
      "anonymous": false,
      "inputs": [
        {
          "indexed": true,
          "internalType": "address",
          "name": "sender",
          "type": "address"
        },
        {
          "indexed": true,
          "internalType": "address",
          "name": "owner",
          "type": "address"
        },
        {
          "indexed": false,
          "internalType": "uint256",
          "name": "assets",
          "type": "uint256"
        },
        {
          "indexed": false,
          "internalType": "uint256",
          "name": "shares",
          "type": "uint256"
        }
      ],
      "name": "Deposit",
      "type": "event"
    },
    {
      "anonymous": false,
      "inputs": [
        {
          "indexed": true,
          "internalType": "address",
          "name": "from",
          "type": "address"
        },
        {
          "indexed": true,
          "internalType": "address",
          "name": "to",
          "type": "address"
        },
        {
          "indexed": false,
          "internalType": "uint256",
          "name": "value",
          "type": "uint256"
        }
      ],
      "name": "Transfer",
      "type": "event"
    },
    {
      "anonymous": false,
      "inputs": [
        {
          "indexed": true,
          "internalType": "address",
          "name": "sender",
          "type": "address"
        },
        {
          "indexed": true,
          "internalType": "address",
          "name": "receiver",
          "type": "address"
        },
        {
          "indexed": true,
          "internalType": "address",
          "name": "owner",
          "type": "address"
        },
        {
          "indexed": false,
          "internalType": "uint256",
          "name": "assets",
          "type": "uint256"
        },
        {
          "indexed": false,
          "internalType": "uint256",
          "name": "shares",
          "type": "uint256"
        }
      ],
      "name": "Withdraw",
      "type": "event"
    },
    {
      "inputs": [
        {
          "internalType": "address",
          "name": "owner",
          "type": "address"
        },
        {
          "internalType": "address",
          "name": "spender",
          "type": "address"
        }
      ],
      "name": "allowance",
      "outputs": [
        {
          "internalType": "uint256",
          "name": "",
          "type": "uint256"
        }
      ],
      "stateMutability": "view",
      "type": "function"
    },
    {
      "inputs": [
        {
          "internalType": "address",
          "name": "spender",
          "type": "address"
        },
        {
          "internalType": "uint256",
          "name": "amount",
          "type": "uint256"
        }
      ],
      "name": "approve",
      "outputs": [
        {
          "internalType": "bool",
          "name": "",
          "type": "bool"
        }
      ],
      "stateMutability": "nonpayable",
      "type": "function"
    },
    {
      "inputs": [],
      "name": "asset",
      "outputs": [
        {
          "internalType": "address",
          "name": "",
          "type": "address"
        }
      ],
      "stateMutability": "view",
      "type": "function"
    },
    {
      "inputs": [
        {
          "internalType": "address",
          "name": "account",
          "type": "address"
        }
      ],
      "name": "balanceOf",
      "outputs": [
        {
          "internalType": "uint256",
          "name": "",
          "type": "uint256"
        }
      ],
      "stateMutability": "view",
      "type": "function"
    },
    {
      "inputs": [
        {
          "internalType": "uint256",
          "name": "shares",
          "type": "uint256"
        }
      ],
      "name": "convertToAssets",
      "outputs": [
        {
          "internalType": "uint256",
          "name": "",
          "type": "uint256"
        }
      ],
      "stateMutability": "view",
      "type": "function"
    },
    {
      "inputs": [
        {
          "internalType": "uint256",
          "name": "assets",
          "type": "uint256"
        }
      ],
      "name": "convertToShares",
      "outputs": [
        {
          "internalType": "uint256",
          "name": "",
          "type": "uint256"
        }
      ],
      "stateMutability": "view",
      "type": "function"
    },
    {
      "inputs": [],
      "name": "decimals",
      "outputs": [
        {
          "internalType": "uint8",
          "name": "",
          "type": "uint8"
        }
      ],
      "stateMutability": "view",
      "type": "function"
    },
    {
      "inputs": [
        {
          "internalType": "address",
          "name": "spender",
          "type": "address"
        },
        {
          "internalType": "uint256",
          "name": "subtractedValue",
          "type": "uint256"
        }
      ],
      "name": "decreaseAllowance",
      "outputs": [
        {
          "internalType": "bool",
          "name": "",
          "type": "bool"
        }
      ],
      "stateMutability": "nonpayable",
      "type": "function"
    },
    {
      "inputs": [
        {
          "internalType": "uint256",
          "name": "assets",
          "type": "uint256"
        },
        {
          "internalType": "address",
          "name": "receiver",
          "type": "address"
        }
      ],
      "name": "deposit",
      "outputs": [
        {
          "internalType": "uint256",
          "name": "",
          "type": "uint256"
        }
      ],
      "stateMutability": "nonpayable",
      "type": "function"
    },
    {
      "inputs": [
        {
          "internalType": "address",
          "name": "spender",
          "type": "address"
        },
        {
          "internalType": "uint256",
          "name": "addedValue",
          "type": "uint256"
        }
      ],
      "name": "increaseAllowance",
      "outputs": [
        {
          "internalType": "bool",
          "name": "",
          "type": "bool"
        }
      ],
      "stateMutability": "nonpayable",
      "type": "function"
    },
    {
      "inputs": [
        {
          "internalType": "address",
          "name": "",
          "type": "address"
        }
      ],
      "name": "maxDeposit",
      "outputs": [
        {
          "internalType": "uint256",
          "name": "",
          "type": "uint256"
        }
      ],
      "stateMutability": "view",
      "type": "function"
    },
    {
      "inputs": [
        {
          "internalType": "address",
          "name": "",
          "type": "address"
        }
      ],
      "name": "maxMint",
      "outputs": [
        {
          "internalType": "uint256",
          "name": "",
          "type": "uint256"
        }
      ],
      "stateMutability": "view",
      "type": "function"
    },
    {
      "inputs": [
        {
          "internalType": "address",
          "name": "owner",
          "type": "address"
        }
      ],
      "name": "maxRedeem",
      "outputs": [
        {
          "internalType": "uint256",
          "name": "",
          "type": "uint256"
        }
      ],
      "stateMutability": "view",
      "type": "function"
    },
    {
      "inputs": [
        {
          "internalType": "address",
          "name": "owner",
          "type": "address"
        }
      ],
      "name": "maxWithdraw",
      "outputs": [
        {
          "internalType": "uint256",
          "name": "",
          "type": "uint256"
        }
      ],
      "stateMutability": "view",
      "type": "function"
    },
    {
      "inputs": [
        {
          "internalType": "uint256",
          "name": "shares",
          "type": "uint256"
        },
        {
          "internalType": "address",
          "name": "receiver",
          "type": "address"
        }
      ],
      "name": "mint",
      "outputs": [
        {
          "internalType": "uint256",
          "name": "",
          "type": "uint256"
        }
      ],
      "stateMutability": "nonpayable",
      "type": "function"
    },
    {
      "inputs": [],
      "name": "name",
      "outputs": [
        {
          "internalType": "string",
          "name": "",
          "type": "string"
        }
      ],
      "stateMutability": "view",
      "type": "function"
    },
    {
      "inputs": [
        {
          "internalType": "uint256",
          "name": "assets",
          "type": "uint256"
        }
      ],
      "name": "previewDeposit",
      "outputs": [
        {
          "internalType": "uint256",
          "name": "",
          "type": "uint256"
        }
      ],
      "stateMutability": "view",
      "type": "function"
    },
    {
      "inputs": [
        {
          "internalType": "uint256",
          "name": "shares",
          "type": "uint256"
        }
      ],
      "name": "previewMint",
      "outputs": [
        {
          "internalType": "uint256",
          "name": "",
          "type": "uint256"
        }
      ],
      "stateMutability": "view",
      "type": "function"
    },
    {
      "inputs": [
        {
          "internalType": "uint256",
          "name": "shares",
          "type": "uint256"
        }
      ],
      "name": "previewRedeem",
      "outputs": [
        {
          "internalType": "uint256",
          "name": "",
          "type": "uint256"
        }
      ],
      "stateMutability": "view",
      "type": "function"
    },
    {
      "inputs": [
        {
          "internalType": "uint256",
          "name": "assets",
          "type": "uint256"
        }
      ],
      "name": "previewWithdraw",
      "outputs": [
        {
          "internalType": "uint256",
          "name": "",
          "type": "uint256"
        }
      ],
      "stateMutability": "view",
      "type": "function"
    },
    {
      "inputs": [
        {
          "internalType": "uint256",
          "name": "shares",
          "type": "uint256"
        },
        {
          "internalType": "address",
          "name": "receiver",
          "type": "address"
        },
        {
          "internalType": "address",
          "name": "owner",
          "type": "address"
        }
      ],
      "name": "redeem",
      "outputs": [
        {
          "internalType": "uint256",
          "name": "",
          "type": "uint256"
        }
      ],
      "stateMutability": "nonpayable",
      "type": "function"
    },
    {
      "inputs": [],
      "name": "symbol",
      "outputs": [
        {
          "internalType": "string",
          "name": "",
          "type": "string"
        }
      ],
      "stateMutability": "view",
      "type": "function"
    },
    {
      "inputs": [],
      "name": "totalAssets",
      "outputs": [
        {
          "internalType": "uint256",
          "name": "",
          "type": "uint256"
        }
      ],
      "stateMutability": "view",
      "type": "function"
    },
    {
      "inputs": [],
      "name": "totalSupply",
      "outputs": [
        {
          "internalType": "uint256",
          "name": "",
          "type": "uint256"
        }
      ],
      "stateMutability": "view",
      "type": "function"
    },
    {
      "inputs": [
        {
          "internalType": "address",
          "name": "to",
          "type": "address"
        },
        {
          "internalType": "uint256",
          "name": "amount",
          "type": "uint256"
        }
      ],
      "name": "transfer",
      "outputs": [
        {
          "internalType": "bool",
          "name": "",
          "type": "bool"
        }
      ],
      "stateMutability": "nonpayable",
      "type": "function"
    },
    {
      "inputs": [
        {
          "internalType": "address",
          "name": "from",
          "type": "address"
        },
        {
          "internalType": "address",
          "name": "to",
          "type": "address"
        },
        {
          "internalType": "uint256",
          "name": "amount",
          "type": "uint256"
        }
      ],
      "name": "transferFrom",
      "outputs": [
        {
          "internalType": "bool",
          "name": "",
          "type": "bool"
        }
      ],
      "stateMutability": "nonpayable",
      "type": "function"
    },
    {
      "inputs": [
        {
          "internalType": "uint256",
          "name": "assets",
          "type": "uint256"
        },
        {
          "internalType": "address",
          "name": "receiver",
          "type": "address"
        },
        {
          "internalType": "address",
          "name": "owner",
          "type": "address"
        }
      ],
      "name": "withdraw",
      "outputs": [
        {
          "internalType": "uint256",
          "name": "",
          "type": "uint256"
        }
      ],
      "stateMutability": "nonpayable",
      "type": "function"
    }
  ],
  "bytecode": {
    "object": "0x60c06040523480156200001157600080fd5b5060405162001a6838038062001a688339810160408190526200003491620001c0565b806040518060400160405280600b81526020016a2b30bab63a102a37b5b2b760a91b8152506040518060400160405280600381526020016215931560ea1b815250816003908162000086919062000299565b50600462000095828262000299565b505050600080620000ac83620000db60201b60201c565b9150915081620000be576012620000c0565b805b60ff1660a05250506001600160a01b031660805250620003b0565b60408051600481526024810182526020810180516001600160e01b031663313ce56760e01b17905290516000918291829182916001600160a01b03871691620001249162000365565b600060405180830381855afa9150503d806000811462000161576040519150601f19603f3d011682016040523d82523d6000602084013e62000166565b606091505b50915091508180156200017b57506020815110155b15620001b35760008180602001905181019062000199919062000396565b905060ff8111620001b1576001969095509350505050565b505b5060009485945092505050565b600060208284031215620001d357600080fd5b81516001600160a01b0381168114620001eb57600080fd5b9392505050565b634e487b7160e01b600052604160045260246000fd5b600181811c908216806200021d57607f821691505b6020821081036200023e57634e487b7160e01b600052602260045260246000fd5b50919050565b601f82111562000294576000816000526020600020601f850160051c810160208610156200026f5750805b601f850160051c820191505b8181101562000290578281556001016200027b565b5050505b505050565b81516001600160401b03811115620002b557620002b5620001f2565b620002cd81620002c6845462000208565b8462000244565b602080601f831160018114620003055760008415620002ec5750858301515b600019600386901b1c1916600185901b17855562000290565b600085815260208120601f198616915b82811015620003365788860151825594840194600190910190840162000315565b5085821015620003555787850151600019600388901b60f8161c191681555b5050505050600190811b01905550565b6000825160005b818110156200038857602081860181015185830152016200036c565b506000920191825250919050565b600060208284031215620003a957600080fd5b5051919050565b60805160a05161167d620003eb6000396000610545015260008181610269015281816103d501528181610b990152610c59015261167d6000f3fe608060405234801561001057600080fd5b50600436106101a95760003560e01c806370a08231116100f9578063ba08765211610097578063ce96cb7711610071578063ce96cb7714610384578063d905777e14610397578063dd62ed3e146103aa578063ef8b30f71461037157600080fd5b8063ba0876521461035e578063c63d75b6146102a6578063c6e6f5921461037157600080fd5b8063a457c2d7116100d3578063a457c2d714610312578063a9059cbb14610325578063b3d7f6b914610338578063b460af941461034b57600080fd5b806370a08231146102ce57806394bf804d146102f757806395d89b411461030a57600080fd5b806323b872dd1161016657806339509351116101405780633950935114610293578063402d267d146102a65780634cdad506146101de5780636e553f65146102bb57600080fd5b806323b872dd1461022f578063313ce5671461024257806338d52e0f1461025c57600080fd5b806301e1d114146101ae57806306fdde03146101c957806307a2d13a146101de578063095ea7b3146101f15780630a28a4771461021457806318160ddd14610227575b600080fd5b6101b66103bd565b6040519081526020015b60405180910390f35b6101d161044d565b6040516101c091906112da565b6101b66101ec36600461130d565b6104df565b6102046101ff366004611342565b6104f2565b60405190151581526020016101c0565b6101b661022236600461130d565b61050a565b6002546101b6565b61020461023d36600461136c565b610517565b61024a61053d565b60405160ff90911681526020016101c0565b6040516001600160a01b037f00000000000000000000000000000000000000000000000000000000000000001681526020016101c0565b6102046102a1366004611342565b610569565b6101b66102b43660046113a8565b5060001990565b6101b66102c93660046113c3565b61058b565b6101b66102dc3660046113a8565b6001600160a01b031660009081526020819052604090205490565b6101b66103053660046113c3565b6105b4565b6101d16105ce565b610204610320366004611342565b6105dd565b610204610333366004611342565b610663565b6101b661034636600461130d565b610671565b6101b66103593660046113ef565b61067e565b6101b661036c3660046113ef565b6106fa565b6101b661037f36600461130d565b61076e565b6101b66103923660046113a8565b61077b565b6101b66103a53660046113a8565b61079f565b6101b66103b836600461142b565b6107bd565b6040516370a0823160e01b81523060048201526000907f00000000000000000000000000000000000000000000000000000000000000006001600160a01b0316906370a0823190602401602060405180830381865afa158015610424573d6000803e3d6000fd5b505050506040513d601f19601f820116820180604052508101906104489190611455565b905090565b60606003805461045c9061146e565b80601f01602080910402602001604051908101604052809291908181526020018280546104889061146e565b80156104d55780601f106104aa576101008083540402835291602001916104d5565b820191906000526020600020905b8154815290600101906020018083116104b857829003601f168201915b5050505050905090565b60006104ec8260006107e8565b92915050565b600033610500818585610822565b5060019392505050565b60006104ec826001610946565b600033610525858285610976565b6105308585856109f0565b60019150505b9392505050565b6000610448817f00000000000000000000000000000000000000000000000000000000000000006114be565b60003361050081858561057c83836107bd565b61058691906114d7565b610822565b600061059b565b60405180910390fd5b60006105a68461076e565b905061053633848684610b94565b6000806105c084610671565b905061053633848387610b94565b60606004805461045c9061146e565b600033816105eb82866107bd565b90508381101561064b5760405162461bcd60e51b815260206004820152602560248201527f45524332303a2064656372656173656420616c6c6f77616e63652062656c6f77604482015264207a65726f60d81b6064820152608401610592565b6106588286868403610822565b506001949350505050565b6000336105008185856109f0565b60006104ec8260016107e8565b60006106898261077b565b8411156106d85760405162461bcd60e51b815260206004820152601f60248201527f455243343632363a207769746864726177206d6f7265207468616e206d6178006044820152606401610592565b60006106e38561050a565b90506106f23385858885610c26565b949350505050565b60006107058261079f565b8411156107545760405162461bcd60e51b815260206004820152601d60248201527f455243343632363a2072656465656d206d6f7265207468616e206d61780000006044820152606401610592565b600061075f856104df565b90506106f23385858489610c26565b60006104ec826000610946565b6001600160a01b0381166000908152602081905260408120546104ec9060006107e8565b6001600160a01b0381166000908152602081905260408120546104ec565b6001600160a01b03918216600090815260016020908152604080832093909416825291909152205490565b60006105366107f56103bd565b6108009060016114d7565b61080c6000600a6115ce565b60025461081991906114d7565b85919085610ce6565b6001600160a01b0383166108845760405162461bcd60e51b8152602060048201526024808201527f45524332303a20617070726f76652066726f6d20746865207a65726f206164646044820152637265737360e01b6064820152608401610592565b6001600160a01b0382166108e55760405162461bcd60e51b815260206004820152602260248201527f45524332303a20617070726f766520746f20746865207a65726f206164647265604482015261737360f01b6064820152608401610592565b6001600160a01b0383811660008181526001602090815260408083209487168084529482529182902085905590518481527f8c5be1e5ebec7d5bd14f71427d1e84f3dd0314c0f7b2291e5b200ac8c7c3b925910160405180910390a3505050565b600061053661095682600a6115ce565b60025461096391906114d7565b61096b6103bd565b6108199060016114d7565b600061098284846107bd565b905060001981146109ea57818110156109dd5760405162461bcd60e51b815260206004820152601d60248201527f45524332303a20696e73756666696369656e7420616c6c6f77616e63650000006044820152606401610592565b6109ea8484848403610822565b50505050565b6001600160a01b038316610a545760405162461bcd60e51b815260206004820152602560248201527f45524332303a207472616e736665722066726f6d20746865207a65726f206164604482015264647265737360d81b6064820152608401610592565b6001600160a01b038216610ab65760405162461bcd60e51b815260206004820152602360248201527f45524332303a207472616e7366657220746f20746865207a65726f206164647260448201526265737360e81b6064820152608401610592565b6001600160a01b03831660009081526020819052604090205481811015610b2e5760405162461bcd60e51b815260206004820152602660248201527f45524332303a207472616e7366657220616d6f756e7420657863656564732062604482015265616c616e636560d01b6064820152608401610592565b6001600160a01b03848116600081815260208181526040808320878703905593871680835291849020805487019055925185815290927fddf252ad1be2c89b69c2b068fc378daa952ba7f163c4a11628f55a4df523b3ef910160405180910390a36109ea565b610bc07f0000000000000000000000000000000000000000000000000000000000000000853085610d48565b610bca8382610db3565b826001600160a01b0316846001600160a01b03167fdcbc1c05240f31ff3ad067ef1ee35ce4997762752e3a095284754544f4c709d78484604051610c18929190918252602082015260400190565b60405180910390a350505050565b826001600160a01b0316856001600160a01b031614610c4a57610c4a838683610976565b610c548382610e72565b610c7f7f00000000000000000000000000000000000000000000000000000000000000008584610fa4565b826001600160a01b0316846001600160a01b0316866001600160a01b03167ffbde797d201c681b91056529119e0b02407c7bb96a4a2c75c01fc9667232c8db8585604051610cd7929190918252602082015260400190565b60405180910390a45050505050565b600080610cf4868686610fd4565b90506001836002811115610d0a57610d0a6115dd565b148015610d27575060008480610d2257610d226115f3565b868809115b15610d3a57610d376001826114d7565b90505b95945050505050565b505050565b6040516001600160a01b03808516602483015283166044820152606481018290526109ea9085906323b872dd60e01b906084015b60408051601f198184030181529190526020810180516001600160e01b03166001600160e01b0319909316929092179091526110be565b6001600160a01b038216610e095760405162461bcd60e51b815260206004820152601f60248201527f45524332303a206d696e7420746f20746865207a65726f2061646472657373006044820152606401610592565b8060026000828254610e1b91906114d7565b90915550506001600160a01b038216600081815260208181526040808320805486019055518481527fddf252ad1be2c89b69c2b068fc378daa952ba7f163c4a11628f55a4df523b3ef910160405180910390a35050565b6001600160a01b038216610ed25760405162461bcd60e51b815260206004820152602160248201527f45524332303a206275726e2066726f6d20746865207a65726f206164647265736044820152607360f81b6064820152608401610592565b6001600160a01b03821660009081526020819052604090205481811015610f465760405162461bcd60e51b815260206004820152602260248201527f45524332303a206275726e20616d6f756e7420657863656564732062616c616e604482015261636560f01b6064820152608401610592565b6001600160a01b0383166000818152602081815260408083208686039055600280548790039055518581529192917fddf252ad1be2c89b69c2b068fc378daa952ba7f163c4a11628f55a4df523b3ef910160405180910390a3505050565b6040516001600160a01b038316602482015260448101829052610d4390849063a9059cbb60e01b90606401610d7c565b600080806000198587098587029250828110838203039150508060000361100e57838281611004576110046115f3565b0492505050610536565b8084116110555760405162461bcd60e51b81526020600482015260156024820152744d6174683a206d756c446976206f766572666c6f7760581b6044820152606401610592565b60008486880960026001871981018816978890046003810283188082028403028082028403028082028403028082028403028082028403029081029092039091026000889003889004909101858311909403939093029303949094049190911702949350505050565b6000611113826040518060400160405280602081526020017f5361666545524332303a206c6f772d6c6576656c2063616c6c206661696c6564815250856001600160a01b03166111939092919063ffffffff16565b90508051600014806111345750808060200190518101906111349190611609565b610d435760405162461bcd60e51b815260206004820152602a60248201527f5361666545524332303a204552433230206f7065726174696f6e20646964206e6044820152691bdd081cdd58d8d9595960b21b6064820152608401610592565b60606106f2848460008585600080866001600160a01b031685876040516111ba919061162b565b60006040518083038185875af1925050503d80600081146111f7576040519150601f19603f3d011682016040523d82523d6000602084013e6111fc565b606091505b509150915061120d87838387611218565b979650505050505050565b60608315611287578251600003611280576001600160a01b0385163b6112805760405162461bcd60e51b815260206004820152601d60248201527f416464726573733a2063616c6c20746f206e6f6e2d636f6e74726163740000006044820152606401610592565b50816106f2565b6106f2838381511561129c5781518083602001fd5b8060405162461bcd60e51b815260040161059291906112da565b60005b838110156112d15781810151838201526020016112b9565b50506000910152565b60208152600082518060208401526112f98160408501602087016112b6565b601f01601f19169190910160400192915050565b60006020828403121561131f57600080fd5b5035919050565b80356001600160a01b038116811461133d57600080fd5b919050565b6000806040838503121561135557600080fd5b61135e83611326565b946020939093013593505050565b60008060006060848603121561138157600080fd5b61138a84611326565b925061139860208501611326565b9150604084013590509250925092565b6000602082840312156113ba57600080fd5b61053682611326565b600080604083850312156113d657600080fd5b823591506113e660208401611326565b90509250929050565b60008060006060848603121561140457600080fd5b8335925061141460208501611326565b915061142260408501611326565b90509250925092565b6000806040838503121561143e57600080fd5b61144783611326565b91506113e660208401611326565b60006020828403121561146757600080fd5b5051919050565b600181811c9082168061148257607f821691505b6020821081036114a257634e487b7160e01b600052602260045260246000fd5b50919050565b634e487b7160e01b600052601160045260246000fd5b60ff81811683821601908111156104ec576104ec6114a8565b808201808211156104ec576104ec6114a8565b600181815b8085111561152557816000190482111561150b5761150b6114a8565b8085161561151857918102915b93841c93908002906114ef565b509250929050565b60008261153c575060016104ec565b81611549575060006104ec565b816001811461155f576002811461156957611585565b60019150506104ec565b60ff84111561157a5761157a6114a8565b50506001821b6104ec565b5060208310610133831016604e8410600b84101617156115a8575081810a6104ec565b6115b283836114ea565b80600019048211156115c6576115c66114a8565b029392505050565b600061053660ff84168361152d565b634e487b7160e01b600052602160045260246000fd5b634e487b7160e01b600052601260045260246000fd5b60006020828403121561161b57600080fd5b8151801515811461053657600080fd5b6000825161163d8184602087016112b6565b919091019291505056fea2646970667358221220a886a653dfc2b8b953881ac235ccf3419b33b83e3377513ab4ad288b6a4d5f3464736f6c63430008170033",
    "linkReferences": {}
  },
  "methodIdentifiers": {
    "allowance(address,address)": "dd62ed3e",
    "approve(address,uint256)": "095ea7b3",
    "asset()": "38d52e0f",
    "balanceOf(address)": "70a08231",
    "convertToAssets(uint256)": "07a2d13a",
    "convertToShares(uint256)": "c6e6f592",
    "decimals()": "313ce567",
    "decreaseAllowance(address,uint256)": "a457c2d7",
    "deposit(uint256,address)": "6e553f65",
    "increaseAllowance(address,uint256)": "39509351",
    "maxDeposit(address)": "402d267d",
    "maxMint(address)": "c63d75b6",
    "maxRedeem(address)": "d905777e",
    "maxWithdraw(address)": "ce96cb77",
    "mint(uint256,address)": "94bf804d",
    "name()": "06fdde03",
    "previewDeposit(uint256)": "ef8b30f7",
    "previewMint(uint256)": "b3d7f6b9",
    "previewRedeem(uint256)": "4cdad506",
    "previewWithdraw(uint256)": "0a28a477",
    "redeem(uint256,address,address)": "ba087652",
    "symbol()": "95d89b41",
    "totalAssets()": "01e1d114",
    "totalSupply()": "18160ddd",
    "transfer(address,uint256)": "a9059cbb",
    "transferFrom(address,address,uint256)": "23b872dd",
    "withdraw(uint256,address,address)": "b460af94"
  },
  "id": 34
}