{
  "address": "0xe7f1725E7734CE288F8367e1Bb143E90bb3F0512",
  "abi": [
    {
      "inputs": [
        {
          "internalType": "address",
          "name": "_token",
          "type": "address"
        }
      ],
      "stateMutability": "nonpayable",
      "type": "constructor"
    },
    {
      "inputs": [
        {
          "internalType": "uint256",
          "name": "_amount",
          "type": "uint256"
        }
      ],
      "name": "deposit",
      "outputs": [],
      "stateMutability": "nonpayable",
      "type": "function"
    },
    {
      "inputs": [],
      "name": "token",
      "outputs": [
        {
          "internalType": "contract IERC20",
          "name": "",
          "type": "address"
        }
      ],
      "stateMutability": "view",
      "type": "function"
    },
    {
      "inputs": [],
      "name": "totalSupply",
      "outputs": [
        {
          "internalType": "uint256",
          "name": "",
          "type": "uint256"
        }
      ],
      "stateMutability": "view",
      "type": "function"
    },
    {
      "inputs": [
        {
          "internalType": "uint256",
          "name": "_shares",
          "type": "uint256"
        }
      ],
      "name": "withdraw",
      "outputs": [],
      "stateMutability": "nonpayable",
      "type": "function"
    }
  ],
  "transactionHash": "0xaf70ca7891bd1348c102ed6048c8b75fa5b96a5dddbeaaa78c5ca387a821091a",
  "args": [
    "0x5FbDB2315678afecb367f032d93F642f64180aa3"
  ],
  "numDeployments": 1,
  "solcInputHash": "5f984bb0a2ce5f85b856bccc2c01f02a",
  "bytecode": "0x60a060405234801561001057600080fd5b506040516109bc3803806109bc833981810160405281019061003291906100cf565b8073ffffffffffffffffffffffffffffffffffffffff1660808173ffffffffffffffffffffffffffffffffffffffff1681525050506100fc565b600080fd5b600073ffffffffffffffffffffffffffffffffffffffff82169050919050565b600061009c82610071565b9050919050565b6100ac81610091565b81146100b757600080fd5b50565b6000815190506100c9816100a3565b92915050565b6000602082840312156100e5576100e461006c565b5b60006100f3848285016100ba565b91505092915050565b60805161088a6101326000396000818160d10152818161018c015281816102420152818161030101526103a6015261088a6000f3fe608060405234801561001057600080fd5b506004361061004c5760003560e01c806318160ddd146100515780632e1a7d4d1461006f578063b6b55f251461008b578063fc0c546a146100a7575b600080fd5b6100596100c5565b60405161006691906104c5565b60405180910390f35b61008960048036038101906100849190610511565b6100cb565b005b6100a560048036038101906100a09190610511565b61022d565b005b6100af6103a4565b6040516100bc91906105bd565b60405180910390f35b60005481565b600080547f000000000000000000000000000000000000000000000000000000000000000073ffffffffffffffffffffffffffffffffffffffff166370a08231306040518263ffffffff1660e01b815260040161012891906105f9565b602060405180830381865afa158015610145573d6000803e3d6000fd5b505050506040513d601f19601f820116820180604052508101906101699190610629565b836101749190610685565b61017e91906106f6565b905061018a33826103c8565b7f000000000000000000000000000000000000000000000000000000000000000073ffffffffffffffffffffffffffffffffffffffff1663a9059cbb33836040518363ffffffff1660e01b81526004016101e5929190610727565b6020604051808303816000875af1158015610204573d6000803e3d6000fd5b505050506040513d601f19601f820116820180604052508101906102289190610788565b505050565b60008060005403610240578190506102f5565b7f000000000000000000000000000000000000000000000000000000000000000073ffffffffffffffffffffffffffffffffffffffff166370a08231306040518263ffffffff1660e01b815260040161029991906105f9565b602060405180830381865afa1580156102b6573d6000803e3d6000fd5b505050506040513d601f19601f820116820180604052508101906102da9190610629565b600054836102e89190610685565b6102f291906106f6565b90505b6102ff338261043a565b7f000000000000000000000000000000000000000000000000000000000000000073ffffffffffffffffffffffffffffffffffffffff166323b872dd3330856040518463ffffffff1660e01b815260040161035c939291906107b5565b6020604051808303816000875af115801561037b573d6000803e3d6000fd5b505050506040513d601f19601f8201168201806040525081019061039f9190610788565b505050565b7f000000000000000000000000000000000000000000000000000000000000000081565b806000808282546103d991906107ec565b9250508190555080600160008473ffffffffffffffffffffffffffffffffffffffff1673ffffffffffffffffffffffffffffffffffffffff168152602001908152602001600020600082825461042f91906107ec565b925050819055505050565b8060008082825461044b9190610820565b9250508190555080600160008473ffffffffffffffffffffffffffffffffffffffff1673ffffffffffffffffffffffffffffffffffffffff16815260200190815260200160002060008282546104a19190610820565b925050819055505050565b6000819050919050565b6104bf816104ac565b82525050565b60006020820190506104da60008301846104b6565b92915050565b600080fd5b6104ee816104ac565b81146104f957600080fd5b50565b60008135905061050b816104e5565b92915050565b600060208284031215610527576105266104e0565b5b6000610535848285016104fc565b91505092915050565b600073ffffffffffffffffffffffffffffffffffffffff82169050919050565b6000819050919050565b600061058361057e6105798461053e565b61055e565b61053e565b9050919050565b600061059582610568565b9050919050565b60006105a78261058a565b9050919050565b6105b78161059c565b82525050565b60006020820190506105d260008301846105ae565b92915050565b60006105e38261053e565b9050919050565b6105f3816105d8565b82525050565b600060208201905061060e60008301846105ea565b92915050565b600081519050610623816104e5565b92915050565b60006020828403121561063f5761063e6104e0565b5b600061064d84828501610614565b91505092915050565b7f4e487b7100000000000000000000000000000000000000000000000000000000600052601160045260246000fd5b6000610690826104ac565b915061069b836104ac565b92508282026106a9816104ac565b915082820484148315176106c0576106bf610656565b5b5092915050565b7f4e487b7100000000000000000000000000000000000000000000000000000000600052601260045260246000fd5b6000610701826104ac565b915061070c836104ac565b92508261071c5761071b6106c7565b5b828204905092915050565b600060408201905061073c60008301856105ea565b61074960208301846104b6565b9392505050565b60008115159050919050565b61076581610750565b811461077057600080fd5b50565b6000815190506107828161075c565b92915050565b60006020828403121561079e5761079d6104e0565b5b60006107ac84828501610773565b91505092915050565b60006060820190506107ca60008301866105ea565b6107d760208301856105ea565b6107e460408301846104b6565b949350505050565b60006107f7826104ac565b9150610802836104ac565b925082820390508181111561081a57610819610656565b5b92915050565b600061082b826104ac565b9150610836836104ac565b925082820190508082111561084e5761084d610656565b5b9291505056fea2646970667358221220c6198daefb4c4fcba461b2df96b6d2ec5c45cdf9331d33f15533fdfd3419527164736f6c63430008140033",
  "devdoc": {
    "kind": "dev",
    "methods": {},
    "version": 1
  },
  "userdoc": {
    "kind": "user",
    "methods": {},
    "version": 1
  },
  "storageLayout": {
    "storage": [
      {
        "astId": 86,
        "contract": "src/VaultContract.sol:Vault",
        "label": "totalSupply",
        "offset": 0,
        "slot": "0",
        "type": "t_uint256"
      },
      {
        "astId": 90,
        "contract": "src/VaultContract.sol:Vault",
        "label": "balanceOf",
        "offset": 0,
        "slot": "1",
        "type": "t_mapping(t_address,t_uint256)"
      }
    ],
    "types": {
      "t_address": {
        "encoding": "inplace",
        "label": "address",
        "numberOfBytes": "20"
      },
      "t_mapping(t_address,t_uint256)": {
        "encoding": "mapping",
        "key": "t_address",
        "label": "mapping(address => uint256)",
        "numberOfBytes": "32",
        "value": "t_uint256"
      },
      "t_uint256": {
        "encoding": "inplace",
        "label": "uint256",
        "numberOfBytes": "32"
      }
    }
  }
}