{
  "address": "0x986ca47AeCc2a5d54dBfAC40254701EDF440f173",
  "abi": [
    {
      "inputs": [
        {
          "internalType": "contract IERC20Metadata",
          "name": "_asset",
          "type": "address"
        },
        {
          "internalType": "uint256",
          "name": "_basisPoints",
          "type": "uint256"
        },
        {
          "internalType": "address",
          "name": "_treasury",
          "type": "address"
        },
        {
          "internalType": "address",
          "name": "_factory",
          "type": "address"
        }
      ],
      "stateMutability": "nonpayable",
      "type": "constructor"
    },
    {
      "anonymous": false,
      "inputs": [
        {
          "indexed": true,
          "internalType": "address",
          "name": "owner",
          "type": "address"
        },
        {
          "indexed": true,
          "internalType": "address",
          "name": "spender",
          "type": "address"
        },
        {
          "indexed": false,
          "internalType": "uint256",
          "name": "value",
          "type": "uint256"
        }
      ],
      "name": "Approval",
      "type": "event"
    },
    {
      "anonymous": false,
      "inputs": [
        {
          "indexed": true,
          "internalType": "address",
          "name": "sender",
          "type": "address"
        },
        {
          "indexed": true,
          "internalType": "address",
          "name": "owner",
          "type": "address"
        },
        {
          "indexed": false,
          "internalType": "uint256",
          "name": "assets",
          "type": "uint256"
        },
        {
          "indexed": false,
          "internalType": "uint256",
          "name": "shares",
          "type": "uint256"
        }
      ],
      "name": "Deposit",
      "type": "event"
    },
    {
      "anonymous": false,
      "inputs": [
        {
          "indexed": true,
          "internalType": "address",
          "name": "from",
          "type": "address"
        },
        {
          "indexed": true,
          "internalType": "address",
          "name": "to",
          "type": "address"
        },
        {
          "indexed": false,
          "internalType": "uint256",
          "name": "value",
          "type": "uint256"
        }
      ],
      "name": "Transfer",
      "type": "event"
    },
    {
      "anonymous": false,
      "inputs": [
        {
          "indexed": true,
          "internalType": "address",
          "name": "sender",
          "type": "address"
        },
        {
          "indexed": true,
          "internalType": "address",
          "name": "receiver",
          "type": "address"
        },
        {
          "indexed": true,
          "internalType": "address",
          "name": "owner",
          "type": "address"
        },
        {
          "indexed": false,
          "internalType": "uint256",
          "name": "assets",
          "type": "uint256"
        },
        {
          "indexed": false,
          "internalType": "uint256",
          "name": "shares",
          "type": "uint256"
        }
      ],
      "name": "Withdraw",
      "type": "event"
    },
    {
      "inputs": [
        {
          "internalType": "address",
          "name": "receiver",
          "type": "address"
        },
        {
          "internalType": "uint256",
          "name": "amount",
          "type": "uint256"
        },
        {
          "internalType": "uint256",
          "name": "fee",
          "type": "uint256"
        }
      ],
      "name": "FlashLoan",
      "outputs": [],
      "stateMutability": "nonpayable",
      "type": "function"
    },
    {
      "inputs": [
        {
          "internalType": "address",
          "name": "owner",
          "type": "address"
        },
        {
          "internalType": "address",
          "name": "spender",
          "type": "address"
        }
      ],
      "name": "allowance",
      "outputs": [
        {
          "internalType": "uint256",
          "name": "",
          "type": "uint256"
        }
      ],
      "stateMutability": "view",
      "type": "function"
    },
    {
      "inputs": [
        {
          "internalType": "address",
          "name": "spender",
          "type": "address"
        },
        {
          "internalType": "uint256",
          "name": "amount",
          "type": "uint256"
        }
      ],
      "name": "approve",
      "outputs": [
        {
          "internalType": "bool",
          "name": "",
          "type": "bool"
        }
      ],
      "stateMutability": "nonpayable",
      "type": "function"
    },
    {
      "inputs": [],
      "name": "asset",
      "outputs": [
        {
          "internalType": "address",
          "name": "",
          "type": "address"
        }
      ],
      "stateMutability": "view",
      "type": "function"
    },
    {
      "inputs": [
        {
          "internalType": "address",
          "name": "account",
          "type": "address"
        }
      ],
      "name": "balanceOf",
      "outputs": [
        {
          "internalType": "uint256",
          "name": "",
          "type": "uint256"
        }
      ],
      "stateMutability": "view",
      "type": "function"
    },
    {
      "inputs": [
        {
          "internalType": "uint256",
          "name": "shares",
          "type": "uint256"
        }
      ],
      "name": "convertToAssets",
      "outputs": [
        {
          "internalType": "uint256",
          "name": "",
          "type": "uint256"
        }
      ],
      "stateMutability": "view",
      "type": "function"
    },
    {
      "inputs": [
        {
          "internalType": "uint256",
          "name": "assets",
          "type": "uint256"
        }
      ],
      "name": "convertToShares",
      "outputs": [
        {
          "internalType": "uint256",
          "name": "",
          "type": "uint256"
        }
      ],
      "stateMutability": "view",
      "type": "function"
    },
    {
      "inputs": [],
      "name": "decimals",
      "outputs": [
        {
          "internalType": "uint8",
          "name": "",
          "type": "uint8"
        }
      ],
      "stateMutability": "view",
      "type": "function"
    },
    {
      "inputs": [
        {
          "internalType": "address",
          "name": "spender",
          "type": "address"
        },
        {
          "internalType": "uint256",
          "name": "subtractedValue",
          "type": "uint256"
        }
      ],
      "name": "decreaseAllowance",
      "outputs": [
        {
          "internalType": "bool",
          "name": "",
          "type": "bool"
        }
      ],
      "stateMutability": "nonpayable",
      "type": "function"
    },
    {
      "inputs": [
        {
          "internalType": "uint256",
          "name": "assets",
          "type": "uint256"
        },
        {
          "internalType": "address",
          "name": "receiver",
          "type": "address"
        }
      ],
      "name": "deposit",
      "outputs": [
        {
          "internalType": "uint256",
          "name": "",
          "type": "uint256"
        }
      ],
      "stateMutability": "nonpayable",
      "type": "function"
    },
    {
      "inputs": [],
      "name": "entryFeeBasisPoints",
      "outputs": [
        {
          "internalType": "uint256",
          "name": "",
          "type": "uint256"
        }
      ],
      "stateMutability": "view",
      "type": "function"
    },
    {
      "inputs": [],
      "name": "factory",
      "outputs": [
        {
          "internalType": "address",
          "name": "",
          "type": "address"
        }
      ],
      "stateMutability": "view",
      "type": "function"
    },
    {
      "inputs": [
        {
          "internalType": "address",
          "name": "spender",
          "type": "address"
        },
        {
          "internalType": "uint256",
          "name": "addedValue",
          "type": "uint256"
        }
      ],
      "name": "increaseAllowance",
      "outputs": [
        {
          "internalType": "bool",
          "name": "",
          "type": "bool"
        }
      ],
      "stateMutability": "nonpayable",
      "type": "function"
    },
    {
      "inputs": [
        {
          "internalType": "address",
          "name": "",
          "type": "address"
        }
      ],
      "name": "maxDeposit",
      "outputs": [
        {
          "internalType": "uint256",
          "name": "",
          "type": "uint256"
        }
      ],
      "stateMutability": "view",
      "type": "function"
    },
    {
      "inputs": [
        {
          "internalType": "address",
          "name": "",
          "type": "address"
        }
      ],
      "name": "maxMint",
      "outputs": [
        {
          "internalType": "uint256",
          "name": "",
          "type": "uint256"
        }
      ],
      "stateMutability": "view",
      "type": "function"
    },
    {
      "inputs": [
        {
          "internalType": "address",
          "name": "owner",
          "type": "address"
        }
      ],
      "name": "maxRedeem",
      "outputs": [
        {
          "internalType": "uint256",
          "name": "",
          "type": "uint256"
        }
      ],
      "stateMutability": "view",
      "type": "function"
    },
    {
      "inputs": [
        {
          "internalType": "address",
          "name": "owner",
          "type": "address"
        }
      ],
      "name": "maxWithdraw",
      "outputs": [
        {
          "internalType": "uint256",
          "name": "",
          "type": "uint256"
        }
      ],
      "stateMutability": "view",
      "type": "function"
    },
    {
      "inputs": [
        {
          "internalType": "uint256",
          "name": "shares",
          "type": "uint256"
        },
        {
          "internalType": "address",
          "name": "receiver",
          "type": "address"
        }
      ],
      "name": "mint",
      "outputs": [
        {
          "internalType": "uint256",
          "name": "",
          "type": "uint256"
        }
      ],
      "stateMutability": "nonpayable",
      "type": "function"
    },
    {
      "inputs": [],
      "name": "name",
      "outputs": [
        {
          "internalType": "string",
          "name": "",
          "type": "string"
        }
      ],
      "stateMutability": "view",
      "type": "function"
    },
    {
      "inputs": [],
      "name": "owner",
      "outputs": [
        {
          "internalType": "address",
          "name": "",
          "type": "address"
        }
      ],
      "stateMutability": "view",
      "type": "function"
    },
    {
      "inputs": [
        {
          "internalType": "uint256",
          "name": "assets",
          "type": "uint256"
        }
      ],
      "name": "previewDeposit",
      "outputs": [
        {
          "internalType": "uint256",
          "name": "",
          "type": "uint256"
        }
      ],
      "stateMutability": "view",
      "type": "function"
    },
    {
      "inputs": [
        {
          "internalType": "uint256",
          "name": "shares",
          "type": "uint256"
        }
      ],
      "name": "previewMint",
      "outputs": [
        {
          "internalType": "uint256",
          "name": "",
          "type": "uint256"
        }
      ],
      "stateMutability": "view",
      "type": "function"
    },
    {
      "inputs": [
        {
          "internalType": "uint256",
          "name": "shares",
          "type": "uint256"
        }
      ],
      "name": "previewRedeem",
      "outputs": [
        {
          "internalType": "uint256",
          "name": "",
          "type": "uint256"
        }
      ],
      "stateMutability": "view",
      "type": "function"
    },
    {
      "inputs": [
        {
          "internalType": "uint256",
          "name": "assets",
          "type": "uint256"
        }
      ],
      "name": "previewWithdraw",
      "outputs": [
        {
          "internalType": "uint256",
          "name": "",
          "type": "uint256"
        }
      ],
      "stateMutability": "view",
      "type": "function"
    },
    {
      "inputs": [
        {
          "internalType": "uint256",
          "name": "shares",
          "type": "uint256"
        },
        {
          "internalType": "address",
          "name": "receiver",
          "type": "address"
        },
        {
          "internalType": "address",
          "name": "owner",
          "type": "address"
        }
      ],
      "name": "redeem",
      "outputs": [
        {
          "internalType": "uint256",
          "name": "",
          "type": "uint256"
        }
      ],
      "stateMutability": "nonpayable",
      "type": "function"
    },
    {
      "inputs": [],
      "name": "symbol",
      "outputs": [
        {
          "internalType": "string",
          "name": "",
          "type": "string"
        }
      ],
      "stateMutability": "view",
      "type": "function"
    },
    {
      "inputs": [],
      "name": "tokenholders",
      "outputs": [
        {
          "internalType": "uint256",
          "name": "",
          "type": "uint256"
        }
      ],
      "stateMutability": "view",
      "type": "function"
    },
    {
      "inputs": [],
      "name": "totalAssets",
      "outputs": [
        {
          "internalType": "uint256",
          "name": "",
          "type": "uint256"
        }
      ],
      "stateMutability": "view",
      "type": "function"
    },
    {
      "inputs": [],
      "name": "totalSupply",
      "outputs": [
        {
          "internalType": "uint256",
          "name": "",
          "type": "uint256"
        }
      ],
      "stateMutability": "view",
      "type": "function"
    },
    {
      "inputs": [
        {
          "internalType": "address",
          "name": "to",
          "type": "address"
        },
        {
          "internalType": "uint256",
          "name": "amount",
          "type": "uint256"
        }
      ],
      "name": "transfer",
      "outputs": [
        {
          "internalType": "bool",
          "name": "",
          "type": "bool"
        }
      ],
      "stateMutability": "nonpayable",
      "type": "function"
    },
    {
      "inputs": [
        {
          "internalType": "address",
          "name": "from",
          "type": "address"
        },
        {
          "internalType": "address",
          "name": "to",
          "type": "address"
        },
        {
          "internalType": "uint256",
          "name": "amount",
          "type": "uint256"
        }
      ],
      "name": "transferFrom",
      "outputs": [
        {
          "internalType": "bool",
          "name": "",
          "type": "bool"
        }
      ],
      "stateMutability": "nonpayable",
      "type": "function"
    },
    {
      "inputs": [
        {
          "internalType": "uint256",
          "name": "assets",
          "type": "uint256"
        },
        {
          "internalType": "address",
          "name": "receiver",
          "type": "address"
        },
        {
          "internalType": "address",
          "name": "owner",
          "type": "address"
        }
      ],
      "name": "withdraw",
      "outputs": [
        {
          "internalType": "uint256",
          "name": "",
          "type": "uint256"
        }
      ],
      "stateMutability": "nonpayable",
      "type": "function"
    }
  ],
  "transactionHash": "0x3bde0bc569534f8014d5719eca957b3eec75be12d49b2326e293494a18e33275",
  "args": [
    "0xACc3f1318a6017bf3D12809DCE4Ed4ffA087d228",
    100,
    "0xACc3f1318a6017bf3D12809DCE4Ed4ffA087d228",
    "0xACc3f1318a6017bf3D12809DCE4Ed4ffA087d228"
  ],
  "numDeployments": 1,
  "solcInputHash": "bd53b56f5b3ca4d01c5d31eca417cf9e",
  "bytecode": "0x60e06040523480156200001157600080fd5b5060405162003f5f38038062003f5f8339818101604052810190620000379190620003e0565b836040518060400160405280600b81526020017f5661756c7420546f6b656e0000000000000000000000000000000000000000008152506040518060400160405280600381526020017f564c5400000000000000000000000000000000000000000000000000000000008152508160039081620000b59190620006c2565b508060049081620000c79190620006c2565b505050600080620000de83620001bc60201b60201c565b9150915081620000f0576012620000f2565b805b60ff1660a08160ff16815250508273ffffffffffffffffffffffffffffffffffffffff1660808173ffffffffffffffffffffffffffffffffffffffff168152505050505081600660006101000a81548173ffffffffffffffffffffffffffffffffffffffff021916908373ffffffffffffffffffffffffffffffffffffffff160217905550826007819055508073ffffffffffffffffffffffffffffffffffffffff1660c08173ffffffffffffffffffffffffffffffffffffffff1681525050505050506200086d565b6000806000808473ffffffffffffffffffffffffffffffffffffffff1663313ce56760e01b604051602401604051602081830303815290604052907bffffffffffffffffffffffffffffffffffffffffffffffffffffffff19166020820180517bffffffffffffffffffffffffffffffffffffffffffffffffffffffff838183161783525050505060405162000253919062000822565b600060405180830381855afa9150503d806000811462000290576040519150601f19603f3d011682016040523d82523d6000602084013e62000295565b606091505b5091509150818015620002aa57506020815110155b15620002e757600081806020019051810190620002c891906200083b565b905060ff80168111620002e55760018194509450505050620002f1565b505b6000809350935050505b915091565b600080fd5b600073ffffffffffffffffffffffffffffffffffffffff82169050919050565b60006200032882620002fb565b9050919050565b60006200033c826200031b565b9050919050565b6200034e816200032f565b81146200035a57600080fd5b50565b6000815190506200036e8162000343565b92915050565b6000819050919050565b620003898162000374565b81146200039557600080fd5b50565b600081519050620003a9816200037e565b92915050565b620003ba816200031b565b8114620003c657600080fd5b50565b600081519050620003da81620003af565b92915050565b60008060008060808587031215620003fd57620003fc620002f6565b5b60006200040d878288016200035d565b9450506020620004208782880162000398565b93505060406200043387828801620003c9565b92505060606200044687828801620003c9565b91505092959194509250565b600081519050919050565b7f4e487b7100000000000000000000000000000000000000000000000000000000600052604160045260246000fd5b7f4e487b7100000000000000000000000000000000000000000000000000000000600052602260045260246000fd5b60006002820490506001821680620004d457607f821691505b602082108103620004ea57620004e96200048c565b5b50919050565b60008190508160005260206000209050919050565b60006020601f8301049050919050565b600082821b905092915050565b600060088302620005547fffffffffffffffffffffffffffffffffffffffffffffffffffffffffffffffff8262000515565b62000560868362000515565b95508019841693508086168417925050509392505050565b6000819050919050565b6000620005a36200059d620005978462000374565b62000578565b62000374565b9050919050565b6000819050919050565b620005bf8362000582565b620005d7620005ce82620005aa565b84845462000522565b825550505050565b600090565b620005ee620005df565b620005fb818484620005b4565b505050565b5b81811015620006235762000617600082620005e4565b60018101905062000601565b5050565b601f82111562000672576200063c81620004f0565b620006478462000505565b8101602085101562000657578190505b6200066f620006668562000505565b83018262000600565b50505b505050565b600082821c905092915050565b6000620006976000198460080262000677565b1980831691505092915050565b6000620006b2838362000684565b9150826002028217905092915050565b620006cd8262000452565b67ffffffffffffffff811115620006e957620006e86200045d565b5b620006f58254620004bb565b6200070282828562000627565b600060209050601f8311600181146200073a576000841562000725578287015190505b620007318582620006a4565b865550620007a1565b601f1984166200074a86620004f0565b60005b8281101562000774578489015182556001820191506020850194506020810190506200074d565b8683101562000794578489015162000790601f89168262000684565b8355505b6001600288020188555050505b505050505050565b600081519050919050565b600081905092915050565b60005b83811015620007df578082015181840152602081019050620007c2565b60008484015250505050565b6000620007f882620007a9565b620008048185620007b4565b935062000816818560208601620007bf565b80840191505092915050565b6000620008308284620007eb565b915081905092915050565b600060208284031215620008545762000853620002f6565b5b6000620008648482850162000398565b91505092915050565b60805160a05160c0516136ad620008b260003960006111150152600061091401526000818161073101528181610caa01528181611adc0152611c7801526136ad6000f3fe608060405234801561001057600080fd5b50600436106101f05760003560e01c80638da5cb5b1161010f578063ba0af7a9116100a2578063ce96cb7711610071578063ce96cb771461066d578063d905777e1461069d578063dd62ed3e146106cd578063ef8b30f7146106fd576101f0565b8063ba0af7a9146105d1578063c45a0155146105ef578063c63d75b61461060d578063c6e6f5921461063d576101f0565b8063a9059cbb116100de578063a9059cbb14610511578063b3d7f6b914610541578063b460af9414610571578063ba087652146105a1576101f0565b80638da5cb5b1461047557806394bf804d1461049357806395d89b41146104c3578063a457c2d7146104e1576101f0565b8063313ce56711610187578063402d267d11610156578063402d267d146103b55780634cdad506146103e55780636e553f651461041557806370a0823114610445576101f0565b8063313ce5671461032d57806331aaad381461034b57806338d52e0f146103675780633950935114610385576101f0565b80630a28a477116101c35780630a28a47714610291578063169b0d7f146102c157806318160ddd146102df57806323b872dd146102fd576101f0565b806301e1d114146101f557806306fdde031461021357806307a2d13a14610231578063095ea7b314610261575b600080fd5b6101fd61072d565b60405161020a919061248e565b60405180910390f35b61021b6107ce565b6040516102289190612539565b60405180910390f35b61024b6004803603810190610246919061258c565b610860565b604051610258919061248e565b60405180910390f35b61027b60048036038101906102769190612617565b610874565b6040516102889190612672565b60405180910390f35b6102ab60048036038101906102a6919061258c565b610897565b6040516102b8919061248e565b60405180910390f35b6102c96108c9565b6040516102d6919061248e565b60405180910390f35b6102e76108cf565b6040516102f4919061248e565b60405180910390f35b6103176004803603810190610312919061268d565b6108d9565b6040516103249190612672565b60405180910390f35b610335610908565b60405161034291906126fc565b60405180910390f35b61036560048036038101906103609190612717565b610942565b005b61036f610ca6565b60405161037c9190612779565b60405180910390f35b61039f600480360381019061039a9190612617565b610cce565b6040516103ac9190612672565b60405180910390f35b6103cf60048036038101906103ca9190612794565b610d05565b6040516103dc919061248e565b60405180910390f35b6103ff60048036038101906103fa919061258c565b610d2f565b60405161040c919061248e565b60405180910390f35b61042f600480360381019061042a91906127c1565b610d61565b60405161043c919061248e565b60405180910390f35b61045f600480360381019061045a9190612794565b610dd8565b60405161046c919061248e565b60405180910390f35b61047d610e20565b60405161048a9190612779565b60405180910390f35b6104ad60048036038101906104a891906127c1565b610e46565b6040516104ba919061248e565b60405180910390f35b6104cb610ebd565b6040516104d89190612539565b60405180910390f35b6104fb60048036038101906104f69190612617565b610f4f565b6040516105089190612672565b60405180910390f35b61052b60048036038101906105269190612617565b610fc6565b6040516105389190612672565b60405180910390f35b61055b6004803603810190610556919061258c565b610fe9565b604051610568919061248e565b60405180910390f35b61058b60048036038101906105869190612801565b61101b565b604051610598919061248e565b60405180910390f35b6105bb60048036038101906105b69190612801565b611094565b6040516105c8919061248e565b60405180910390f35b6105d961110d565b6040516105e6919061248e565b60405180910390f35b6105f7611113565b6040516106049190612779565b60405180910390f35b61062760048036038101906106229190612794565b611137565b604051610634919061248e565b60405180910390f35b6106576004803603810190610652919061258c565b611161565b604051610664919061248e565b60405180910390f35b61068760048036038101906106829190612794565b611175565b604051610694919061248e565b60405180910390f35b6106b760048036038101906106b29190612794565b611191565b6040516106c4919061248e565b60405180910390f35b6106e760048036038101906106e29190612854565b6111a3565b6040516106f4919061248e565b60405180910390f35b6107176004803603810190610712919061258c565b61122a565b604051610724919061248e565b60405180910390f35b60007f000000000000000000000000000000000000000000000000000000000000000073ffffffffffffffffffffffffffffffffffffffff166370a08231306040518263ffffffff1660e01b81526004016107889190612779565b602060405180830381865afa1580156107a5573d6000803e3d6000fd5b505050506040513d601f19601f820116820180604052508101906107c991906128a9565b905090565b6060600380546107dd90612905565b80601f016020809104026020016040519081016040528092919081815260200182805461080990612905565b80156108565780601f1061082b57610100808354040283529160200191610856565b820191906000526020600020905b81548152906001019060200180831161083957829003601f168201915b5050505050905090565b600061086d82600061125c565b9050919050565b60008061087f6112b5565b905061088c8185856112bd565b600191505092915050565b6000806108ab836108a6611486565b611490565b90506108c181846108bc9190612965565b6114b4565b915050919050565b60055481565b6000600254905090565b6000806108e46112b5565b90506108f18582856114c8565b6108fc858585611554565b60019150509392505050565b60006109126117ca565b7f000000000000000000000000000000000000000000000000000000000000000061093d9190612999565b905090565b82828261094d610ca6565b73ffffffffffffffffffffffffffffffffffffffff166370a08231306040518263ffffffff1660e01b81526004016109859190612779565b602060405180830381865afa1580156109a2573d6000803e3d6000fd5b505050506040513d601f19601f820116820180604052508101906109c691906128a9565b85106109d157600080fd5b60006109db610ca6565b73ffffffffffffffffffffffffffffffffffffffff166370a08231306040518263ffffffff1660e01b8152600401610a139190612779565b602060405180830381865afa158015610a30573d6000803e3d6000fd5b505050506040513d601f19601f82011682018060405250810190610a5491906128a9565b9050610a5e610ca6565b73ffffffffffffffffffffffffffffffffffffffff1663a9059cbb88886040518363ffffffff1660e01b8152600401610a989291906129ce565b6020604051808303816000875af1158015610ab7573d6000803e3d6000fd5b505050506040513d601f19601f82011682018060405250810190610adb9190612a23565b508673ffffffffffffffffffffffffffffffffffffffff166364f9510e610b00610ca6565b8888306040518563ffffffff1660e01b8152600401610b229493929190612a50565b6020604051808303816000875af1158015610b41573d6000803e3d6000fd5b505050506040513d601f19601f82011682018060405250810190610b659190612a23565b506000610b7b86886117cf90919063ffffffff16565b9050610b85610ca6565b73ffffffffffffffffffffffffffffffffffffffff166323b872dd8930848b610bae9190612965565b6040518463ffffffff1660e01b8152600401610bcc93929190612a95565b6020604051808303816000875af1158015610beb573d6000803e3d6000fd5b505050506040513d601f19601f82011682018060405250810190610c0f9190612a23565b5081610c19610ca6565b73ffffffffffffffffffffffffffffffffffffffff166370a08231306040518263ffffffff1660e01b8152600401610c519190612779565b602060405180830381865afa158015610c6e573d6000803e3d6000fd5b505050506040513d601f19601f82011682018060405250810190610c9291906128a9565b11610c9c57600080fd5b5050505050505050565b60007f0000000000000000000000000000000000000000000000000000000000000000905090565b600080610cd96112b5565b9050610cfa818585610ceb85896111a3565b610cf59190612965565b6112bd565b600191505092915050565b60007fffffffffffffffffffffffffffffffffffffffffffffffffffffffffffffffff9050919050565b600080610d3b836117fc565b9050610d4e81610d49611486565b611810565b81610d599190612acc565b915050919050565b6000610d6c82610d05565b831115610dae576040517f08c379a0000000000000000000000000000000000000000000000000000000008152600401610da590612b4c565b60405180910390fd5b6000610db98461122a565b9050610dce610dc66112b5565b84868461183f565b8091505092915050565b60008060008373ffffffffffffffffffffffffffffffffffffffff1673ffffffffffffffffffffffffffffffffffffffff168152602001908152602001600020549050919050565b600660009054906101000a900473ffffffffffffffffffffffffffffffffffffffff1681565b6000610e5182611137565b831115610e93576040517f08c379a0000000000000000000000000000000000000000000000000000000008152600401610e8a90612bb8565b60405180910390fd5b6000610e9e84610fe9565b9050610eb3610eab6112b5565b84838761183f565b8091505092915050565b606060048054610ecc90612905565b80601f0160208091040260200160405190810160405280929190818152602001828054610ef890612905565b8015610f455780601f10610f1a57610100808354040283529160200191610f45565b820191906000526020600020905b815481529060010190602001808311610f2857829003601f168201915b5050505050905090565b600080610f5a6112b5565b90506000610f6882866111a3565b905083811015610fad576040517f08c379a0000000000000000000000000000000000000000000000000000000008152600401610fa490612c4a565b60405180910390fd5b610fba82868684036112bd565b60019250505092915050565b600080610fd16112b5565b9050610fde818585611554565b600191505092915050565b600080610ff5836118da565b9050611008816110036118ee565b611490565b816110139190612965565b915050919050565b600061102682611175565b841115611068576040517f08c379a000000000000000000000000000000000000000000000000000000000815260040161105f90612cb6565b60405180910390fd5b600061107385610897565b90506110896110806112b5565b858588856118f8565b809150509392505050565b600061109f82611191565b8411156110e1576040517f08c379a00000000000000000000000000000000000000000000000000000000081526004016110d890612d22565b60405180910390fd5b60006110ec85610d2f565b90506111026110f96112b5565b858584896118f8565b809150509392505050565b60075481565b7f000000000000000000000000000000000000000000000000000000000000000081565b60007fffffffffffffffffffffffffffffffffffffffffffffffffffffffffffffffff9050919050565b600061116e8260006119c0565b9050919050565b600061118a61118383610dd8565b600061125c565b9050919050565b600061119c82610dd8565b9050919050565b6000600160008473ffffffffffffffffffffffffffffffffffffffff1673ffffffffffffffffffffffffffffffffffffffff16815260200190815260200160002060008373ffffffffffffffffffffffffffffffffffffffff1673ffffffffffffffffffffffffffffffffffffffff16815260200190815260200160002054905092915050565b60008061123e836112396118ee565b611810565b9050611254818461124f9190612acc565b611a19565b915050919050565b60006112ad600161126b61072d565b6112759190612965565b61127d6117ca565b600a6112899190612e75565b6112916108cf565b61129b9190612965565b8486611a2d909392919063ffffffff16565b905092915050565b600033905090565b600073ffffffffffffffffffffffffffffffffffffffff168373ffffffffffffffffffffffffffffffffffffffff160361132c576040517f08c379a000000000000000000000000000000000000000000000000000000000815260040161132390612f32565b60405180910390fd5b600073ffffffffffffffffffffffffffffffffffffffff168273ffffffffffffffffffffffffffffffffffffffff160361139b576040517f08c379a000000000000000000000000000000000000000000000000000000000815260040161139290612fc4565b60405180910390fd5b80600160008573ffffffffffffffffffffffffffffffffffffffff1673ffffffffffffffffffffffffffffffffffffffff16815260200190815260200160002060008473ffffffffffffffffffffffffffffffffffffffff1673ffffffffffffffffffffffffffffffffffffffff168152602001908152602001600020819055508173ffffffffffffffffffffffffffffffffffffffff168373ffffffffffffffffffffffffffffffffffffffff167f8c5be1e5ebec7d5bd14f71427d1e84f3dd0314c0f7b2291e5b200ac8c7c3b92583604051611479919061248e565b60405180910390a3505050565b6000600754905090565b60006114ac82612710600186611a2d909392919063ffffffff16565b905092915050565b60006114c18260016119c0565b9050919050565b60006114d484846111a3565b90507fffffffffffffffffffffffffffffffffffffffffffffffffffffffffffffffff811461154e5781811015611540576040517f08c379a000000000000000000000000000000000000000000000000000000000815260040161153790613030565b60405180910390fd5b61154d84848484036112bd565b5b50505050565b600073ffffffffffffffffffffffffffffffffffffffff168373ffffffffffffffffffffffffffffffffffffffff16036115c3576040517f08c379a00000000000000000000000000000000000000000000000000000000081526004016115ba906130c2565b60405180910390fd5b600073ffffffffffffffffffffffffffffffffffffffff168273ffffffffffffffffffffffffffffffffffffffff1603611632576040517f08c379a000000000000000000000000000000000000000000000000000000000815260040161162990613154565b60405180910390fd5b61163d838383611aa3565b60008060008573ffffffffffffffffffffffffffffffffffffffff1673ffffffffffffffffffffffffffffffffffffffff168152602001908152602001600020549050818110156116c3576040517f08c379a00000000000000000000000000000000000000000000000000000000081526004016116ba906131e6565b60405180910390fd5b8181036000808673ffffffffffffffffffffffffffffffffffffffff1673ffffffffffffffffffffffffffffffffffffffff16815260200190815260200160002081905550816000808573ffffffffffffffffffffffffffffffffffffffff1673ffffffffffffffffffffffffffffffffffffffff168152602001908152602001600020600082825401925050819055508273ffffffffffffffffffffffffffffffffffffffff168473ffffffffffffffffffffffffffffffffffffffff167fddf252ad1be2c89b69c2b068fc378daa952ba7f163c4a11628f55a4df523b3ef846040516117b1919061248e565b60405180910390a36117c4848484611aa8565b50505050565b600090565b60008161138860001903048311158215176117e957600080fd5b6127106113888385020104905092915050565b600061180982600061125c565b9050919050565b600061183782612710846118249190612965565b600186611a2d909392919063ffffffff16565b905092915050565b60006118528361184d6118ee565b611810565b9050600061185e611aad565b905061186c86868686611ad7565b6000821180156118a857503073ffffffffffffffffffffffffffffffffffffffff168173ffffffffffffffffffffffffffffffffffffffff1614155b156118c0576118bf6118b8610ca6565b8284611b7a565b5b600560008154809291906001019190505550505050505050565b60006118e782600161125c565b9050919050565b6000600754905090565b600061190b83611906611486565b611490565b90506000611917611c00565b9050600061192f6064866117cf90919063ffffffff16565b90506000818661193f9190612965565b905061194e8989898489611c2a565b60008411801561198a57503073ffffffffffffffffffffffffffffffffffffffff168373ffffffffffffffffffffffffffffffffffffffff1614155b156119a2576119a161199a610ca6565b8486611b7a565b5b60056000815480929190600190039190505550505050505050505050565b6000611a116119cd6117ca565b600a6119d99190612e75565b6119e16108cf565b6119eb9190612965565b60016119f561072d565b6119ff9190612965565b8486611a2d909392919063ffffffff16565b905092915050565b6000611a268260006119c0565b9050919050565b600080611a3b868686611d23565b905060016002811115611a5157611a50613206565b5b836002811115611a6457611a63613206565b5b148015611a82575060008480611a7d57611a7c613235565b5b868809115b15611a9757600181611a949190612965565b90505b80915050949350505050565b505050565b505050565b6000600660009054906101000a900473ffffffffffffffffffffffffffffffffffffffff16905090565b611b037f0000000000000000000000000000000000000000000000000000000000000000853085611e34565b611b0d8382611ebd565b8273ffffffffffffffffffffffffffffffffffffffff168473ffffffffffffffffffffffffffffffffffffffff167fdcbc1c05240f31ff3ad067ef1ee35ce4997762752e3a095284754544f4c709d78484604051611b6c929190613264565b60405180910390a350505050565b611bfb8363a9059cbb60e01b8484604051602401611b999291906129ce565b604051602081830303815290604052907bffffffffffffffffffffffffffffffffffffffffffffffffffffffff19166020820180517bffffffffffffffffffffffffffffffffffffffffffffffffffffffff8381831617835250505050612013565b505050565b6000600660009054906101000a900473ffffffffffffffffffffffffffffffffffffffff16905090565b8273ffffffffffffffffffffffffffffffffffffffff168573ffffffffffffffffffffffffffffffffffffffff1614611c6957611c688386836114c8565b5b611c7383826120db565b611c9e7f00000000000000000000000000000000000000000000000000000000000000008584611b7a565b8273ffffffffffffffffffffffffffffffffffffffff168473ffffffffffffffffffffffffffffffffffffffff168673ffffffffffffffffffffffffffffffffffffffff167ffbde797d201c681b91056529119e0b02407c7bb96a4a2c75c01fc9667232c8db8585604051611d14929190613264565b60405180910390a45050505050565b6000806000801985870985870292508281108382030391505060008103611d5e57838281611d5457611d53613235565b5b0492505050611e2d565b808411611da0576040517f08c379a0000000000000000000000000000000000000000000000000000000008152600401611d97906132d9565b60405180910390fd5b60008486880990508281118203915080830392506000600186190186169050808604955080840493506001818260000304019050808302841793506000600287600302189050808702600203810290508087026002038102905080870260020381029050808702600203810290508087026002038102905080870260020381029050808502955050505050505b9392505050565b611eb7846323b872dd60e01b858585604051602401611e5593929190612a95565b604051602081830303815290604052907bffffffffffffffffffffffffffffffffffffffffffffffffffffffff19166020820180517bffffffffffffffffffffffffffffffffffffffffffffffffffffffff8381831617835250505050612013565b50505050565b600073ffffffffffffffffffffffffffffffffffffffff168273ffffffffffffffffffffffffffffffffffffffff1603611f2c576040517f08c379a0000000000000000000000000000000000000000000000000000000008152600401611f2390613345565b60405180910390fd5b611f3860008383611aa3565b8060026000828254611f4a9190612965565b92505081905550806000808473ffffffffffffffffffffffffffffffffffffffff1673ffffffffffffffffffffffffffffffffffffffff168152602001908152602001600020600082825401925050819055508173ffffffffffffffffffffffffffffffffffffffff16600073ffffffffffffffffffffffffffffffffffffffff167fddf252ad1be2c89b69c2b068fc378daa952ba7f163c4a11628f55a4df523b3ef83604051611ffb919061248e565b60405180910390a361200f60008383611aa8565b5050565b6000612075826040518060400160405280602081526020017f5361666545524332303a206c6f772d6c6576656c2063616c6c206661696c65648152508573ffffffffffffffffffffffffffffffffffffffff166122a89092919063ffffffff16565b90506000815114806120975750808060200190518101906120969190612a23565b5b6120d6576040517f08c379a00000000000000000000000000000000000000000000000000000000081526004016120cd906133d7565b60405180910390fd5b505050565b600073ffffffffffffffffffffffffffffffffffffffff168273ffffffffffffffffffffffffffffffffffffffff160361214a576040517f08c379a000000000000000000000000000000000000000000000000000000000815260040161214190613469565b60405180910390fd5b61215682600083611aa3565b60008060008473ffffffffffffffffffffffffffffffffffffffff1673ffffffffffffffffffffffffffffffffffffffff168152602001908152602001600020549050818110156121dc576040517f08c379a00000000000000000000000000000000000000000000000000000000081526004016121d3906134fb565b60405180910390fd5b8181036000808573ffffffffffffffffffffffffffffffffffffffff1673ffffffffffffffffffffffffffffffffffffffff1681526020019081526020016000208190555081600260008282540392505081905550600073ffffffffffffffffffffffffffffffffffffffff168373ffffffffffffffffffffffffffffffffffffffff167fddf252ad1be2c89b69c2b068fc378daa952ba7f163c4a11628f55a4df523b3ef8460405161228f919061248e565b60405180910390a36122a383600084611aa8565b505050565b60606122b784846000856122c0565b90509392505050565b606082471015612305576040517f08c379a00000000000000000000000000000000000000000000000000000000081526004016122fc9061358d565b60405180910390fd5b6000808673ffffffffffffffffffffffffffffffffffffffff16858760405161232e91906135f4565b60006040518083038185875af1925050503d806000811461236b576040519150601f19603f3d011682016040523d82523d6000602084013e612370565b606091505b50915091506123818783838761238d565b92505050949350505050565b606083156123ef5760008351036123e7576123a785612402565b6123e6576040517f08c379a00000000000000000000000000000000000000000000000000000000081526004016123dd90613657565b60405180910390fd5b5b8290506123fa565b6123f98383612425565b5b949350505050565b6000808273ffffffffffffffffffffffffffffffffffffffff163b119050919050565b6000825111156124385781518083602001fd5b806040517f08c379a000000000000000000000000000000000000000000000000000000000815260040161246c9190612539565b60405180910390fd5b6000819050919050565b61248881612475565b82525050565b60006020820190506124a3600083018461247f565b92915050565b600081519050919050565b600082825260208201905092915050565b60005b838110156124e35780820151818401526020810190506124c8565b60008484015250505050565b6000601f19601f8301169050919050565b600061250b826124a9565b61251581856124b4565b93506125258185602086016124c5565b61252e816124ef565b840191505092915050565b600060208201905081810360008301526125538184612500565b905092915050565b600080fd5b61256981612475565b811461257457600080fd5b50565b60008135905061258681612560565b92915050565b6000602082840312156125a2576125a161255b565b5b60006125b084828501612577565b91505092915050565b600073ffffffffffffffffffffffffffffffffffffffff82169050919050565b60006125e4826125b9565b9050919050565b6125f4816125d9565b81146125ff57600080fd5b50565b600081359050612611816125eb565b92915050565b6000806040838503121561262e5761262d61255b565b5b600061263c85828601612602565b925050602061264d85828601612577565b9150509250929050565b60008115159050919050565b61266c81612657565b82525050565b60006020820190506126876000830184612663565b92915050565b6000806000606084860312156126a6576126a561255b565b5b60006126b486828701612602565b93505060206126c586828701612602565b92505060406126d686828701612577565b9150509250925092565b600060ff82169050919050565b6126f6816126e0565b82525050565b600060208201905061271160008301846126ed565b92915050565b6000806000606084860312156127305761272f61255b565b5b600061273e86828701612602565b935050602061274f86828701612577565b925050604061276086828701612577565b9150509250925092565b612773816125d9565b82525050565b600060208201905061278e600083018461276a565b92915050565b6000602082840312156127aa576127a961255b565b5b60006127b884828501612602565b91505092915050565b600080604083850312156127d8576127d761255b565b5b60006127e685828601612577565b92505060206127f785828601612602565b9150509250929050565b60008060006060848603121561281a5761281961255b565b5b600061282886828701612577565b935050602061283986828701612602565b925050604061284a86828701612602565b9150509250925092565b6000806040838503121561286b5761286a61255b565b5b600061287985828601612602565b925050602061288a85828601612602565b9150509250929050565b6000815190506128a381612560565b92915050565b6000602082840312156128bf576128be61255b565b5b60006128cd84828501612894565b91505092915050565b7f4e487b7100000000000000000000000000000000000000000000000000000000600052602260045260246000fd5b6000600282049050600182168061291d57607f821691505b6020821081036129305761292f6128d6565b5b50919050565b7f4e487b7100000000000000000000000000000000000000000000000000000000600052601160045260246000fd5b600061297082612475565b915061297b83612475565b925082820190508082111561299357612992612936565b5b92915050565b60006129a4826126e0565b91506129af836126e0565b9250828201905060ff8111156129c8576129c7612936565b5b92915050565b60006040820190506129e3600083018561276a565b6129f0602083018461247f565b9392505050565b612a0081612657565b8114612a0b57600080fd5b50565b600081519050612a1d816129f7565b92915050565b600060208284031215612a3957612a3861255b565b5b6000612a4784828501612a0e565b91505092915050565b6000608082019050612a65600083018761276a565b612a72602083018661247f565b612a7f604083018561247f565b612a8c606083018461276a565b95945050505050565b6000606082019050612aaa600083018661276a565b612ab7602083018561276a565b612ac4604083018461247f565b949350505050565b6000612ad782612475565b9150612ae283612475565b9250828203905081811115612afa57612af9612936565b5b92915050565b7f455243343632363a206465706f736974206d6f7265207468616e206d61780000600082015250565b6000612b36601e836124b4565b9150612b4182612b00565b602082019050919050565b60006020820190508181036000830152612b6581612b29565b9050919050565b7f455243343632363a206d696e74206d6f7265207468616e206d61780000000000600082015250565b6000612ba2601b836124b4565b9150612bad82612b6c565b602082019050919050565b60006020820190508181036000830152612bd181612b95565b9050919050565b7f45524332303a2064656372656173656420616c6c6f77616e63652062656c6f7760008201527f207a65726f000000000000000000000000000000000000000000000000000000602082015250565b6000612c346025836124b4565b9150612c3f82612bd8565b604082019050919050565b60006020820190508181036000830152612c6381612c27565b9050919050565b7f455243343632363a207769746864726177206d6f7265207468616e206d617800600082015250565b6000612ca0601f836124b4565b9150612cab82612c6a565b602082019050919050565b60006020820190508181036000830152612ccf81612c93565b9050919050565b7f455243343632363a2072656465656d206d6f7265207468616e206d6178000000600082015250565b6000612d0c601d836124b4565b9150612d1782612cd6565b602082019050919050565b60006020820190508181036000830152612d3b81612cff565b9050919050565b60008160011c9050919050565b6000808291508390505b6001851115612d9957808604811115612d7557612d74612936565b5b6001851615612d845780820291505b8081029050612d9285612d42565b9450612d59565b94509492505050565b600082612db25760019050612e6e565b81612dc05760009050612e6e565b8160018114612dd65760028114612de057612e0f565b6001915050612e6e565b60ff841115612df257612df1612936565b5b8360020a915084821115612e0957612e08612936565b5b50612e6e565b5060208310610133831016604e8410600b8410161715612e445782820a905083811115612e3f57612e3e612936565b5b612e6e565b612e518484846001612d4f565b92509050818404811115612e6857612e67612936565b5b81810290505b9392505050565b6000612e8082612475565b9150612e8b836126e0565b9250612eb87fffffffffffffffffffffffffffffffffffffffffffffffffffffffffffffffff8484612da2565b905092915050565b7f45524332303a20617070726f76652066726f6d20746865207a65726f2061646460008201527f7265737300000000000000000000000000000000000000000000000000000000602082015250565b6000612f1c6024836124b4565b9150612f2782612ec0565b604082019050919050565b60006020820190508181036000830152612f4b81612f0f565b9050919050565b7f45524332303a20617070726f766520746f20746865207a65726f20616464726560008201527f7373000000000000000000000000000000000000000000000000000000000000602082015250565b6000612fae6022836124b4565b9150612fb982612f52565b604082019050919050565b60006020820190508181036000830152612fdd81612fa1565b9050919050565b7f45524332303a20696e73756666696369656e7420616c6c6f77616e6365000000600082015250565b600061301a601d836124b4565b915061302582612fe4565b602082019050919050565b600060208201905081810360008301526130498161300d565b9050919050565b7f45524332303a207472616e736665722066726f6d20746865207a65726f20616460008201527f6472657373000000000000000000000000000000000000000000000000000000602082015250565b60006130ac6025836124b4565b91506130b782613050565b604082019050919050565b600060208201905081810360008301526130db8161309f565b9050919050565b7f45524332303a207472616e7366657220746f20746865207a65726f206164647260008201527f6573730000000000000000000000000000000000000000000000000000000000602082015250565b600061313e6023836124b4565b9150613149826130e2565b604082019050919050565b6000602082019050818103600083015261316d81613131565b9050919050565b7f45524332303a207472616e7366657220616d6f756e742065786365656473206260008201527f616c616e63650000000000000000000000000000000000000000000000000000602082015250565b60006131d06026836124b4565b91506131db82613174565b604082019050919050565b600060208201905081810360008301526131ff816131c3565b9050919050565b7f4e487b7100000000000000000000000000000000000000000000000000000000600052602160045260246000fd5b7f4e487b7100000000000000000000000000000000000000000000000000000000600052601260045260246000fd5b6000604082019050613279600083018561247f565b613286602083018461247f565b9392505050565b7f4d6174683a206d756c446976206f766572666c6f770000000000000000000000600082015250565b60006132c36015836124b4565b91506132ce8261328d565b602082019050919050565b600060208201905081810360008301526132f2816132b6565b9050919050565b7f45524332303a206d696e7420746f20746865207a65726f206164647265737300600082015250565b600061332f601f836124b4565b915061333a826132f9565b602082019050919050565b6000602082019050818103600083015261335e81613322565b9050919050565b7f5361666545524332303a204552433230206f7065726174696f6e20646964206e60008201527f6f74207375636365656400000000000000000000000000000000000000000000602082015250565b60006133c1602a836124b4565b91506133cc82613365565b604082019050919050565b600060208201905081810360008301526133f0816133b4565b9050919050565b7f45524332303a206275726e2066726f6d20746865207a65726f2061646472657360008201527f7300000000000000000000000000000000000000000000000000000000000000602082015250565b60006134536021836124b4565b915061345e826133f7565b604082019050919050565b6000602082019050818103600083015261348281613446565b9050919050565b7f45524332303a206275726e20616d6f756e7420657863656564732062616c616e60008201527f6365000000000000000000000000000000000000000000000000000000000000602082015250565b60006134e56022836124b4565b91506134f082613489565b604082019050919050565b60006020820190508181036000830152613514816134d8565b9050919050565b7f416464726573733a20696e73756666696369656e742062616c616e636520666f60008201527f722063616c6c0000000000000000000000000000000000000000000000000000602082015250565b60006135776026836124b4565b91506135828261351b565b604082019050919050565b600060208201905081810360008301526135a68161356a565b9050919050565b600081519050919050565b600081905092915050565b60006135ce826135ad565b6135d881856135b8565b93506135e88185602086016124c5565b80840191505092915050565b600061360082846135c3565b915081905092915050565b7f416464726573733a2063616c6c20746f206e6f6e2d636f6e7472616374000000600082015250565b6000613641601d836124b4565b915061364c8261360b565b602082019050919050565b6000602082019050818103600083015261367081613634565b905091905056fea2646970667358221220523b9b26898b250c85078ff00aa009d309b47baafd39b5c5d313ef9e8fee146264736f6c63430008140033",
  "devdoc": {
    "events": {
      "Approval(address,address,uint256)": {
        "details": "Emitted when the allowance of a `spender` for an `owner` is set by a call to {approve}. `value` is the new allowance."
      },
      "Transfer(address,address,uint256)": {
        "details": "Emitted when `value` tokens are moved from one account (`from`) to another (`to`). Note that `value` may be zero."
      }
    },
    "kind": "dev",
    "methods": {
      "allowance(address,address)": {
        "details": "See {IERC20-allowance}."
      },
      "approve(address,uint256)": {
        "details": "See {IERC20-approve}. NOTE: If `amount` is the maximum `uint256`, the allowance is not updated on `transferFrom`. This is semantically equivalent to an infinite approval. Requirements: - `spender` cannot be the zero address."
      },
      "asset()": {
        "details": "See {IERC4626-asset}. "
      },
      "balanceOf(address)": {
        "details": "See {IERC20-balanceOf}."
      },
      "convertToAssets(uint256)": {
        "details": "See {IERC4626-convertToAssets}. "
      },
      "convertToShares(uint256)": {
        "details": "See {IERC4626-convertToShares}. "
      },
      "decimals()": {
        "details": "Decimals are computed by adding the decimal offset on top of the underlying asset's decimals. This \"original\" value is cached during construction of the vault contract. If this read operation fails (e.g., the asset has not been created yet), a default of 18 is used to represent the underlying asset's decimals. See {IERC20Metadata-decimals}."
      },
      "decreaseAllowance(address,uint256)": {
        "details": "Atomically decreases the allowance granted to `spender` by the caller. This is an alternative to {approve} that can be used as a mitigation for problems described in {IERC20-approve}. Emits an {Approval} event indicating the updated allowance. Requirements: - `spender` cannot be the zero address. - `spender` must have allowance for the caller of at least `subtractedValue`."
      },
      "deposit(uint256,address)": {
        "details": "See {IERC4626-deposit}. "
      },
      "increaseAllowance(address,uint256)": {
        "details": "Atomically increases the allowance granted to `spender` by the caller. This is an alternative to {approve} that can be used as a mitigation for problems described in {IERC20-approve}. Emits an {Approval} event indicating the updated allowance. Requirements: - `spender` cannot be the zero address."
      },
      "maxDeposit(address)": {
        "details": "See {IERC4626-maxDeposit}. "
      },
      "maxMint(address)": {
        "details": "See {IERC4626-maxMint}. "
      },
      "maxRedeem(address)": {
        "details": "See {IERC4626-maxRedeem}. "
      },
      "maxWithdraw(address)": {
        "details": "See {IERC4626-maxWithdraw}. "
      },
      "mint(uint256,address)": {
        "details": "See {IERC4626-mint}. As opposed to {deposit}, minting is allowed even if the vault is in a state where the price of a share is zero. In this case, the shares will be minted without requiring any assets to be deposited."
      },
      "name()": {
        "details": "Returns the name of the token."
      },
      "previewDeposit(uint256)": {
        "details": "Preview taking an entry fee on deposit. See {IERC4626-previewDeposit}."
      },
      "previewMint(uint256)": {
        "details": "Preview adding an entry fee on mint. See {IERC4626-previewMint}."
      },
      "previewRedeem(uint256)": {
        "details": "Preview taking an exit fee on redeem. See {IERC4626-previewRedeem}."
      },
      "previewWithdraw(uint256)": {
        "details": "Preview adding an exit fee on withdraw. See {IERC4626-previewWithdraw}."
      },
      "redeem(uint256,address,address)": {
        "details": "See {IERC4626-redeem}. "
      },
      "symbol()": {
        "details": "Returns the symbol of the token, usually a shorter version of the name."
      },
      "totalAssets()": {
        "details": "See {IERC4626-totalAssets}. "
      },
      "totalSupply()": {
        "details": "See {IERC20-totalSupply}."
      },
      "transfer(address,uint256)": {
        "details": "See {IERC20-transfer}. Requirements: - `to` cannot be the zero address. - the caller must have a balance of at least `amount`."
      },
      "transferFrom(address,address,uint256)": {
        "details": "See {IERC20-transferFrom}. Emits an {Approval} event indicating the updated allowance. This is not required by the EIP. See the note at the beginning of {ERC20}. NOTE: Does not update the allowance if the current allowance is the maximum `uint256`. Requirements: - `from` and `to` cannot be the zero address. - `from` must have a balance of at least `amount`. - the caller must have allowance for ``from``'s tokens of at least `amount`."
      },
      "withdraw(uint256,address,address)": {
        "details": "See {IERC4626-withdraw}. "
      }
    },
    "version": 1
  },
  "userdoc": {
    "kind": "user",
    "methods": {},
    "version": 1
  },
  "storageLayout": {
    "storage": [
      {
        "astId": 299,
        "contract": "src/VaultContractFees.sol:VaultWithFee",
        "label": "_balances",
        "offset": 0,
        "slot": "0",
        "type": "t_mapping(t_address,t_uint256)"
      },
      {
        "astId": 305,
        "contract": "src/VaultContractFees.sol:VaultWithFee",
        "label": "_allowances",
        "offset": 0,
        "slot": "1",
        "type": "t_mapping(t_address,t_mapping(t_address,t_uint256))"
      },
      {
        "astId": 307,
        "contract": "src/VaultContractFees.sol:VaultWithFee",
        "label": "_totalSupply",
        "offset": 0,
        "slot": "2",
        "type": "t_uint256"
      },
      {
        "astId": 309,
        "contract": "src/VaultContractFees.sol:VaultWithFee",
        "label": "_name",
        "offset": 0,
        "slot": "3",
        "type": "t_string_storage"
      },
      {
        "astId": 311,
        "contract": "src/VaultContractFees.sol:VaultWithFee",
        "label": "_symbol",
        "offset": 0,
        "slot": "4",
        "type": "t_string_storage"
      },
      {
        "astId": 11673,
        "contract": "src/VaultContractFees.sol:VaultWithFee",
        "label": "tokenholders",
        "offset": 0,
        "slot": "5",
        "type": "t_uint256"
      },
      {
        "astId": 12003,
        "contract": "src/VaultContractFees.sol:VaultWithFee",
        "label": "owner",
        "offset": 0,
        "slot": "6",
        "type": "t_address"
      },
      {
        "astId": 12005,
        "contract": "src/VaultContractFees.sol:VaultWithFee",
        "label": "entryFeeBasisPoints",
        "offset": 0,
        "slot": "7",
        "type": "t_uint256"
      }
    ],
    "types": {
      "t_address": {
        "encoding": "inplace",
        "label": "address",
        "numberOfBytes": "20"
      },
      "t_mapping(t_address,t_mapping(t_address,t_uint256))": {
        "encoding": "mapping",
        "key": "t_address",
        "label": "mapping(address => mapping(address => uint256))",
        "numberOfBytes": "32",
        "value": "t_mapping(t_address,t_uint256)"
      },
      "t_mapping(t_address,t_uint256)": {
        "encoding": "mapping",
        "key": "t_address",
        "label": "mapping(address => uint256)",
        "numberOfBytes": "32",
        "value": "t_uint256"
      },
      "t_string_storage": {
        "encoding": "bytes",
        "label": "string",
        "numberOfBytes": "32"
      },
      "t_uint256": {
        "encoding": "inplace",
        "label": "uint256",
        "numberOfBytes": "32"
      }
    }
  }
}