{
  "address": "0x34f9929b28D8e04D3E7EB2d7F76f938B40F5cbC7",
  "abi": [
    {
      "inputs": [
        {
          "internalType": "contract IERC20Metadata",
          "name": "_asset",
          "type": "address"
        }
      ],
      "stateMutability": "nonpayable",
      "type": "constructor"
    },
    {
      "anonymous": false,
      "inputs": [
        {
          "indexed": true,
          "internalType": "address",
          "name": "owner",
          "type": "address"
        },
        {
          "indexed": true,
          "internalType": "address",
          "name": "spender",
          "type": "address"
        },
        {
          "indexed": false,
          "internalType": "uint256",
          "name": "value",
          "type": "uint256"
        }
      ],
      "name": "Approval",
      "type": "event"
    },
    {
      "anonymous": false,
      "inputs": [
        {
          "indexed": true,
          "internalType": "address",
          "name": "sender",
          "type": "address"
        },
        {
          "indexed": true,
          "internalType": "address",
          "name": "owner",
          "type": "address"
        },
        {
          "indexed": false,
          "internalType": "uint256",
          "name": "assets",
          "type": "uint256"
        },
        {
          "indexed": false,
          "internalType": "uint256",
          "name": "shares",
          "type": "uint256"
        }
      ],
      "name": "Deposit",
      "type": "event"
    },
    {
      "anonymous": false,
      "inputs": [
        {
          "indexed": true,
          "internalType": "address",
          "name": "from",
          "type": "address"
        },
        {
          "indexed": true,
          "internalType": "address",
          "name": "to",
          "type": "address"
        },
        {
          "indexed": false,
          "internalType": "uint256",
          "name": "value",
          "type": "uint256"
        }
      ],
      "name": "Transfer",
      "type": "event"
    },
    {
      "anonymous": false,
      "inputs": [
        {
          "indexed": true,
          "internalType": "address",
          "name": "sender",
          "type": "address"
        },
        {
          "indexed": true,
          "internalType": "address",
          "name": "receiver",
          "type": "address"
        },
        {
          "indexed": true,
          "internalType": "address",
          "name": "owner",
          "type": "address"
        },
        {
          "indexed": false,
          "internalType": "uint256",
          "name": "assets",
          "type": "uint256"
        },
        {
          "indexed": false,
          "internalType": "uint256",
          "name": "shares",
          "type": "uint256"
        }
      ],
      "name": "Withdraw",
      "type": "event"
    },
    {
      "inputs": [
        {
          "internalType": "address",
          "name": "owner",
          "type": "address"
        },
        {
          "internalType": "address",
          "name": "spender",
          "type": "address"
        }
      ],
      "name": "allowance",
      "outputs": [
        {
          "internalType": "uint256",
          "name": "",
          "type": "uint256"
        }
      ],
      "stateMutability": "view",
      "type": "function"
    },
    {
      "inputs": [
        {
          "internalType": "address",
          "name": "spender",
          "type": "address"
        },
        {
          "internalType": "uint256",
          "name": "amount",
          "type": "uint256"
        }
      ],
      "name": "approve",
      "outputs": [
        {
          "internalType": "bool",
          "name": "",
          "type": "bool"
        }
      ],
      "stateMutability": "nonpayable",
      "type": "function"
    },
    {
      "inputs": [],
      "name": "asset",
      "outputs": [
        {
          "internalType": "address",
          "name": "",
          "type": "address"
        }
      ],
      "stateMutability": "view",
      "type": "function"
    },
    {
      "inputs": [
        {
          "internalType": "address",
          "name": "account",
          "type": "address"
        }
      ],
      "name": "balanceOf",
      "outputs": [
        {
          "internalType": "uint256",
          "name": "",
          "type": "uint256"
        }
      ],
      "stateMutability": "view",
      "type": "function"
    },
    {
      "inputs": [
        {
          "internalType": "uint256",
          "name": "shares",
          "type": "uint256"
        }
      ],
      "name": "convertToAssets",
      "outputs": [
        {
          "internalType": "uint256",
          "name": "",
          "type": "uint256"
        }
      ],
      "stateMutability": "view",
      "type": "function"
    },
    {
      "inputs": [
        {
          "internalType": "uint256",
          "name": "assets",
          "type": "uint256"
        }
      ],
      "name": "convertToShares",
      "outputs": [
        {
          "internalType": "uint256",
          "name": "",
          "type": "uint256"
        }
      ],
      "stateMutability": "view",
      "type": "function"
    },
    {
      "inputs": [],
      "name": "decimals",
      "outputs": [
        {
          "internalType": "uint8",
          "name": "",
          "type": "uint8"
        }
      ],
      "stateMutability": "view",
      "type": "function"
    },
    {
      "inputs": [
        {
          "internalType": "address",
          "name": "spender",
          "type": "address"
        },
        {
          "internalType": "uint256",
          "name": "subtractedValue",
          "type": "uint256"
        }
      ],
      "name": "decreaseAllowance",
      "outputs": [
        {
          "internalType": "bool",
          "name": "",
          "type": "bool"
        }
      ],
      "stateMutability": "nonpayable",
      "type": "function"
    },
    {
      "inputs": [
        {
          "internalType": "uint256",
          "name": "assets",
          "type": "uint256"
        },
        {
          "internalType": "address",
          "name": "receiver",
          "type": "address"
        }
      ],
      "name": "deposit",
      "outputs": [
        {
          "internalType": "uint256",
          "name": "",
          "type": "uint256"
        }
      ],
      "stateMutability": "nonpayable",
      "type": "function"
    },
    {
      "inputs": [
        {
          "internalType": "address",
          "name": "spender",
          "type": "address"
        },
        {
          "internalType": "uint256",
          "name": "addedValue",
          "type": "uint256"
        }
      ],
      "name": "increaseAllowance",
      "outputs": [
        {
          "internalType": "bool",
          "name": "",
          "type": "bool"
        }
      ],
      "stateMutability": "nonpayable",
      "type": "function"
    },
    {
      "inputs": [
        {
          "internalType": "address",
          "name": "",
          "type": "address"
        }
      ],
      "name": "maxDeposit",
      "outputs": [
        {
          "internalType": "uint256",
          "name": "",
          "type": "uint256"
        }
      ],
      "stateMutability": "view",
      "type": "function"
    },
    {
      "inputs": [
        {
          "internalType": "address",
          "name": "",
          "type": "address"
        }
      ],
      "name": "maxMint",
      "outputs": [
        {
          "internalType": "uint256",
          "name": "",
          "type": "uint256"
        }
      ],
      "stateMutability": "view",
      "type": "function"
    },
    {
      "inputs": [
        {
          "internalType": "address",
          "name": "owner",
          "type": "address"
        }
      ],
      "name": "maxRedeem",
      "outputs": [
        {
          "internalType": "uint256",
          "name": "",
          "type": "uint256"
        }
      ],
      "stateMutability": "view",
      "type": "function"
    },
    {
      "inputs": [
        {
          "internalType": "address",
          "name": "owner",
          "type": "address"
        }
      ],
      "name": "maxWithdraw",
      "outputs": [
        {
          "internalType": "uint256",
          "name": "",
          "type": "uint256"
        }
      ],
      "stateMutability": "view",
      "type": "function"
    },
    {
      "inputs": [
        {
          "internalType": "uint256",
          "name": "shares",
          "type": "uint256"
        },
        {
          "internalType": "address",
          "name": "receiver",
          "type": "address"
        }
      ],
      "name": "mint",
      "outputs": [
        {
          "internalType": "uint256",
          "name": "",
          "type": "uint256"
        }
      ],
      "stateMutability": "nonpayable",
      "type": "function"
    },
    {
      "inputs": [],
      "name": "name",
      "outputs": [
        {
          "internalType": "string",
          "name": "",
          "type": "string"
        }
      ],
      "stateMutability": "view",
      "type": "function"
    },
    {
      "inputs": [
        {
          "internalType": "uint256",
          "name": "assets",
          "type": "uint256"
        }
      ],
      "name": "previewDeposit",
      "outputs": [
        {
          "internalType": "uint256",
          "name": "",
          "type": "uint256"
        }
      ],
      "stateMutability": "view",
      "type": "function"
    },
    {
      "inputs": [
        {
          "internalType": "uint256",
          "name": "shares",
          "type": "uint256"
        }
      ],
      "name": "previewMint",
      "outputs": [
        {
          "internalType": "uint256",
          "name": "",
          "type": "uint256"
        }
      ],
      "stateMutability": "view",
      "type": "function"
    },
    {
      "inputs": [
        {
          "internalType": "uint256",
          "name": "shares",
          "type": "uint256"
        }
      ],
      "name": "previewRedeem",
      "outputs": [
        {
          "internalType": "uint256",
          "name": "",
          "type": "uint256"
        }
      ],
      "stateMutability": "view",
      "type": "function"
    },
    {
      "inputs": [
        {
          "internalType": "uint256",
          "name": "assets",
          "type": "uint256"
        }
      ],
      "name": "previewWithdraw",
      "outputs": [
        {
          "internalType": "uint256",
          "name": "",
          "type": "uint256"
        }
      ],
      "stateMutability": "view",
      "type": "function"
    },
    {
      "inputs": [
        {
          "internalType": "uint256",
          "name": "shares",
          "type": "uint256"
        },
        {
          "internalType": "address",
          "name": "receiver",
          "type": "address"
        },
        {
          "internalType": "address",
          "name": "owner",
          "type": "address"
        }
      ],
      "name": "redeem",
      "outputs": [
        {
          "internalType": "uint256",
          "name": "",
          "type": "uint256"
        }
      ],
      "stateMutability": "nonpayable",
      "type": "function"
    },
    {
      "inputs": [],
      "name": "symbol",
      "outputs": [
        {
          "internalType": "string",
          "name": "",
          "type": "string"
        }
      ],
      "stateMutability": "view",
      "type": "function"
    },
    {
      "inputs": [],
      "name": "totalAssets",
      "outputs": [
        {
          "internalType": "uint256",
          "name": "",
          "type": "uint256"
        }
      ],
      "stateMutability": "view",
      "type": "function"
    },
    {
      "inputs": [],
      "name": "totalSupply",
      "outputs": [
        {
          "internalType": "uint256",
          "name": "",
          "type": "uint256"
        }
      ],
      "stateMutability": "view",
      "type": "function"
    },
    {
      "inputs": [
        {
          "internalType": "address",
          "name": "to",
          "type": "address"
        },
        {
          "internalType": "uint256",
          "name": "amount",
          "type": "uint256"
        }
      ],
      "name": "transfer",
      "outputs": [
        {
          "internalType": "bool",
          "name": "",
          "type": "bool"
        }
      ],
      "stateMutability": "nonpayable",
      "type": "function"
    },
    {
      "inputs": [
        {
          "internalType": "address",
          "name": "from",
          "type": "address"
        },
        {
          "internalType": "address",
          "name": "to",
          "type": "address"
        },
        {
          "internalType": "uint256",
          "name": "amount",
          "type": "uint256"
        }
      ],
      "name": "transferFrom",
      "outputs": [
        {
          "internalType": "bool",
          "name": "",
          "type": "bool"
        }
      ],
      "stateMutability": "nonpayable",
      "type": "function"
    },
    {
      "inputs": [
        {
          "internalType": "uint256",
          "name": "assets",
          "type": "uint256"
        },
        {
          "internalType": "address",
          "name": "receiver",
          "type": "address"
        },
        {
          "internalType": "address",
          "name": "owner",
          "type": "address"
        }
      ],
      "name": "withdraw",
      "outputs": [
        {
          "internalType": "uint256",
          "name": "",
          "type": "uint256"
        }
      ],
      "stateMutability": "nonpayable",
      "type": "function"
    }
  ],
  "transactionHash": "0x7d69d1c8265cea8f471e56b02021a3f9c682a4735f1db556e6f3d7ab904fc463",
  "args": [
    "0xACc3f1318a6017bf3D12809DCE4Ed4ffA087d228"
  ],
  "numDeployments": 3,
  "solcInputHash": "52af0cbef3ef576d2691ff3d20ea57de",
  "bytecode": "0x60c06040523480156200001157600080fd5b50604051620035f1380380620035f18339818101604052810190620000379190620002f5565b806040518060400160405280600b81526020017f5661756c7420546f6b656e0000000000000000000000000000000000000000008152506040518060400160405280600381526020017f564c5400000000000000000000000000000000000000000000000000000000008152508160039081620000b59190620005a1565b508060049081620000c79190620005a1565b505050600080620000de836200013d60201b60201c565b9150915081620000f0576012620000f2565b805b60ff1660a08160ff16815250508273ffffffffffffffffffffffffffffffffffffffff1660808173ffffffffffffffffffffffffffffffffffffffff1681525050505050506200077d565b6000806000808473ffffffffffffffffffffffffffffffffffffffff1663313ce56760e01b604051602401604051602081830303815290604052907bffffffffffffffffffffffffffffffffffffffffffffffffffffffff19166020820180517bffffffffffffffffffffffffffffffffffffffffffffffffffffffff8381831617835250505050604051620001d4919062000701565b600060405180830381855afa9150503d806000811462000211576040519150601f19603f3d011682016040523d82523d6000602084013e62000216565b606091505b50915091508180156200022b57506020815110155b1562000268576000818060200190518101906200024991906200074b565b905060ff8016811162000266576001819450945050505062000272565b505b6000809350935050505b915091565b600080fd5b600073ffffffffffffffffffffffffffffffffffffffff82169050919050565b6000620002a9826200027c565b9050919050565b6000620002bd826200029c565b9050919050565b620002cf81620002b0565b8114620002db57600080fd5b50565b600081519050620002ef81620002c4565b92915050565b6000602082840312156200030e576200030d62000277565b5b60006200031e84828501620002de565b91505092915050565b600081519050919050565b7f4e487b7100000000000000000000000000000000000000000000000000000000600052604160045260246000fd5b7f4e487b7100000000000000000000000000000000000000000000000000000000600052602260045260246000fd5b60006002820490506001821680620003a957607f821691505b602082108103620003bf57620003be62000361565b5b50919050565b60008190508160005260206000209050919050565b60006020601f8301049050919050565b600082821b905092915050565b600060088302620004297fffffffffffffffffffffffffffffffffffffffffffffffffffffffffffffffff82620003ea565b620004358683620003ea565b95508019841693508086168417925050509392505050565b6000819050919050565b6000819050919050565b6000620004826200047c62000476846200044d565b62000457565b6200044d565b9050919050565b6000819050919050565b6200049e8362000461565b620004b6620004ad8262000489565b848454620003f7565b825550505050565b600090565b620004cd620004be565b620004da81848462000493565b505050565b5b818110156200050257620004f6600082620004c3565b600181019050620004e0565b5050565b601f82111562000551576200051b81620003c5565b6200052684620003da565b8101602085101562000536578190505b6200054e6200054585620003da565b830182620004df565b50505b505050565b600082821c905092915050565b6000620005766000198460080262000556565b1980831691505092915050565b600062000591838362000563565b9150826002028217905092915050565b620005ac8262000327565b67ffffffffffffffff811115620005c857620005c762000332565b5b620005d4825462000390565b620005e182828562000506565b600060209050601f83116001811462000619576000841562000604578287015190505b62000610858262000583565b86555062000680565b601f1984166200062986620003c5565b60005b8281101562000653578489015182556001820191506020850194506020810190506200062c565b868310156200067357848901516200066f601f89168262000563565b8355505b6001600288020188555050505b505050505050565b600081519050919050565b600081905092915050565b60005b83811015620006be578082015181840152602081019050620006a1565b60008484015250505050565b6000620006d78262000688565b620006e3818562000693565b9350620006f58185602086016200069e565b80840191505092915050565b60006200070f8284620006ca565b915081905092915050565b62000725816200044d565b81146200073157600080fd5b50565b60008151905062000745816200071a565b92915050565b60006020828403121562000764576200076362000277565b5b6000620007748482850162000734565b91505092915050565b60805160a051612e39620007b8600039600061081501526000818161065601528181610847015281816112de01526113ca0152612e396000f3fe608060405234801561001057600080fd5b50600436106101a95760003560e01c806370a08231116100f9578063ba08765211610097578063ce96cb7711610071578063ce96cb7714610592578063d905777e146105c2578063dd62ed3e146105f2578063ef8b30f714610622576101a9565b8063ba08765214610502578063c63d75b614610532578063c6e6f59214610562576101a9565b8063a457c2d7116100d3578063a457c2d714610442578063a9059cbb14610472578063b3d7f6b9146104a2578063b460af94146104d2576101a9565b806370a08231146103c457806394bf804d146103f457806395d89b4114610424576101a9565b806323b872dd1161016657806339509351116101405780633950935114610304578063402d267d146103345780634cdad506146103645780636e553f6514610394576101a9565b806323b872dd14610298578063313ce567146102c857806338d52e0f146102e6576101a9565b806301e1d114146101ae57806306fdde03146101cc57806307a2d13a146101ea578063095ea7b31461021a5780630a28a4771461024a57806318160ddd1461027a575b600080fd5b6101b6610652565b6040516101c39190611ce6565b60405180910390f35b6101d46106f3565b6040516101e19190611d91565b60405180910390f35b61020460048036038101906101ff9190611de4565b610785565b6040516102119190611ce6565b60405180910390f35b610234600480360381019061022f9190611e6f565b610799565b6040516102419190611eca565b60405180910390f35b610264600480360381019061025f9190611de4565b6107bc565b6040516102719190611ce6565b60405180910390f35b6102826107d0565b60405161028f9190611ce6565b60405180910390f35b6102b260048036038101906102ad9190611ee5565b6107da565b6040516102bf9190611eca565b60405180910390f35b6102d0610809565b6040516102dd9190611f54565b60405180910390f35b6102ee610843565b6040516102fb9190611f7e565b60405180910390f35b61031e60048036038101906103199190611e6f565b61086b565b60405161032b9190611eca565b60405180910390f35b61034e60048036038101906103499190611f99565b6108a2565b60405161035b9190611ce6565b60405180910390f35b61037e60048036038101906103799190611de4565b6108cc565b60405161038b9190611ce6565b60405180910390f35b6103ae60048036038101906103a99190611fc6565b6108e0565b6040516103bb9190611ce6565b60405180910390f35b6103de60048036038101906103d99190611f99565b610957565b6040516103eb9190611ce6565b60405180910390f35b61040e60048036038101906104099190611fc6565b61099f565b60405161041b9190611ce6565b60405180910390f35b61042c610a16565b6040516104399190611d91565b60405180910390f35b61045c60048036038101906104579190611e6f565b610aa8565b6040516104699190611eca565b60405180910390f35b61048c60048036038101906104879190611e6f565b610b1f565b6040516104999190611eca565b60405180910390f35b6104bc60048036038101906104b79190611de4565b610b42565b6040516104c99190611ce6565b60405180910390f35b6104ec60048036038101906104e79190612006565b610b56565b6040516104f99190611ce6565b60405180910390f35b61051c60048036038101906105179190612006565b610bcf565b6040516105299190611ce6565b60405180910390f35b61054c60048036038101906105479190611f99565b610c48565b6040516105599190611ce6565b60405180910390f35b61057c60048036038101906105779190611de4565b610c72565b6040516105899190611ce6565b60405180910390f35b6105ac60048036038101906105a79190611f99565b610c86565b6040516105b99190611ce6565b60405180910390f35b6105dc60048036038101906105d79190611f99565b610ca2565b6040516105e99190611ce6565b60405180910390f35b61060c60048036038101906106079190612059565b610cb4565b6040516106199190611ce6565b60405180910390f35b61063c60048036038101906106379190611de4565b610d3b565b6040516106499190611ce6565b60405180910390f35b60007f000000000000000000000000000000000000000000000000000000000000000073ffffffffffffffffffffffffffffffffffffffff166370a08231306040518263ffffffff1660e01b81526004016106ad9190611f7e565b602060405180830381865afa1580156106ca573d6000803e3d6000fd5b505050506040513d601f19601f820116820180604052508101906106ee91906120ae565b905090565b6060600380546107029061210a565b80601f016020809104026020016040519081016040528092919081815260200182805461072e9061210a565b801561077b5780601f106107505761010080835404028352916020019161077b565b820191906000526020600020905b81548152906001019060200180831161075e57829003601f168201915b5050505050905090565b6000610792826000610d4f565b9050919050565b6000806107a4610da8565b90506107b1818585610db0565b600191505092915050565b60006107c9826001610f79565b9050919050565b6000600254905090565b6000806107e5610da8565b90506107f2858285610fd2565b6107fd85858561105e565b60019150509392505050565b60006108136112d4565b7f000000000000000000000000000000000000000000000000000000000000000061083e919061216a565b905090565b60007f0000000000000000000000000000000000000000000000000000000000000000905090565b600080610876610da8565b90506108978185856108888589610cb4565b610892919061219f565b610db0565b600191505092915050565b60007fffffffffffffffffffffffffffffffffffffffffffffffffffffffffffffffff9050919050565b60006108d9826000610d4f565b9050919050565b60006108eb826108a2565b83111561092d576040517f08c379a00000000000000000000000000000000000000000000000000000000081526004016109249061221f565b60405180910390fd5b600061093884610d3b565b905061094d610945610da8565b8486846112d9565b8091505092915050565b60008060008373ffffffffffffffffffffffffffffffffffffffff1673ffffffffffffffffffffffffffffffffffffffff168152602001908152602001600020549050919050565b60006109aa82610c48565b8311156109ec576040517f08c379a00000000000000000000000000000000000000000000000000000000081526004016109e39061228b565b60405180910390fd5b60006109f784610b42565b9050610a0c610a04610da8565b8483876112d9565b8091505092915050565b606060048054610a259061210a565b80601f0160208091040260200160405190810160405280929190818152602001828054610a519061210a565b8015610a9e5780601f10610a7357610100808354040283529160200191610a9e565b820191906000526020600020905b815481529060010190602001808311610a8157829003601f168201915b5050505050905090565b600080610ab3610da8565b90506000610ac18286610cb4565b905083811015610b06576040517f08c379a0000000000000000000000000000000000000000000000000000000008152600401610afd9061231d565b60405180910390fd5b610b138286868403610db0565b60019250505092915050565b600080610b2a610da8565b9050610b3781858561105e565b600191505092915050565b6000610b4f826001610d4f565b9050919050565b6000610b6182610c86565b841115610ba3576040517f08c379a0000000000000000000000000000000000000000000000000000000008152600401610b9a90612389565b60405180910390fd5b6000610bae856107bc565b9050610bc4610bbb610da8565b8585888561137c565b809150509392505050565b6000610bda82610ca2565b841115610c1c576040517f08c379a0000000000000000000000000000000000000000000000000000000008152600401610c13906123f5565b60405180910390fd5b6000610c27856108cc565b9050610c3d610c34610da8565b8585848961137c565b809150509392505050565b60007fffffffffffffffffffffffffffffffffffffffffffffffffffffffffffffffff9050919050565b6000610c7f826000610f79565b9050919050565b6000610c9b610c9483610957565b6000610d4f565b9050919050565b6000610cad82610957565b9050919050565b6000600160008473ffffffffffffffffffffffffffffffffffffffff1673ffffffffffffffffffffffffffffffffffffffff16815260200190815260200160002060008373ffffffffffffffffffffffffffffffffffffffff1673ffffffffffffffffffffffffffffffffffffffff16815260200190815260200160002054905092915050565b6000610d48826000610f79565b9050919050565b6000610da06001610d5e610652565b610d68919061219f565b610d706112d4565b600a610d7c9190612548565b610d846107d0565b610d8e919061219f565b8486611475909392919063ffffffff16565b905092915050565b600033905090565b600073ffffffffffffffffffffffffffffffffffffffff168373ffffffffffffffffffffffffffffffffffffffff1603610e1f576040517f08c379a0000000000000000000000000000000000000000000000000000000008152600401610e1690612605565b60405180910390fd5b600073ffffffffffffffffffffffffffffffffffffffff168273ffffffffffffffffffffffffffffffffffffffff1603610e8e576040517f08c379a0000000000000000000000000000000000000000000000000000000008152600401610e8590612697565b60405180910390fd5b80600160008573ffffffffffffffffffffffffffffffffffffffff1673ffffffffffffffffffffffffffffffffffffffff16815260200190815260200160002060008473ffffffffffffffffffffffffffffffffffffffff1673ffffffffffffffffffffffffffffffffffffffff168152602001908152602001600020819055508173ffffffffffffffffffffffffffffffffffffffff168373ffffffffffffffffffffffffffffffffffffffff167f8c5be1e5ebec7d5bd14f71427d1e84f3dd0314c0f7b2291e5b200ac8c7c3b92583604051610f6c9190611ce6565b60405180910390a3505050565b6000610fca610f866112d4565b600a610f929190612548565b610f9a6107d0565b610fa4919061219f565b6001610fae610652565b610fb8919061219f565b8486611475909392919063ffffffff16565b905092915050565b6000610fde8484610cb4565b90507fffffffffffffffffffffffffffffffffffffffffffffffffffffffffffffffff8114611058578181101561104a576040517f08c379a000000000000000000000000000000000000000000000000000000000815260040161104190612703565b60405180910390fd5b6110578484848403610db0565b5b50505050565b600073ffffffffffffffffffffffffffffffffffffffff168373ffffffffffffffffffffffffffffffffffffffff16036110cd576040517f08c379a00000000000000000000000000000000000000000000000000000000081526004016110c490612795565b60405180910390fd5b600073ffffffffffffffffffffffffffffffffffffffff168273ffffffffffffffffffffffffffffffffffffffff160361113c576040517f08c379a000000000000000000000000000000000000000000000000000000000815260040161113390612827565b60405180910390fd5b6111478383836114eb565b60008060008573ffffffffffffffffffffffffffffffffffffffff1673ffffffffffffffffffffffffffffffffffffffff168152602001908152602001600020549050818110156111cd576040517f08c379a00000000000000000000000000000000000000000000000000000000081526004016111c4906128b9565b60405180910390fd5b8181036000808673ffffffffffffffffffffffffffffffffffffffff1673ffffffffffffffffffffffffffffffffffffffff16815260200190815260200160002081905550816000808573ffffffffffffffffffffffffffffffffffffffff1673ffffffffffffffffffffffffffffffffffffffff168152602001908152602001600020600082825401925050819055508273ffffffffffffffffffffffffffffffffffffffff168473ffffffffffffffffffffffffffffffffffffffff167fddf252ad1be2c89b69c2b068fc378daa952ba7f163c4a11628f55a4df523b3ef846040516112bb9190611ce6565b60405180910390a36112ce8484846114f0565b50505050565b600090565b6113057f00000000000000000000000000000000000000000000000000000000000000008530856114f5565b61130f838261157e565b8273ffffffffffffffffffffffffffffffffffffffff168473ffffffffffffffffffffffffffffffffffffffff167fdcbc1c05240f31ff3ad067ef1ee35ce4997762752e3a095284754544f4c709d7848460405161136e9291906128d9565b60405180910390a350505050565b8273ffffffffffffffffffffffffffffffffffffffff168573ffffffffffffffffffffffffffffffffffffffff16146113bb576113ba838683610fd2565b5b6113c583826116d4565b6113f07f000000000000000000000000000000000000000000000000000000000000000085846118a1565b8273ffffffffffffffffffffffffffffffffffffffff168473ffffffffffffffffffffffffffffffffffffffff168673ffffffffffffffffffffffffffffffffffffffff167ffbde797d201c681b91056529119e0b02407c7bb96a4a2c75c01fc9667232c8db85856040516114669291906128d9565b60405180910390a45050505050565b600080611483868686611927565b90506001600281111561149957611498612902565b5b8360028111156114ac576114ab612902565b5b1480156114ca5750600084806114c5576114c4612931565b5b868809115b156114df576001816114dc919061219f565b90505b80915050949350505050565b505050565b505050565b611578846323b872dd60e01b85858560405160240161151693929190612960565b604051602081830303815290604052907bffffffffffffffffffffffffffffffffffffffffffffffffffffffff19166020820180517bffffffffffffffffffffffffffffffffffffffffffffffffffffffff8381831617835250505050611a38565b50505050565b600073ffffffffffffffffffffffffffffffffffffffff168273ffffffffffffffffffffffffffffffffffffffff16036115ed576040517f08c379a00000000000000000000000000000000000000000000000000000000081526004016115e4906129e3565b60405180910390fd5b6115f9600083836114eb565b806002600082825461160b919061219f565b92505081905550806000808473ffffffffffffffffffffffffffffffffffffffff1673ffffffffffffffffffffffffffffffffffffffff168152602001908152602001600020600082825401925050819055508173ffffffffffffffffffffffffffffffffffffffff16600073ffffffffffffffffffffffffffffffffffffffff167fddf252ad1be2c89b69c2b068fc378daa952ba7f163c4a11628f55a4df523b3ef836040516116bc9190611ce6565b60405180910390a36116d0600083836114f0565b5050565b600073ffffffffffffffffffffffffffffffffffffffff168273ffffffffffffffffffffffffffffffffffffffff1603611743576040517f08c379a000000000000000000000000000000000000000000000000000000000815260040161173a90612a75565b60405180910390fd5b61174f826000836114eb565b60008060008473ffffffffffffffffffffffffffffffffffffffff1673ffffffffffffffffffffffffffffffffffffffff168152602001908152602001600020549050818110156117d5576040517f08c379a00000000000000000000000000000000000000000000000000000000081526004016117cc90612b07565b60405180910390fd5b8181036000808573ffffffffffffffffffffffffffffffffffffffff1673ffffffffffffffffffffffffffffffffffffffff1681526020019081526020016000208190555081600260008282540392505081905550600073ffffffffffffffffffffffffffffffffffffffff168373ffffffffffffffffffffffffffffffffffffffff167fddf252ad1be2c89b69c2b068fc378daa952ba7f163c4a11628f55a4df523b3ef846040516118889190611ce6565b60405180910390a361189c836000846114f0565b505050565b6119228363a9059cbb60e01b84846040516024016118c0929190612b27565b604051602081830303815290604052907bffffffffffffffffffffffffffffffffffffffffffffffffffffffff19166020820180517bffffffffffffffffffffffffffffffffffffffffffffffffffffffff8381831617835250505050611a38565b505050565b60008060008019858709858702925082811083820303915050600081036119625783828161195857611957612931565b5b0492505050611a31565b8084116119a4576040517f08c379a000000000000000000000000000000000000000000000000000000000815260040161199b90612b9c565b60405180910390fd5b60008486880990508281118203915080830392506000600186190186169050808604955080840493506001818260000304019050808302841793506000600287600302189050808702600203810290508087026002038102905080870260020381029050808702600203810290508087026002038102905080870260020381029050808502955050505050505b9392505050565b6000611a9a826040518060400160405280602081526020017f5361666545524332303a206c6f772d6c6576656c2063616c6c206661696c65648152508573ffffffffffffffffffffffffffffffffffffffff16611b009092919063ffffffff16565b9050600081511480611abc575080806020019051810190611abb9190612be8565b5b611afb576040517f08c379a0000000000000000000000000000000000000000000000000000000008152600401611af290612c87565b60405180910390fd5b505050565b6060611b0f8484600085611b18565b90509392505050565b606082471015611b5d576040517f08c379a0000000000000000000000000000000000000000000000000000000008152600401611b5490612d19565b60405180910390fd5b6000808673ffffffffffffffffffffffffffffffffffffffff168587604051611b869190612d80565b60006040518083038185875af1925050503d8060008114611bc3576040519150601f19603f3d011682016040523d82523d6000602084013e611bc8565b606091505b5091509150611bd987838387611be5565b92505050949350505050565b60608315611c47576000835103611c3f57611bff85611c5a565b611c3e576040517f08c379a0000000000000000000000000000000000000000000000000000000008152600401611c3590612de3565b60405180910390fd5b5b829050611c52565b611c518383611c7d565b5b949350505050565b6000808273ffffffffffffffffffffffffffffffffffffffff163b119050919050565b600082511115611c905781518083602001fd5b806040517f08c379a0000000000000000000000000000000000000000000000000000000008152600401611cc49190611d91565b60405180910390fd5b6000819050919050565b611ce081611ccd565b82525050565b6000602082019050611cfb6000830184611cd7565b92915050565b600081519050919050565b600082825260208201905092915050565b60005b83811015611d3b578082015181840152602081019050611d20565b60008484015250505050565b6000601f19601f8301169050919050565b6000611d6382611d01565b611d6d8185611d0c565b9350611d7d818560208601611d1d565b611d8681611d47565b840191505092915050565b60006020820190508181036000830152611dab8184611d58565b905092915050565b600080fd5b611dc181611ccd565b8114611dcc57600080fd5b50565b600081359050611dde81611db8565b92915050565b600060208284031215611dfa57611df9611db3565b5b6000611e0884828501611dcf565b91505092915050565b600073ffffffffffffffffffffffffffffffffffffffff82169050919050565b6000611e3c82611e11565b9050919050565b611e4c81611e31565b8114611e5757600080fd5b50565b600081359050611e6981611e43565b92915050565b60008060408385031215611e8657611e85611db3565b5b6000611e9485828601611e5a565b9250506020611ea585828601611dcf565b9150509250929050565b60008115159050919050565b611ec481611eaf565b82525050565b6000602082019050611edf6000830184611ebb565b92915050565b600080600060608486031215611efe57611efd611db3565b5b6000611f0c86828701611e5a565b9350506020611f1d86828701611e5a565b9250506040611f2e86828701611dcf565b9150509250925092565b600060ff82169050919050565b611f4e81611f38565b82525050565b6000602082019050611f696000830184611f45565b92915050565b611f7881611e31565b82525050565b6000602082019050611f936000830184611f6f565b92915050565b600060208284031215611faf57611fae611db3565b5b6000611fbd84828501611e5a565b91505092915050565b60008060408385031215611fdd57611fdc611db3565b5b6000611feb85828601611dcf565b9250506020611ffc85828601611e5a565b9150509250929050565b60008060006060848603121561201f5761201e611db3565b5b600061202d86828701611dcf565b935050602061203e86828701611e5a565b925050604061204f86828701611e5a565b9150509250925092565b600080604083850312156120705761206f611db3565b5b600061207e85828601611e5a565b925050602061208f85828601611e5a565b9150509250929050565b6000815190506120a881611db8565b92915050565b6000602082840312156120c4576120c3611db3565b5b60006120d284828501612099565b91505092915050565b7f4e487b7100000000000000000000000000000000000000000000000000000000600052602260045260246000fd5b6000600282049050600182168061212257607f821691505b602082108103612135576121346120db565b5b50919050565b7f4e487b7100000000000000000000000000000000000000000000000000000000600052601160045260246000fd5b600061217582611f38565b915061218083611f38565b9250828201905060ff8111156121995761219861213b565b5b92915050565b60006121aa82611ccd565b91506121b583611ccd565b92508282019050808211156121cd576121cc61213b565b5b92915050565b7f455243343632363a206465706f736974206d6f7265207468616e206d61780000600082015250565b6000612209601e83611d0c565b9150612214826121d3565b602082019050919050565b60006020820190508181036000830152612238816121fc565b9050919050565b7f455243343632363a206d696e74206d6f7265207468616e206d61780000000000600082015250565b6000612275601b83611d0c565b91506122808261223f565b602082019050919050565b600060208201905081810360008301526122a481612268565b9050919050565b7f45524332303a2064656372656173656420616c6c6f77616e63652062656c6f7760008201527f207a65726f000000000000000000000000000000000000000000000000000000602082015250565b6000612307602583611d0c565b9150612312826122ab565b604082019050919050565b60006020820190508181036000830152612336816122fa565b9050919050565b7f455243343632363a207769746864726177206d6f7265207468616e206d617800600082015250565b6000612373601f83611d0c565b915061237e8261233d565b602082019050919050565b600060208201905081810360008301526123a281612366565b9050919050565b7f455243343632363a2072656465656d206d6f7265207468616e206d6178000000600082015250565b60006123df601d83611d0c565b91506123ea826123a9565b602082019050919050565b6000602082019050818103600083015261240e816123d2565b9050919050565b60008160011c9050919050565b6000808291508390505b600185111561246c578086048111156124485761244761213b565b5b60018516156124575780820291505b808102905061246585612415565b945061242c565b94509492505050565b6000826124855760019050612541565b816124935760009050612541565b81600181146124a957600281146124b3576124e2565b6001915050612541565b60ff8411156124c5576124c461213b565b5b8360020a9150848211156124dc576124db61213b565b5b50612541565b5060208310610133831016604e8410600b84101617156125175782820a9050838111156125125761251161213b565b5b612541565b6125248484846001612422565b9250905081840481111561253b5761253a61213b565b5b81810290505b9392505050565b600061255382611ccd565b915061255e83611f38565b925061258b7fffffffffffffffffffffffffffffffffffffffffffffffffffffffffffffffff8484612475565b905092915050565b7f45524332303a20617070726f76652066726f6d20746865207a65726f2061646460008201527f7265737300000000000000000000000000000000000000000000000000000000602082015250565b60006125ef602483611d0c565b91506125fa82612593565b604082019050919050565b6000602082019050818103600083015261261e816125e2565b9050919050565b7f45524332303a20617070726f766520746f20746865207a65726f20616464726560008201527f7373000000000000000000000000000000000000000000000000000000000000602082015250565b6000612681602283611d0c565b915061268c82612625565b604082019050919050565b600060208201905081810360008301526126b081612674565b9050919050565b7f45524332303a20696e73756666696369656e7420616c6c6f77616e6365000000600082015250565b60006126ed601d83611d0c565b91506126f8826126b7565b602082019050919050565b6000602082019050818103600083015261271c816126e0565b9050919050565b7f45524332303a207472616e736665722066726f6d20746865207a65726f20616460008201527f6472657373000000000000000000000000000000000000000000000000000000602082015250565b600061277f602583611d0c565b915061278a82612723565b604082019050919050565b600060208201905081810360008301526127ae81612772565b9050919050565b7f45524332303a207472616e7366657220746f20746865207a65726f206164647260008201527f6573730000000000000000000000000000000000000000000000000000000000602082015250565b6000612811602383611d0c565b915061281c826127b5565b604082019050919050565b6000602082019050818103600083015261284081612804565b9050919050565b7f45524332303a207472616e7366657220616d6f756e742065786365656473206260008201527f616c616e63650000000000000000000000000000000000000000000000000000602082015250565b60006128a3602683611d0c565b91506128ae82612847565b604082019050919050565b600060208201905081810360008301526128d281612896565b9050919050565b60006040820190506128ee6000830185611cd7565b6128fb6020830184611cd7565b9392505050565b7f4e487b7100000000000000000000000000000000000000000000000000000000600052602160045260246000fd5b7f4e487b7100000000000000000000000000000000000000000000000000000000600052601260045260246000fd5b60006060820190506129756000830186611f6f565b6129826020830185611f6f565b61298f6040830184611cd7565b949350505050565b7f45524332303a206d696e7420746f20746865207a65726f206164647265737300600082015250565b60006129cd601f83611d0c565b91506129d882612997565b602082019050919050565b600060208201905081810360008301526129fc816129c0565b9050919050565b7f45524332303a206275726e2066726f6d20746865207a65726f2061646472657360008201527f7300000000000000000000000000000000000000000000000000000000000000602082015250565b6000612a5f602183611d0c565b9150612a6a82612a03565b604082019050919050565b60006020820190508181036000830152612a8e81612a52565b9050919050565b7f45524332303a206275726e20616d6f756e7420657863656564732062616c616e60008201527f6365000000000000000000000000000000000000000000000000000000000000602082015250565b6000612af1602283611d0c565b9150612afc82612a95565b604082019050919050565b60006020820190508181036000830152612b2081612ae4565b9050919050565b6000604082019050612b3c6000830185611f6f565b612b496020830184611cd7565b9392505050565b7f4d6174683a206d756c446976206f766572666c6f770000000000000000000000600082015250565b6000612b86601583611d0c565b9150612b9182612b50565b602082019050919050565b60006020820190508181036000830152612bb581612b79565b9050919050565b612bc581611eaf565b8114612bd057600080fd5b50565b600081519050612be281612bbc565b92915050565b600060208284031215612bfe57612bfd611db3565b5b6000612c0c84828501612bd3565b91505092915050565b7f5361666545524332303a204552433230206f7065726174696f6e20646964206e60008201527f6f74207375636365656400000000000000000000000000000000000000000000602082015250565b6000612c71602a83611d0c565b9150612c7c82612c15565b604082019050919050565b60006020820190508181036000830152612ca081612c64565b9050919050565b7f416464726573733a20696e73756666696369656e742062616c616e636520666f60008201527f722063616c6c0000000000000000000000000000000000000000000000000000602082015250565b6000612d03602683611d0c565b9150612d0e82612ca7565b604082019050919050565b60006020820190508181036000830152612d3281612cf6565b9050919050565b600081519050919050565b600081905092915050565b6000612d5a82612d39565b612d648185612d44565b9350612d74818560208601611d1d565b80840191505092915050565b6000612d8c8284612d4f565b915081905092915050565b7f416464726573733a2063616c6c20746f206e6f6e2d636f6e7472616374000000600082015250565b6000612dcd601d83611d0c565b9150612dd882612d97565b602082019050919050565b60006020820190508181036000830152612dfc81612dc0565b905091905056fea264697066735822122091a63420471323fb581a743e2005e59554a3dc8201f256864e8babfdbc5f812c64736f6c63430008140033",
  "devdoc": {
    "events": {
      "Approval(address,address,uint256)": {
        "details": "Emitted when the allowance of a `spender` for an `owner` is set by a call to {approve}. `value` is the new allowance."
      },
      "Transfer(address,address,uint256)": {
        "details": "Emitted when `value` tokens are moved from one account (`from`) to another (`to`). Note that `value` may be zero."
      }
    },
    "kind": "dev",
    "methods": {
      "allowance(address,address)": {
        "details": "See {IERC20-allowance}."
      },
      "approve(address,uint256)": {
        "details": "See {IERC20-approve}. NOTE: If `amount` is the maximum `uint256`, the allowance is not updated on `transferFrom`. This is semantically equivalent to an infinite approval. Requirements: - `spender` cannot be the zero address."
      },
      "asset()": {
        "details": "See {IERC4626-asset}. "
      },
      "balanceOf(address)": {
        "details": "See {IERC20-balanceOf}."
      },
      "convertToAssets(uint256)": {
        "details": "See {IERC4626-convertToAssets}. "
      },
      "convertToShares(uint256)": {
        "details": "See {IERC4626-convertToShares}. "
      },
      "decimals()": {
        "details": "Decimals are computed by adding the decimal offset on top of the underlying asset's decimals. This \"original\" value is cached during construction of the vault contract. If this read operation fails (e.g., the asset has not been created yet), a default of 18 is used to represent the underlying asset's decimals. See {IERC20Metadata-decimals}."
      },
      "decreaseAllowance(address,uint256)": {
        "details": "Atomically decreases the allowance granted to `spender` by the caller. This is an alternative to {approve} that can be used as a mitigation for problems described in {IERC20-approve}. Emits an {Approval} event indicating the updated allowance. Requirements: - `spender` cannot be the zero address. - `spender` must have allowance for the caller of at least `subtractedValue`."
      },
      "deposit(uint256,address)": {
        "details": "See {IERC4626-deposit}. "
      },
      "increaseAllowance(address,uint256)": {
        "details": "Atomically increases the allowance granted to `spender` by the caller. This is an alternative to {approve} that can be used as a mitigation for problems described in {IERC20-approve}. Emits an {Approval} event indicating the updated allowance. Requirements: - `spender` cannot be the zero address."
      },
      "maxDeposit(address)": {
        "details": "See {IERC4626-maxDeposit}. "
      },
      "maxMint(address)": {
        "details": "See {IERC4626-maxMint}. "
      },
      "maxRedeem(address)": {
        "details": "See {IERC4626-maxRedeem}. "
      },
      "maxWithdraw(address)": {
        "details": "See {IERC4626-maxWithdraw}. "
      },
      "mint(uint256,address)": {
        "details": "See {IERC4626-mint}. As opposed to {deposit}, minting is allowed even if the vault is in a state where the price of a share is zero. In this case, the shares will be minted without requiring any assets to be deposited."
      },
      "name()": {
        "details": "Returns the name of the token."
      },
      "previewDeposit(uint256)": {
        "details": "See {IERC4626-previewDeposit}. "
      },
      "previewMint(uint256)": {
        "details": "See {IERC4626-previewMint}. "
      },
      "previewRedeem(uint256)": {
        "details": "See {IERC4626-previewRedeem}. "
      },
      "previewWithdraw(uint256)": {
        "details": "See {IERC4626-previewWithdraw}. "
      },
      "redeem(uint256,address,address)": {
        "details": "See {IERC4626-redeem}. "
      },
      "symbol()": {
        "details": "Returns the symbol of the token, usually a shorter version of the name."
      },
      "totalAssets()": {
        "details": "See {IERC4626-totalAssets}. "
      },
      "totalSupply()": {
        "details": "See {IERC20-totalSupply}."
      },
      "transfer(address,uint256)": {
        "details": "See {IERC20-transfer}. Requirements: - `to` cannot be the zero address. - the caller must have a balance of at least `amount`."
      },
      "transferFrom(address,address,uint256)": {
        "details": "See {IERC20-transferFrom}. Emits an {Approval} event indicating the updated allowance. This is not required by the EIP. See the note at the beginning of {ERC20}. NOTE: Does not update the allowance if the current allowance is the maximum `uint256`. Requirements: - `from` and `to` cannot be the zero address. - `from` must have a balance of at least `amount`. - the caller must have allowance for ``from``'s tokens of at least `amount`."
      },
      "withdraw(uint256,address,address)": {
        "details": "See {IERC4626-withdraw}. "
      }
    },
    "version": 1
  },
  "userdoc": {
    "kind": "user",
    "methods": {},
    "version": 1
  },
  "storageLayout": {
    "storage": [
      {
        "astId": 183,
        "contract": "src/Vault.sol:Vault",
        "label": "_balances",
        "offset": 0,
        "slot": "0",
        "type": "t_mapping(t_address,t_uint256)"
      },
      {
        "astId": 189,
        "contract": "src/Vault.sol:Vault",
        "label": "_allowances",
        "offset": 0,
        "slot": "1",
        "type": "t_mapping(t_address,t_mapping(t_address,t_uint256))"
      },
      {
        "astId": 191,
        "contract": "src/Vault.sol:Vault",
        "label": "_totalSupply",
        "offset": 0,
        "slot": "2",
        "type": "t_uint256"
      },
      {
        "astId": 193,
        "contract": "src/Vault.sol:Vault",
        "label": "_name",
        "offset": 0,
        "slot": "3",
        "type": "t_string_storage"
      },
      {
        "astId": 195,
        "contract": "src/Vault.sol:Vault",
        "label": "_symbol",
        "offset": 0,
        "slot": "4",
        "type": "t_string_storage"
      }
    ],
    "types": {
      "t_address": {
        "encoding": "inplace",
        "label": "address",
        "numberOfBytes": "20"
      },
      "t_mapping(t_address,t_mapping(t_address,t_uint256))": {
        "encoding": "mapping",
        "key": "t_address",
        "label": "mapping(address => mapping(address => uint256))",
        "numberOfBytes": "32",
        "value": "t_mapping(t_address,t_uint256)"
      },
      "t_mapping(t_address,t_uint256)": {
        "encoding": "mapping",
        "key": "t_address",
        "label": "mapping(address => uint256)",
        "numberOfBytes": "32",
        "value": "t_uint256"
      },
      "t_string_storage": {
        "encoding": "bytes",
        "label": "string",
        "numberOfBytes": "32"
      },
      "t_uint256": {
        "encoding": "inplace",
        "label": "uint256",
        "numberOfBytes": "32"
      }
    }
  }
}