{"abi":[{"type":"constructor","inputs":[],"stateMutability":"nonpayable"},{"type":"receive","stateMutability":"payable"},{"type":"function","name":"allowanceSpend","inputs":[{"name":"_asset","type":"address","internalType":"address"},{"name":"_amount","type":"uint256","internalType":"uint256"}],"outputs":[],"stateMutability":"nonpayable"},{"type":"function","name":"owner","inputs":[],"outputs":[{"name":"","type":"address","internalType":"address"}],"stateMutability":"view"},{"type":"function","name":"renounceOwnership","inputs":[],"outputs":[],"stateMutability":"nonpayable"},{"type":"function","name":"transferOwnership","inputs":[{"name":"newOwner","type":"address","internalType":"address"}],"outputs":[],"stateMutability":"nonpayable"},{"type":"function","name":"withdraw","inputs":[],"outputs":[],"stateMutability":"nonpayable"},{"type":"event","name":"OwnershipTransferred","inputs":[{"name":"previousOwner","type":"address","indexed":true,"internalType":"address"},{"name":"newOwner","type":"address","indexed":true,"internalType":"address"}],"anonymous":false}],"bytecode":{"object":"0x608060405234801561001057600080fd5b5061001a3361001f565b61006f565b600080546001600160a01b038381166001600160a01b0319831681178455604051919092169283917f8be0079c531659141344cd1fd0a4f28419497f9722a3daafe3b4186f6b6457e09190a35050565b6104608061007e6000396000f3fe60806040526004361061004e5760003560e01c80631625c7e31461005a5780633ccfd60b1461007c578063715018a6146100915780638da5cb5b146100a6578063f2fde38b146100d257600080fd5b3661005557005b600080fd5b34801561006657600080fd5b5061007a6100753660046103bc565b6100f2565b005b34801561008857600080fd5b5061007a6101f2565b34801561009d57600080fd5b5061007a61026c565b3480156100b257600080fd5b50600054604080516001600160a01b039092168252519081900360200190f35b3480156100de57600080fd5b5061007a6100ed3660046103e6565b610280565b6000546001600160a01b0316331461015b5760405162461bcd60e51b815260206004820152602160248201527f6f6e6c79206f776e65722063616e2063616c6c20746869732066756e6374696f6044820152603760f91b60648201526084015b60405180910390fd5b816001600160a01b031663a9059cbb61017c6000546001600160a01b031690565b6040516001600160e01b031960e084901b1681526001600160a01b039091166004820152602481018490526044016020604051808303816000875af11580156101c9573d6000803e3d6000fd5b505050506040513d601f19601f820116820180604052508101906101ed9190610408565b505050565b6000546001600160a01b0316331461020957600080fd5b600080546040516001600160a01b039091169047908381818185875af1925050503d8060008114610256576040519150601f19603f3d011682016040523d82523d6000602084013e61025b565b606091505b505090508061026957600080fd5b50565b6102746102f6565b61027e6000610350565b565b6102886102f6565b6001600160a01b0381166102ed5760405162461bcd60e51b815260206004820152602660248201527f4f776e61626c653a206e6577206f776e657220697320746865207a65726f206160448201526564647265737360d01b6064820152608401610152565b61026981610350565b6000546001600160a01b0316331461027e5760405162461bcd60e51b815260206004820181905260248201527f4f776e61626c653a2063616c6c6572206973206e6f7420746865206f776e65726044820152606401610152565b600080546001600160a01b038381166001600160a01b0319831681178455604051919092169283917f8be0079c531659141344cd1fd0a4f28419497f9722a3daafe3b4186f6b6457e09190a35050565b80356001600160a01b03811681146103b757600080fd5b919050565b600080604083850312156103cf57600080fd5b6103d8836103a0565b946020939093013593505050565b6000602082840312156103f857600080fd5b610401826103a0565b9392505050565b60006020828403121561041a57600080fd5b8151801515811461040157600080fdfea2646970667358221220721fb72cad0182bd28f1da17897f46a116bc2a5fef5a3eb7e19f28001690aabd64736f6c63430008150033","linkReferences":{}},"methodIdentifiers":{"allowanceSpend(address,uint256)":"1625c7e3","owner()":"8da5cb5b","renounceOwnership()":"715018a6","transferOwnership(address)":"f2fde38b","withdraw()":"3ccfd60b"},"id":37}