{"abi":[{"type":"constructor","inputs":[{"name":"_asset","type":"address","internalType":"contract IERC20Metadata"},{"name":"_basisPoints","type":"uint256","internalType":"uint256"},{"name":"_treasury","type":"address","internalType":"address"}],"stateMutability":"nonpayable"},{"type":"function","name":"allowance","inputs":[{"name":"owner","type":"address","internalType":"address"},{"name":"spender","type":"address","internalType":"address"}],"outputs":[{"name":"","type":"uint256","internalType":"uint256"}],"stateMutability":"view"},{"type":"function","name":"approve","inputs":[{"name":"spender","type":"address","internalType":"address"},{"name":"amount","type":"uint256","internalType":"uint256"}],"outputs":[{"name":"","type":"bool","internalType":"bool"}],"stateMutability":"nonpayable"},{"type":"function","name":"asset","inputs":[],"outputs":[{"name":"","type":"address","internalType":"address"}],"stateMutability":"view"},{"type":"function","name":"balanceOf","inputs":[{"name":"account","type":"address","internalType":"address"}],"outputs":[{"name":"","type":"uint256","internalType":"uint256"}],"stateMutability":"view"},{"type":"function","name":"convertToAssets","inputs":[{"name":"shares","type":"uint256","internalType":"uint256"}],"outputs":[{"name":"","type":"uint256","internalType":"uint256"}],"stateMutability":"view"},{"type":"function","name":"convertToShares","inputs":[{"name":"assets","type":"uint256","internalType":"uint256"}],"outputs":[{"name":"","type":"uint256","internalType":"uint256"}],"stateMutability":"view"},{"type":"function","name":"decimals","inputs":[],"outputs":[{"name":"","type":"uint8","internalType":"uint8"}],"stateMutability":"view"},{"type":"function","name":"decreaseAllowance","inputs":[{"name":"spender","type":"address","internalType":"address"},{"name":"subtractedValue","type":"uint256","internalType":"uint256"}],"outputs":[{"name":"","type":"bool","internalType":"bool"}],"stateMutability":"nonpayable"},{"type":"function","name":"deposit","inputs":[{"name":"assets","type":"uint256","internalType":"uint256"},{"name":"receiver","type":"address","internalType":"address"}],"outputs":[{"name":"","type":"uint256","internalType":"uint256"}],"stateMutability":"nonpayable"},{"type":"function","name":"entryFeeBasisPoints","inputs":[],"outputs":[{"name":"","type":"uint256","internalType":"uint256"}],"stateMutability":"view"},{"type":"function","name":"increaseAllowance","inputs":[{"name":"spender","type":"address","internalType":"address"},{"name":"addedValue","type":"uint256","internalType":"uint256"}],"outputs":[{"name":"","type":"bool","internalType":"bool"}],"stateMutability":"nonpayable"},{"type":"function","name":"maxDeposit","inputs":[{"name":"","type":"address","internalType":"address"}],"outputs":[{"name":"","type":"uint256","internalType":"uint256"}],"stateMutability":"view"},{"type":"function","name":"maxMint","inputs":[{"name":"","type":"address","internalType":"address"}],"outputs":[{"name":"","type":"uint256","internalType":"uint256"}],"stateMutability":"view"},{"type":"function","name":"maxRedeem","inputs":[{"name":"owner","type":"address","internalType":"address"}],"outputs":[{"name":"","type":"uint256","internalType":"uint256"}],"stateMutability":"view"},{"type":"function","name":"maxWithdraw","inputs":[{"name":"owner","type":"address","internalType":"address"}],"outputs":[{"name":"","type":"uint256","internalType":"uint256"}],"stateMutability":"view"},{"type":"function","name":"mint","inputs":[{"name":"shares","type":"uint256","internalType":"uint256"},{"name":"receiver","type":"address","internalType":"address"}],"outputs":[{"name":"","type":"uint256","internalType":"uint256"}],"stateMutability":"nonpayable"},{"type":"function","name":"name","inputs":[],"outputs":[{"name":"","type":"string","internalType":"string"}],"stateMutability":"view"},{"type":"function","name":"owner","inputs":[],"outputs":[{"name":"","type":"address","internalType":"address"}],"stateMutability":"view"},{"type":"function","name":"previewDeposit","inputs":[{"name":"assets","type":"uint256","internalType":"uint256"}],"outputs":[{"name":"","type":"uint256","internalType":"uint256"}],"stateMutability":"view"},{"type":"function","name":"previewMint","inputs":[{"name":"shares","type":"uint256","internalType":"uint256"}],"outputs":[{"name":"","type":"uint256","internalType":"uint256"}],"stateMutability":"view"},{"type":"function","name":"previewRedeem","inputs":[{"name":"shares","type":"uint256","internalType":"uint256"}],"outputs":[{"name":"","type":"uint256","internalType":"uint256"}],"stateMutability":"view"},{"type":"function","name":"previewWithdraw","inputs":[{"name":"assets","type":"uint256","internalType":"uint256"}],"outputs":[{"name":"","type":"uint256","internalType":"uint256"}],"stateMutability":"view"},{"type":"function","name":"redeem","inputs":[{"name":"shares","type":"uint256","internalType":"uint256"},{"name":"receiver","type":"address","internalType":"address"},{"name":"owner","type":"address","internalType":"address"}],"outputs":[{"name":"","type":"uint256","internalType":"uint256"}],"stateMutability":"nonpayable"},{"type":"function","name":"symbol","inputs":[],"outputs":[{"name":"","type":"string","internalType":"string"}],"stateMutability":"view"},{"type":"function","name":"totalAssets","inputs":[],"outputs":[{"name":"","type":"uint256","internalType":"uint256"}],"stateMutability":"view"},{"type":"function","name":"totalSupply","inputs":[],"outputs":[{"name":"","type":"uint256","internalType":"uint256"}],"stateMutability":"view"},{"type":"function","name":"transfer","inputs":[{"name":"to","type":"address","internalType":"address"},{"name":"amount","type":"uint256","internalType":"uint256"}],"outputs":[{"name":"","type":"bool","internalType":"bool"}],"stateMutability":"nonpayable"},{"type":"function","name":"transferFrom","inputs":[{"name":"from","type":"address","internalType":"address"},{"name":"to","type":"address","internalType":"address"},{"name":"amount","type":"uint256","internalType":"uint256"}],"outputs":[{"name":"","type":"bool","internalType":"bool"}],"stateMutability":"nonpayable"},{"type":"function","name":"withdraw","inputs":[{"name":"assets","type":"uint256","internalType":"uint256"},{"name":"receiver","type":"address","internalType":"address"},{"name":"owner","type":"address","internalType":"address"}],"outputs":[{"name":"","type":"uint256","internalType":"uint256"}],"stateMutability":"nonpayable"},{"type":"event","name":"Approval","inputs":[{"name":"owner","type":"address","indexed":true,"internalType":"address"},{"name":"spender","type":"address","indexed":true,"internalType":"address"},{"name":"value","type":"uint256","indexed":false,"internalType":"uint256"}],"anonymous":false},{"type":"event","name":"Deposit","inputs":[{"name":"sender","type":"address","indexed":true,"internalType":"address"},{"name":"owner","type":"address","indexed":true,"internalType":"address"},{"name":"assets","type":"uint256","indexed":false,"internalType":"uint256"},{"name":"shares","type":"uint256","indexed":false,"internalType":"uint256"}],"anonymous":false},{"type":"event","name":"Transfer","inputs":[{"name":"from","type":"address","indexed":true,"internalType":"address"},{"name":"to","type":"address","indexed":true,"internalType":"address"},{"name":"value","type":"uint256","indexed":false,"internalType":"uint256"}],"anonymous":false},{"type":"event","name":"Withdraw","inputs":[{"name":"sender","type":"address","indexed":true,"internalType":"address"},{"name":"receiver","type":"address","indexed":true,"internalType":"address"},{"name":"owner","type":"address","indexed":true,"internalType":"address"},{"name":"assets","type":"uint256","indexed":false,"internalType":"uint256"},{"name":"shares","type":"uint256","indexed":false,"internalType":"uint256"}],"anonymous":false}],"bytecode":{"object":"0x60c06040523480156200001157600080fd5b5060405162001d0538038062001d058339810160408190526200003491620001f6565b826040518060400160405280600b81526020016a2b30bab63a102a37b5b2b760a91b8152506040518060400160405280600381526020016215931560ea1b8152508160039081620000869190620002e3565b506004620000958282620002e3565b505050600080620000ac83620000f860201b60201c565b9150915081620000be576012620000c0565b805b60ff1660a05250506001600160a01b03908116608052600580546001600160a01b0319169290911691909117905560065550620003fa565b60408051600481526024810182526020810180516001600160e01b031663313ce56760e01b17905290516000918291829182916001600160a01b038716916200014191620003af565b600060405180830381855afa9150503d80600081146200017e576040519150601f19603f3d011682016040523d82523d6000602084013e62000183565b606091505b50915091508180156200019857506020815110155b15620001d057600081806020019051810190620001b69190620003e0565b905060ff8111620001ce576001969095509350505050565b505b5060009485945092505050565b6001600160a01b0381168114620001f357600080fd5b50565b6000806000606084860312156200020c57600080fd5b83516200021981620001dd565b6020850151604086015191945092506200023381620001dd565b809150509250925092565b634e487b7160e01b600052604160045260246000fd5b600181811c908216806200026957607f821691505b6020821081036200028a57634e487b7160e01b600052602260045260246000fd5b50919050565b601f821115620002de57600081815260208120601f850160051c81016020861015620002b95750805b601f850160051c820191505b81811015620002da57828155600101620002c5565b5050505b505050565b81516001600160401b03811115620002ff57620002ff6200023e565b620003178162000310845462000254565b8462000290565b602080601f8311600181146200034f5760008415620003365750858301515b600019600386901b1c1916600185901b178555620002da565b600085815260208120601f198616915b8281101562000380578886015182559484019460019091019084016200035f565b50858210156200039f5787850151600019600388901b60f8161c191681555b5050505050600190811b01905550565b6000825160005b81811015620003d25760208186018101518583015201620003b6565b506000920191825250919050565b600060208284031215620003f357600080fd5b5051919050565b60805160a0516118c26200044360003960006105d10152600081816102840152818161044001528181610cd601528181610d6901528181610e2d0152610f5001526118c26000f3fe608060405234801561001057600080fd5b50600436106101cf5760003560e01c80638da5cb5b11610104578063ba087652116100a2578063ce96cb7711610071578063ce96cb77146103dc578063d905777e146103ef578063dd62ed3e14610402578063ef8b30f71461041557600080fd5b8063ba087652146103ad578063ba0af7a9146103c0578063c63d75b6146102cf578063c6e6f592146103c957600080fd5b8063a457c2d7116100de578063a457c2d714610361578063a9059cbb14610374578063b3d7f6b914610387578063b460af941461039a57600080fd5b80638da5cb5b1461033357806394bf804d1461034657806395d89b411461035957600080fd5b8063313ce56711610171578063402d267d1161014b578063402d267d146102cf5780634cdad506146102e45780636e553f65146102f757806370a082311461030a57600080fd5b8063313ce5671461026857806338d52e0f1461028257806339509351146102bc57600080fd5b8063095ea7b3116101ad578063095ea7b3146102175780630a28a4771461023a57806318160ddd1461024d57806323b872dd1461025557600080fd5b806301e1d114146101d457806306fdde03146101ef57806307a2d13a14610204575b600080fd5b6101dc610428565b6040519081526020015b60405180910390f35b6101f76104b8565b6040516101e6919061150c565b6101dc61021236600461153f565b61054a565b61022a610225366004611574565b61055d565b60405190151581526020016101e6565b6101dc61024836600461153f565b610575565b6002546101dc565b61022a61026336600461159e565b6105a5565b6102706105c9565b60405160ff90911681526020016101e6565b7f00000000000000000000000000000000000000000000000000000000000000005b6040516001600160a01b0390911681526020016101e6565b61022a6102ca366004611574565b6105f5565b6101dc6102dd3660046115da565b5060001990565b6101dc6102f236600461153f565b610617565b6101dc6103053660046115f5565b610641565b6101dc6103183660046115da565b6001600160a01b031660009081526020819052604090205490565b6005546102a4906001600160a01b031681565b6101dc6103543660046115f5565b61066a565b6101f7610684565b61022a61036f366004611574565b610693565b61022a610382366004611574565b61070e565b6101dc61039536600461153f565b61071c565b6101dc6103a8366004611621565b610741565b6101dc6103bb366004611621565b6107bd565b6101dc60065481565b6101dc6103d736600461153f565b610831565b6101dc6103ea3660046115da565b61083e565b6101dc6103fd3660046115da565b610862565b6101dc61041036600461165d565b610880565b6101dc61042336600461153f565b6108ab565b6040516370a0823160e01b81523060048201526000907f00000000000000000000000000000000000000000000000000000000000000006001600160a01b0316906370a0823190602401602060405180830381865afa15801561048f573d6000803e3d6000fd5b505050506040513d601f19601f820116820180604052508101906104b39190611687565b905090565b6060600380546104c7906116a0565b80601f01602080910402602001604051908101604052809291908181526020018280546104f3906116a0565b80156105405780601f1061051557610100808354040283529160200191610540565b820191906000526020600020905b81548152906001019060200180831161052357829003601f168201915b5050505050905090565b60006105578260006108ca565b92915050565b60003361056b818585610904565b5060019392505050565b60008061058a8361058560065490565b610a28565b905061059e61059982856116f0565b610a39565b9392505050565b6000336105b3858285610a46565b6105be858585610ac0565b506001949350505050565b60006104b3817f0000000000000000000000000000000000000000000000000000000000000000611703565b60003361056b8185856106088383610880565b61061291906116f0565b610904565b6000806106238361054a565b90506106378161063260065490565b610c64565b61059e908261171c565b6000610651565b60405180910390fd5b600061065c846108ab565b905061059e33848684610c80565b6000806106768461071c565b905061059e33848387610c80565b6060600480546104c7906116a0565b600033816106a18286610880565b9050838110156107015760405162461bcd60e51b815260206004820152602560248201527f45524332303a2064656372656173656420616c6c6f77616e63652062656c6f77604482015264207a65726f60d81b6064820152608401610648565b6105be8286868403610904565b60003361056b818585610ac0565b60008061072883610d05565b90506107378161058560065490565b61059e90826116f0565b600061074c8261083e565b84111561079b5760405162461bcd60e51b815260206004820152601f60248201527f455243343632363a207769746864726177206d6f7265207468616e206d6178006044820152606401610648565b60006107a685610575565b90506107b53385858885610d12565b949350505050565b60006107c882610862565b8411156108175760405162461bcd60e51b815260206004820152601d60248201527f455243343632363a2072656465656d206d6f7265207468616e206d61780000006044820152606401610648565b600061082285610617565b90506107b53385858489610d12565b6000610557826000610d96565b6001600160a01b0381166000908152602081905260408120546105579060006108ca565b6001600160a01b038116600090815260208190526040812054610557565b6001600160a01b03918216600090815260016020908152604080832093909416825291909152205490565b6000806108bb8361063260065490565b905061059e6103d7828561171c565b600061059e6108d7610428565b6108e29060016116f0565b6108ee6000600a611813565b6002546108fb91906116f0565b85919085610dc6565b6001600160a01b0383166109665760405162461bcd60e51b8152602060048201526024808201527f45524332303a20617070726f76652066726f6d20746865207a65726f206164646044820152637265737360e01b6064820152608401610648565b6001600160a01b0382166109c75760405162461bcd60e51b815260206004820152602260248201527f45524332303a20617070726f766520746f20746865207a65726f206164647265604482015261737360f01b6064820152608401610648565b6001600160a01b0383811660008181526001602090815260408083209487168084529482529182902085905590518481527f8c5be1e5ebec7d5bd14f71427d1e84f3dd0314c0f7b2291e5b200ac8c7c3b925910160405180910390a3505050565b600061059e83836127106001610dc6565b6000610557826001610d96565b6000610a528484610880565b90506000198114610aba5781811015610aad5760405162461bcd60e51b815260206004820152601d60248201527f45524332303a20696e73756666696369656e7420616c6c6f77616e63650000006044820152606401610648565b610aba8484848403610904565b50505050565b6001600160a01b038316610b245760405162461bcd60e51b815260206004820152602560248201527f45524332303a207472616e736665722066726f6d20746865207a65726f206164604482015264647265737360d81b6064820152608401610648565b6001600160a01b038216610b865760405162461bcd60e51b815260206004820152602360248201527f45524332303a207472616e7366657220746f20746865207a65726f206164647260448201526265737360e81b6064820152608401610648565b6001600160a01b03831660009081526020819052604090205481811015610bfe5760405162461bcd60e51b815260206004820152602660248201527f45524332303a207472616e7366657220616d6f756e7420657863656564732062604482015265616c616e636560d01b6064820152608401610648565b6001600160a01b03848116600081815260208181526040808320878703905593871680835291849020805487019055925185815290927fddf252ad1be2c89b69c2b068fc378daa952ba7f163c4a11628f55a4df523b3ef910160405180910390a3610aba565b600061059e82610c76612710826116f0565b8591906001610dc6565b6000610c8f8361063260065490565b90506000610ca56005546001600160a01b031690565b9050610cb386868686610e28565b600082118015610ccc57506001600160a01b0381163014155b15610cfd57610cfd7f00000000000000000000000000000000000000000000000000000000000000005b8284610eba565b505050505050565b60006105578260016108ca565b6000610d218361058560065490565b90506000610d376005546001600160a01b031690565b9050610d468787878787610f1d565b600082118015610d5f57506001600160a01b0381163014155b15610d8d57610d8d7f0000000000000000000000000000000000000000000000000000000000000000610cf6565b50505050505050565b600061059e610da682600a611813565b600254610db391906116f0565b610dbb610428565b6108fb9060016116f0565b600080610dd4868686610fdd565b90506001836002811115610dea57610dea611822565b148015610e07575060008480610e0257610e02611838565b868809115b15610e1a57610e176001826116f0565b90505b95945050505050565b505050565b610e547f00000000000000000000000000000000000000000000000000000000000000008530856110c7565b610e5e83826110ff565b826001600160a01b0316846001600160a01b03167fdcbc1c05240f31ff3ad067ef1ee35ce4997762752e3a095284754544f4c709d78484604051610eac929190918252602082015260400190565b60405180910390a350505050565b6040516001600160a01b038316602482015260448101829052610e2390849063a9059cbb60e01b906064015b60408051601f198184030181529190526020810180516001600160e01b03166001600160e01b0319909316929092179091526111be565b826001600160a01b0316856001600160a01b031614610f4157610f41838683610a46565b610f4b8382611293565b610f767f00000000000000000000000000000000000000000000000000000000000000008584610eba565b826001600160a01b0316846001600160a01b0316866001600160a01b03167ffbde797d201c681b91056529119e0b02407c7bb96a4a2c75c01fc9667232c8db8585604051610fce929190918252602082015260400190565b60405180910390a45050505050565b60008080600019858709858702925082811083820303915050806000036110175783828161100d5761100d611838565b049250505061059e565b80841161105e5760405162461bcd60e51b81526020600482015260156024820152744d6174683a206d756c446976206f766572666c6f7760581b6044820152606401610648565b60008486880960026001871981018816978890046003810283188082028403028082028403028082028403028082028403028082028403029081029092039091026000889003889004909101858311909403939093029303949094049190911702949350505050565b6040516001600160a01b0380851660248301528316604482015260648101829052610aba9085906323b872dd60e01b90608401610ee6565b6001600160a01b0382166111555760405162461bcd60e51b815260206004820152601f60248201527f45524332303a206d696e7420746f20746865207a65726f2061646472657373006044820152606401610648565b806002600082825461116791906116f0565b90915550506001600160a01b038216600081815260208181526040808320805486019055518481527fddf252ad1be2c89b69c2b068fc378daa952ba7f163c4a11628f55a4df523b3ef910160405180910390a35050565b6000611213826040518060400160405280602081526020017f5361666545524332303a206c6f772d6c6576656c2063616c6c206661696c6564815250856001600160a01b03166113c59092919063ffffffff16565b9050805160001480611234575080806020019051810190611234919061184e565b610e235760405162461bcd60e51b815260206004820152602a60248201527f5361666545524332303a204552433230206f7065726174696f6e20646964206e6044820152691bdd081cdd58d8d9595960b21b6064820152608401610648565b6001600160a01b0382166112f35760405162461bcd60e51b815260206004820152602160248201527f45524332303a206275726e2066726f6d20746865207a65726f206164647265736044820152607360f81b6064820152608401610648565b6001600160a01b038216600090815260208190526040902054818110156113675760405162461bcd60e51b815260206004820152602260248201527f45524332303a206275726e20616d6f756e7420657863656564732062616c616e604482015261636560f01b6064820152608401610648565b6001600160a01b0383166000818152602081815260408083208686039055600280548790039055518581529192917fddf252ad1be2c89b69c2b068fc378daa952ba7f163c4a11628f55a4df523b3ef910160405180910390a3505050565b60606107b5848460008585600080866001600160a01b031685876040516113ec9190611870565b60006040518083038185875af1925050503d8060008114611429576040519150601f19603f3d011682016040523d82523d6000602084013e61142e565b606091505b509150915061143f8783838761144a565b979650505050505050565b606083156114b95782516000036114b2576001600160a01b0385163b6114b25760405162461bcd60e51b815260206004820152601d60248201527f416464726573733a2063616c6c20746f206e6f6e2d636f6e74726163740000006044820152606401610648565b50816107b5565b6107b583838151156114ce5781518083602001fd5b8060405162461bcd60e51b8152600401610648919061150c565b60005b838110156115035781810151838201526020016114eb565b50506000910152565b602081526000825180602084015261152b8160408501602087016114e8565b601f01601f19169190910160400192915050565b60006020828403121561155157600080fd5b5035919050565b80356001600160a01b038116811461156f57600080fd5b919050565b6000806040838503121561158757600080fd5b61159083611558565b946020939093013593505050565b6000806000606084860312156115b357600080fd5b6115bc84611558565b92506115ca60208501611558565b9150604084013590509250925092565b6000602082840312156115ec57600080fd5b61059e82611558565b6000806040838503121561160857600080fd5b8235915061161860208401611558565b90509250929050565b60008060006060848603121561163657600080fd5b8335925061164660208501611558565b915061165460408501611558565b90509250925092565b6000806040838503121561167057600080fd5b61167983611558565b915061161860208401611558565b60006020828403121561169957600080fd5b5051919050565b600181811c908216806116b457607f821691505b6020821081036116d457634e487b7160e01b600052602260045260246000fd5b50919050565b634e487b7160e01b600052601160045260246000fd5b80820180821115610557576105576116da565b60ff8181168382160190811115610557576105576116da565b81810381811115610557576105576116da565b600181815b8085111561176a578160001904821115611750576117506116da565b8085161561175d57918102915b93841c9390800290611734565b509250929050565b60008261178157506001610557565b8161178e57506000610557565b81600181146117a457600281146117ae576117ca565b6001915050610557565b60ff8411156117bf576117bf6116da565b50506001821b610557565b5060208310610133831016604e8410600b84101617156117ed575081810a610557565b6117f7838361172f565b806000190482111561180b5761180b6116da565b029392505050565b600061059e60ff841683611772565b634e487b7160e01b600052602160045260246000fd5b634e487b7160e01b600052601260045260246000fd5b60006020828403121561186057600080fd5b8151801515811461059e57600080fd5b600082516118828184602087016114e8565b919091019291505056fea2646970667358221220cceda970a6509b805b86d930e5604dafdacd431d37848d1c092b6635de2cd6f064736f6c63430008150033","linkReferences":{}},"methodIdentifiers":{"allowance(address,address)":"dd62ed3e","approve(address,uint256)":"095ea7b3","asset()":"38d52e0f","balanceOf(address)":"70a08231","convertToAssets(uint256)":"07a2d13a","convertToShares(uint256)":"c6e6f592","decimals()":"313ce567","decreaseAllowance(address,uint256)":"a457c2d7","deposit(uint256,address)":"6e553f65","entryFeeBasisPoints()":"ba0af7a9","increaseAllowance(address,uint256)":"39509351","maxDeposit(address)":"402d267d","maxMint(address)":"c63d75b6","maxRedeem(address)":"d905777e","maxWithdraw(address)":"ce96cb77","mint(uint256,address)":"94bf804d","name()":"06fdde03","owner()":"8da5cb5b","previewDeposit(uint256)":"ef8b30f7","previewMint(uint256)":"b3d7f6b9","previewRedeem(uint256)":"4cdad506","previewWithdraw(uint256)":"0a28a477","redeem(uint256,address,address)":"ba087652","symbol()":"95d89b41","totalAssets()":"01e1d114","totalSupply()":"18160ddd","transfer(address,uint256)":"a9059cbb","transferFrom(address,address,uint256)":"23b872dd","withdraw(uint256,address,address)":"b460af94"},"id":34}