{
  "abi": [
    {
      "inputs": [
        {
          "internalType": "address",
          "name": "afctory",
          "type": "address"
        }
      ],
      "stateMutability": "nonpayable",
      "type": "constructor"
    },
    {
      "inputs": [
        {
          "internalType": "address",
          "name": "asset",
          "type": "address"
        },
        {
          "internalType": "uint256",
          "name": "amount",
          "type": "uint256"
        },
        {
          "internalType": "uint256",
          "name": "premium",
          "type": "uint256"
        },
        {
          "internalType": "address",
          "name": "pool",
          "type": "address"
        }
      ],
      "name": "executeOperation",
      "outputs": [
        {
          "internalType": "bool",
          "name": "",
          "type": "bool"
        }
      ],
      "stateMutability": "nonpayable",
      "type": "function"
    },
    {
      "inputs": [
        {
          "internalType": "address",
          "name": "_tokenAddress",
          "type": "address"
        }
      ],
      "name": "getBalance",
      "outputs": [
        {
          "internalType": "uint256",
          "name": "",
          "type": "uint256"
        }
      ],
      "stateMutability": "view",
      "type": "function"
    },
    {
      "inputs": [
        {
          "internalType": "address",
          "name": "_token",
          "type": "address"
        },
        {
          "internalType": "uint256",
          "name": "_amount",
          "type": "uint256"
        }
      ],
      "name": "requestFlashLoan",
      "outputs": [],
      "stateMutability": "nonpayable",
      "type": "function"
    },
    {
      "inputs": [
        {
          "internalType": "address",
          "name": "_tokenAddress",
          "type": "address"
        }
      ],
      "name": "withdraw",
      "outputs": [],
      "stateMutability": "nonpayable",
      "type": "function"
    },
    {
      "stateMutability": "payable",
      "type": "receive"
    }
  ],
  "bytecode": {
    "object": "0x608060405234801561001057600080fd5b5060405161058038038061058083398101604081905261002f91610062565b60008054336001600160a01b031991821617909155600180549091166001600160a01b0392909216919091179055610092565b60006020828403121561007457600080fd5b81516001600160a01b038116811461008b57600080fd5b9392505050565b6104df806100a16000396000f3fe6080604052600436106100435760003560e01c806351cff8d91461004f57806364f9510e14610071578063d54ba954146100a6578063f8b2cb4f146100c657600080fd5b3661004a57005b600080fd5b34801561005b57600080fd5b5061006f61006a3660046103bb565b6100f4565b005b34801561007d57600080fd5b5061009161008c3660046103dd565b6101f3565b60405190151581526020015b60405180910390f35b3480156100b257600080fd5b5061006f6100c1366004610423565b61028e565b3480156100d257600080fd5b506100e66100e13660046103bb565b610308565b60405190815260200161009d565b6000546001600160a01b0316331461010b57600080fd5b6040516370a0823160e01b815230600482015281906001600160a01b0382169063a9059cbb90339083906370a0823190602401602060405180830381865afa15801561015b573d6000803e3d6000fd5b505050506040513d601f19601f8201168201806040525081019061017f919061044d565b6040516001600160e01b031960e085901b1681526001600160a01b03909216600483015260248201526044016020604051808303816000875af11580156101ca573d6000803e3d6000fd5b505050506040513d601f19601f820116820180604052508101906101ee9190610466565b505050565b6000806102008585610379565b61020a9086610488565b60405163095ea7b360e01b81526001600160a01b038581166004830152602482018390529192509087169063095ea7b3906044016020604051808303816000875af115801561025d573d6000803e3d6000fd5b505050506040513d601f19601f820116820180604052508101906102819190610466565b5060019695505050505050565b60015460405163912b7bdd60e01b81526001600160a01b03808516600483015260248201849052306044830181905292859285929091169063912b7bdd90606401600060405180830381600087803b1580156102e957600080fd5b505af11580156102fd573d6000803e3d6000fd5b505050505050505050565b6040516370a0823160e01b81523060048201526000906001600160a01b038316906370a0823190602401602060405180830381865afa15801561034f573d6000803e3d6000fd5b505050506040513d601f19601f82011682018060405250810190610373919061044d565b92915050565b60008115611388198390048411151761039157600080fd5b506127109102611388010490565b80356001600160a01b03811681146103b657600080fd5b919050565b6000602082840312156103cd57600080fd5b6103d68261039f565b9392505050565b600080600080608085870312156103f357600080fd5b6103fc8561039f565b935060208501359250604085013591506104186060860161039f565b905092959194509250565b6000806040838503121561043657600080fd5b61043f8361039f565b946020939093013593505050565b60006020828403121561045f57600080fd5b5051919050565b60006020828403121561047857600080fd5b815180151581146103d657600080fd5b8082018082111561037357634e487b7160e01b600052601160045260246000fdfea26469706673582212204b05106151fdcf808391d423cf6da533c09d910e6639f2a2040e14f57b77431864736f6c63430008170033",
    "linkReferences": {}
  },
  "methodIdentifiers": {
    "executeOperation(address,uint256,uint256,address)": "64f9510e",
    "getBalance(address)": "f8b2cb4f",
    "requestFlashLoan(address,uint256)": "d54ba954",
    "withdraw(address)": "51cff8d9"
  },
  "id": 39
}