{
  "abi": [
    {
      "inputs": [
        {
          "internalType": "address",
          "name": "afctory",
          "type": "address"
        }
      ],
      "stateMutability": "nonpayable",
      "type": "constructor"
    },
    {
      "inputs": [
        {
          "internalType": "address",
          "name": "asset",
          "type": "address"
        },
        {
          "internalType": "uint256",
          "name": "amount",
          "type": "uint256"
        },
        {
          "internalType": "uint256",
          "name": "premium",
          "type": "uint256"
        }
      ],
      "name": "executeOperation",
      "outputs": [
        {
          "internalType": "bool",
          "name": "",
          "type": "bool"
        }
      ],
      "stateMutability": "nonpayable",
      "type": "function"
    },
    {
      "inputs": [
        {
          "internalType": "address",
          "name": "_tokenAddress",
          "type": "address"
        }
      ],
      "name": "getBalance",
      "outputs": [
        {
          "internalType": "uint256",
          "name": "",
          "type": "uint256"
        }
      ],
      "stateMutability": "view",
      "type": "function"
    },
    {
      "inputs": [
        {
          "internalType": "address",
          "name": "_token",
          "type": "address"
        },
        {
          "internalType": "uint256",
          "name": "_amount",
          "type": "uint256"
        }
      ],
      "name": "requestFlashLoan",
      "outputs": [],
      "stateMutability": "nonpayable",
      "type": "function"
    },
    {
      "inputs": [
        {
          "internalType": "address",
          "name": "_tokenAddress",
          "type": "address"
        }
      ],
      "name": "withdraw",
      "outputs": [],
      "stateMutability": "nonpayable",
      "type": "function"
    },
    {
      "stateMutability": "payable",
      "type": "receive"
    }
  ],
  "bytecode": {
    "object": "0x608060405234801561001057600080fd5b5060405161053e38038061053e83398101604081905261002f91610062565b60008054336001600160a01b031991821617909155600180549091166001600160a01b0392909216919091179055610092565b60006020828403121561007457600080fd5b81516001600160a01b038116811461008b57600080fd5b9392505050565b61049d806100a16000396000f3fe6080604052600436106100435760003560e01c806351cff8d91461004f5780638b514f8c14610071578063d54ba954146100a6578063f8b2cb4f146100c657600080fd5b3661004a57005b600080fd5b34801561005b57600080fd5b5061006f61006a36600461038c565b6100f4565b005b34801561007d57600080fd5b5061009161008c3660046103ae565b6101f3565b60405190151581526020015b60405180910390f35b3480156100b257600080fd5b5061006f6100c13660046103e1565b610285565b3480156100d257600080fd5b506100e66100e136600461038c565b6102ff565b60405190815260200161009d565b6000546001600160a01b0316331461010b57600080fd5b6040516370a0823160e01b815230600482015281906001600160a01b0382169063a9059cbb90339083906370a0823190602401602060405180830381865afa15801561015b573d6000803e3d6000fd5b505050506040513d601f19601f8201168201806040525081019061017f919061040b565b6040516001600160e01b031960e085901b1681526001600160a01b03909216600483015260248201526044016020604051808303816000875af11580156101ca573d6000803e3d6000fd5b505050506040513d601f19601f820116820180604052508101906101ee9190610424565b505050565b6000806102008385610446565b60005460405163095ea7b360e01b81526001600160a01b0391821660048201526024810183905291925086169063095ea7b3906044016020604051808303816000875af1158015610255573d6000803e3d6000fd5b505050506040513d601f19601f820116820180604052508101906102799190610424565b50600195945050505050565b60015460405163912b7bdd60e01b81526001600160a01b03808516600483015260248201849052306044830181905292859285929091169063912b7bdd90606401600060405180830381600087803b1580156102e057600080fd5b505af11580156102f4573d6000803e3d6000fd5b505050505050505050565b6040516370a0823160e01b81523060048201526000906001600160a01b038316906370a0823190602401602060405180830381865afa158015610346573d6000803e3d6000fd5b505050506040513d601f19601f8201168201806040525081019061036a919061040b565b92915050565b80356001600160a01b038116811461038757600080fd5b919050565b60006020828403121561039e57600080fd5b6103a782610370565b9392505050565b6000806000606084860312156103c357600080fd5b6103cc84610370565b95602085013595506040909401359392505050565b600080604083850312156103f457600080fd5b6103fd83610370565b946020939093013593505050565b60006020828403121561041d57600080fd5b5051919050565b60006020828403121561043657600080fd5b815180151581146103a757600080fd5b8082018082111561036a57634e487b7160e01b600052601160045260246000fdfea264697066735822122076defdd1573e202bd770fbed295401cc924b0b8c6867862929635620e61eee0c64736f6c63430008170033",
    "linkReferences": {}
  },
  "methodIdentifiers": {
    "executeOperation(address,uint256,uint256)": "8b514f8c",
    "getBalance(address)": "f8b2cb4f",
    "requestFlashLoan(address,uint256)": "d54ba954",
    "withdraw(address)": "51cff8d9"
  },
  "id": 39
}