{
  "abi": [
    {
      "inputs": [],
      "name": "Factory__InvaildAsset",
      "type": "error"
    },
    {
      "inputs": [],
      "name": "Factory__VaultExists",
      "type": "error"
    },
    {
      "inputs": [
        {
          "internalType": "uint256",
          "name": "",
          "type": "uint256"
        }
      ],
      "name": "allVaults",
      "outputs": [
        {
          "internalType": "address",
          "name": "",
          "type": "address"
        }
      ],
      "stateMutability": "view",
      "type": "function"
    },
    {
      "inputs": [
        {
          "internalType": "address",
          "name": "asset",
          "type": "address"
        },
        {
          "internalType": "uint256",
          "name": "basisPoint",
          "type": "uint256"
        },
        {
          "internalType": "address",
          "name": "treasury",
          "type": "address"
        }
      ],
      "name": "createVault",
      "outputs": [
        {
          "internalType": "address",
          "name": "vault",
          "type": "address"
        }
      ],
      "stateMutability": "nonpayable",
      "type": "function"
    },
    {
      "inputs": [
        {
          "internalType": "address",
          "name": "asset",
          "type": "address"
        },
        {
          "internalType": "uint256",
          "name": "_foo",
          "type": "uint256"
        }
      ],
      "name": "getCreationBytecode",
      "outputs": [
        {
          "internalType": "bytes",
          "name": "",
          "type": "bytes"
        }
      ],
      "stateMutability": "pure",
      "type": "function"
    },
    {
      "inputs": [],
      "name": "getNumberOfVaults",
      "outputs": [
        {
          "internalType": "uint256",
          "name": "",
          "type": "uint256"
        }
      ],
      "stateMutability": "view",
      "type": "function"
    },
    {
      "inputs": [
        {
          "internalType": "address",
          "name": "asset",
          "type": "address"
        },
        {
          "internalType": "uint256",
          "name": "amount",
          "type": "uint256"
        },
        {
          "internalType": "address",
          "name": "receiver",
          "type": "address"
        }
      ],
      "name": "requestFlashLoan",
      "outputs": [],
      "stateMutability": "nonpayable",
      "type": "function"
    },
    {
      "inputs": [
        {
          "internalType": "address",
          "name": "token",
          "type": "address"
        }
      ],
      "name": "tokenToVault",
      "outputs": [
        {
          "internalType": "address",
          "name": "vault",
          "type": "address"
        }
      ],
      "stateMutability": "view",
      "type": "function"
    }
  ],
  "bytecode": {
    "object": "0x608060405234801561001057600080fd5b506128d5806100206000396000f3fe60806040523480156200001157600080fd5b50600436106200006a5760003560e01c80630c7e1725146200006f5780632f07196114620000b85780639094a91e14620000de578063912b7bdd14620000f5578063af2b09ab146200010e578063d3e0bc561462000125575b600080fd5b6200009b6200008036600462000552565b6000602081905290815260409020546001600160a01b031681565b6040516001600160a01b0390911681526020015b60405180910390f35b620000cf620000c936600462000577565b62000137565b604051620000af9190620005ca565b6200009b620000ef366004620005ff565b620001b6565b6200010c6200010636600462000619565b620001e1565b005b6200009b6200011f36600462000619565b620002e3565b600154604051908152602001620000af565b60606000604051806020016200014d9062000527565b601f1982820381018352601f9091011660408181526001600160a01b03871660208301528101859052909150819060600160408051601f19818403018152908290526200019e92916020016200065a565b60405160208183030381529060405291505092915050565b60018181548110620001c757600080fd5b6000918252602090912001546001600160a01b0316905081565b6001600160a01b0380841660009081526020818152604080832054815163ba0af7a960e01b815291519394169263ba0af7a9926004808401939192918290030181865afa15801562000237573d6000803e3d6000fd5b505050506040513d601f19601f820116820180604052508101906200025d91906200068d565b6001600160a01b038581166000908152602081905260409081902054905163063555a760e31b81528583166004820152602481018790526044810184905292935016906331aaad3890606401600060405180830381600087803b158015620002c457600080fd5b505af1158015620002d9573d6000803e3d6000fd5b5050505050505050565b60006001600160a01b0384166200030d576040516311841a9360e21b815260040160405180910390fd5b6001600160a01b0384811660009081526020819052604090205416156200034757604051632f568d9960e21b815260040160405180910390fd5b6000604051806020016200035b9062000527565b601f1982820381018352601f9091011660408181526001600160a01b03808916602084015290820187905285166060820152306080820152909150600090829060a00160408051601f1981840301815290829052620003be92916020016200065a565b60408051601f19818403018152908290526bffffffffffffffffffffffff19606089811b821660208501526034840189905287811b8216605485015230901b1660688301529150600090607c01604051602081830303815290604052805190602001209050808251602084016000f59350833b6200043b57600080fd5b6200044684620004b4565b5050600180548082019091557fb10e2d527612073b26eecdfd717e6a320cf44b4afac2b0732d9fcbe2b7fa0cf60180546001600160a01b038085166001600160a01b031992831681179093559690961660009081526020819052604090208054909616179094559392505050565b6040516001600160a01b0382166024820152620004fe9060440160408051601f198184030181529190526020810180516001600160e01b031663161765e160e11b17905262000501565b50565b620004fe8160006a636f6e736f6c652e6c6f679050600080835160208501845afa505050565b6121f880620006a883390190565b80356001600160a01b03811681146200054d57600080fd5b919050565b6000602082840312156200056557600080fd5b620005708262000535565b9392505050565b600080604083850312156200058b57600080fd5b620005968362000535565b946020939093013593505050565b60005b83811015620005c1578181015183820152602001620005a7565b50506000910152565b6020815260008251806020840152620005eb816040850160208701620005a4565b601f01601f19169190910160400192915050565b6000602082840312156200061257600080fd5b5035919050565b6000806000606084860312156200062f57600080fd5b6200063a8462000535565b925060208401359150620006516040850162000535565b90509250925092565b600083516200066e818460208801620005a4565b83519083019062000684818360208801620005a4565b01949350505050565b600060208284031215620006a057600080fd5b505191905056fe60e06040523480156200001157600080fd5b50604051620021f8380380620021f88339810160408190526200003491620001fd565b836040518060400160405280600b81526020016a2b30bab63a102a37b5b2b760a91b8152506040518060400160405280600381526020016215931560ea1b815250816003908162000086919062000300565b50600462000095828262000300565b505050600080620000ac83620000ff60201b60201c565b9150915081620000be576012620000c0565b805b60ff1660a05250506001600160a01b03908116608052600680546001600160a01b031916938216939093179092556007929092551660c0525062000417565b60408051600481526024810182526020810180516001600160e01b031663313ce56760e01b17905290516000918291829182916001600160a01b038716916200014891620003cc565b600060405180830381855afa9150503d806000811462000185576040519150601f19603f3d011682016040523d82523d6000602084013e6200018a565b606091505b50915091508180156200019f57506020815110155b15620001d757600081806020019051810190620001bd9190620003fd565b905060ff8111620001d5576001969095509350505050565b505b5060009485945092505050565b6001600160a01b0381168114620001fa57600080fd5b50565b600080600080608085870312156200021457600080fd5b84516200022181620001e4565b6020860151604087015191955093506200023b81620001e4565b60608601519092506200024e81620001e4565b939692955090935050565b634e487b7160e01b600052604160045260246000fd5b600181811c908216806200028457607f821691505b602082108103620002a557634e487b7160e01b600052602260045260246000fd5b50919050565b601f821115620002fb576000816000526020600020601f850160051c81016020861015620002d65750805b601f850160051c820191505b81811015620002f757828155600101620002e2565b5050505b505050565b81516001600160401b038111156200031c576200031c62000259565b62000334816200032d84546200026f565b84620002ab565b602080601f8311600181146200036c5760008415620003535750858301515b600019600386901b1c1916600185901b178555620002f7565b600085815260208120601f198616915b828110156200039d578886015182559484019460019091019084016200037c565b5085821015620003bc5787850151600019600388901b60f8161c191681555b5050505050600190811b01905550565b6000825160005b81811015620003ef5760208186018101518583015201620003d3565b506000920191825250919050565b6000602082840312156200041057600080fd5b5051919050565b60805160a05160c051611d6462000494600039600061040d015260006106370152600081816102c3015281816104a601528181610660015281816106f8015281816107850152818161082b015281816108d90152818161098e01528181611132015281816111ce0152818161129c01526113bf0152611d646000f3fe608060405234801561001057600080fd5b50600436106101f05760003560e01c80638da5cb5b1161010f578063ba0af7a9116100a2578063ce96cb7711610071578063ce96cb7714610442578063d905777e14610455578063dd62ed3e14610468578063ef8b30f71461047b57600080fd5b8063ba0af7a9146103ff578063c45a015514610408578063c63d75b61461030e578063c6e6f5921461042f57600080fd5b8063a9059cbb116100de578063a9059cbb146103b3578063b3d7f6b9146103c6578063b460af94146103d9578063ba087652146103ec57600080fd5b80638da5cb5b1461037257806394bf804d1461038557806395d89b4114610398578063a457c2d7146103a057600080fd5b8063313ce56711610187578063402d267d11610156578063402d267d1461030e5780634cdad506146103235780636e553f651461033657806370a082311461034957600080fd5b8063313ce5671461029257806331aaad38146102ac57806338d52e0f146102c157806339509351146102fb57600080fd5b80630a28a477116101c35780630a28a4771461025b578063169b0d7f1461026e57806318160ddd1461027757806323b872dd1461027f57600080fd5b806301e1d114146101f557806306fdde031461021057806307a2d13a14610225578063095ea7b314610238575b600080fd5b6101fd61048e565b6040519081526020015b60405180910390f35b61021861051e565b604051610207919061197b565b6101fd6102333660046119ae565b6105b0565b61024b6102463660046119e3565b6105c3565b6040519015158152602001610207565b6101fd6102693660046119ae565b6105db565b6101fd60055481565b6002546101fd565b61024b61028d366004611a0d565b61060b565b61029a61062f565b60405160ff9091168152602001610207565b6102bf6102ba366004611a49565b61065b565b005b7f00000000000000000000000000000000000000000000000000000000000000005b6040516001600160a01b039091168152602001610207565b61024b6103093660046119e3565b610a2b565b6101fd61031c366004611a7c565b5060001990565b6101fd6103313660046119ae565b610a4d565b6101fd610344366004611a97565b610a77565b6101fd610357366004611a7c565b6001600160a01b031660009081526020819052604090205490565b6006546102e3906001600160a01b031681565b6101fd610393366004611a97565b610aa0565b610218610aba565b61024b6103ae3660046119e3565b610ac9565b61024b6103c13660046119e3565b610b44565b6101fd6103d43660046119ae565b610b52565b6101fd6103e7366004611ac3565b610b77565b6101fd6103fa366004611ac3565b610bf3565b6101fd60075481565b6102e37f000000000000000000000000000000000000000000000000000000000000000081565b6101fd61043d3660046119ae565b610c67565b6101fd610450366004611a7c565b610c74565b6101fd610463366004611a7c565b610c98565b6101fd610476366004611aff565b610cb6565b6101fd6104893660046119ae565b610ce1565b6040516370a0823160e01b81523060048201526000907f00000000000000000000000000000000000000000000000000000000000000006001600160a01b0316906370a0823190602401602060405180830381865afa1580156104f5573d6000803e3d6000fd5b505050506040513d601f19601f820116820180604052508101906105199190611b29565b905090565b60606003805461052d90611b42565b80601f016020809104026020016040519081016040528092919081815260200182805461055990611b42565b80156105a65780601f1061057b576101008083540402835291602001916105a6565b820191906000526020600020905b81548152906001019060200180831161058957829003601f168201915b5050505050905090565b60006105bd826000610d00565b92915050565b6000336105d1818585610d3a565b5060019392505050565b6000806105f0836105eb60075490565b610e5e565b90506106046105ff8285611b92565b610e6f565b9392505050565b600033610619858285610e7c565b610624858585610ef6565b506001949350505050565b6000610519817f0000000000000000000000000000000000000000000000000000000000000000611ba5565b8282827f00000000000000000000000000000000000000000000000000000000000000006040516370a0823160e01b81523060048201526001600160a01b0391909116906370a0823190602401602060405180830381865afa1580156106c5573d6000803e3d6000fd5b505050506040513d601f19601f820116820180604052508101906106e99190611b29565b85106106f457600080fd5b60007f00000000000000000000000000000000000000000000000000000000000000006040516370a0823160e01b81523060048201526001600160a01b0391909116906370a0823190602401602060405180830381865afa15801561075d573d6000803e3d6000fd5b505050506040513d601f19601f820116820180604052508101906107819190611b29565b90507f000000000000000000000000000000000000000000000000000000000000000060405163a9059cbb60e01b81526001600160a01b03898116600483015260248201899052919091169063a9059cbb906044016020604051808303816000875af11580156107f5573d6000803e3d6000fd5b505050506040513d601f19601f820116820180604052508101906108199190611bbe565b506001600160a01b0387166364f9510e7f00000000000000000000000000000000000000000000000000000000000000006040516001600160e01b031960e084901b1681526001600160a01b03909116600482015260248101899052604481018890523060648201526084016020604051808303816000875af11580156108a4573d6000803e3d6000fd5b505050506040513d601f19601f820116820180604052508101906108c89190611bbe565b5060006108d5878761109a565b90507f00000000000000000000000000000000000000000000000000000000000000006001600160a01b03166323b872dd8930610912858c611b92565b6040516001600160e01b031960e086901b1681526001600160a01b03938416600482015292909116602483015260448201526064016020604051808303816000875af1158015610966573d6000803e3d6000fd5b505050506040513d601f19601f8201168201806040525081019061098a9190611bbe565b50817f00000000000000000000000000000000000000000000000000000000000000006040516370a0823160e01b81523060048201526001600160a01b0391909116906370a0823190602401602060405180830381865afa1580156109f3573d6000803e3d6000fd5b505050506040513d601f19601f82011682018060405250810190610a179190611b29565b11610a2157600080fd5b5050505050505050565b6000336105d1818585610a3e8383610cb6565b610a489190611b92565b610d3a565b600080610a59836105b0565b9050610a6d81610a6860075490565b6110c0565b6106049082611be0565b6000610a87565b60405180910390fd5b6000610a9284610ce1565b9050610604338486846110dc565b600080610aac84610b52565b9050610604338483876110dc565b60606004805461052d90611b42565b60003381610ad78286610cb6565b905083811015610b375760405162461bcd60e51b815260206004820152602560248201527f45524332303a2064656372656173656420616c6c6f77616e63652062656c6f77604482015264207a65726f60d81b6064820152608401610a7e565b6106248286868403610d3a565b6000336105d1818585610ef6565b600080610b5e8361116a565b9050610b6d816105eb60075490565b6106049082611b92565b6000610b8282610c74565b841115610bd15760405162461bcd60e51b815260206004820152601f60248201527f455243343632363a207769746864726177206d6f7265207468616e206d6178006044820152606401610a7e565b6000610bdc856105db565b9050610beb3385858885611177565b949350505050565b6000610bfe82610c98565b841115610c4d5760405162461bcd60e51b815260206004820152601d60248201527f455243343632363a2072656465656d206d6f7265207468616e206d61780000006044820152606401610a7e565b6000610c5885610a4d565b9050610beb3385858489611177565b60006105bd826000611205565b6001600160a01b0381166000908152602081905260408120546105bd906000610d00565b6001600160a01b0381166000908152602081905260408120546105bd565b6001600160a01b03918216600090815260016020908152604080832093909416825291909152205490565b600080610cf183610a6860075490565b905061060461043d8285611be0565b6000610604610d0d61048e565b610d18906001611b92565b610d246000600a611cd7565b600254610d319190611b92565b85919085611235565b6001600160a01b038316610d9c5760405162461bcd60e51b8152602060048201526024808201527f45524332303a20617070726f76652066726f6d20746865207a65726f206164646044820152637265737360e01b6064820152608401610a7e565b6001600160a01b038216610dfd5760405162461bcd60e51b815260206004820152602260248201527f45524332303a20617070726f766520746f20746865207a65726f206164647265604482015261737360f01b6064820152608401610a7e565b6001600160a01b0383811660008181526001602090815260408083209487168084529482529182902085905590518481527f8c5be1e5ebec7d5bd14f71427d1e84f3dd0314c0f7b2291e5b200ac8c7c3b925910160405180910390a3505050565b600061060483836127106001611235565b60006105bd826001611205565b6000610e888484610cb6565b90506000198114610ef05781811015610ee35760405162461bcd60e51b815260206004820152601d60248201527f45524332303a20696e73756666696369656e7420616c6c6f77616e63650000006044820152606401610a7e565b610ef08484848403610d3a565b50505050565b6001600160a01b038316610f5a5760405162461bcd60e51b815260206004820152602560248201527f45524332303a207472616e736665722066726f6d20746865207a65726f206164604482015264647265737360d81b6064820152608401610a7e565b6001600160a01b038216610fbc5760405162461bcd60e51b815260206004820152602360248201527f45524332303a207472616e7366657220746f20746865207a65726f206164647260448201526265737360e81b6064820152608401610a7e565b6001600160a01b038316600090815260208190526040902054818110156110345760405162461bcd60e51b815260206004820152602660248201527f45524332303a207472616e7366657220616d6f756e7420657863656564732062604482015265616c616e636560d01b6064820152608401610a7e565b6001600160a01b03848116600081815260208181526040808320878703905593871680835291849020805487019055925185815290927fddf252ad1be2c89b69c2b068fc378daa952ba7f163c4a11628f55a4df523b3ef910160405180910390a3610ef0565b6000811561138819839004841115176110b257600080fd5b506127109102611388010490565b6000610604826110d261271082611b92565b8591906001611235565b60006110eb83610a6860075490565b905060006111016006546001600160a01b031690565b905061110f86868686611297565b60008211801561112857506001600160a01b0381163014155b15611159576111597f00000000000000000000000000000000000000000000000000000000000000005b8284611329565b505060058054600101905550505050565b60006105bd826001610d00565b6000611186836105eb60075490565b9050600061119c6006546001600160a01b031690565b90506111ab878787878761138c565b6000821180156111c457506001600160a01b0381163014155b156111f2576111f27f0000000000000000000000000000000000000000000000000000000000000000611152565b5050600580546000190190555050505050565b600061060461121582600a611cd7565b6002546112229190611b92565b61122a61048e565b610d31906001611b92565b60008061124386868661144c565b9050600183600281111561125957611259611ce6565b14801561127657506000848061127157611271611cfc565b868809115b1561128957611286600182611b92565b90505b95945050505050565b505050565b6112c37f0000000000000000000000000000000000000000000000000000000000000000853085611536565b6112cd838261156e565b826001600160a01b0316846001600160a01b03167fdcbc1c05240f31ff3ad067ef1ee35ce4997762752e3a095284754544f4c709d7848460405161131b929190918252602082015260400190565b60405180910390a350505050565b6040516001600160a01b03831660248201526044810182905261129290849063a9059cbb60e01b906064015b60408051601f198184030181529190526020810180516001600160e01b03166001600160e01b03199093169290921790915261162d565b826001600160a01b0316856001600160a01b0316146113b0576113b0838683610e7c565b6113ba8382611702565b6113e57f00000000000000000000000000000000000000000000000000000000000000008584611329565b826001600160a01b0316846001600160a01b0316866001600160a01b03167ffbde797d201c681b91056529119e0b02407c7bb96a4a2c75c01fc9667232c8db858560405161143d929190918252602082015260400190565b60405180910390a45050505050565b60008080600019858709858702925082811083820303915050806000036114865783828161147c5761147c611cfc565b0492505050610604565b8084116114cd5760405162461bcd60e51b81526020600482015260156024820152744d6174683a206d756c446976206f766572666c6f7760581b6044820152606401610a7e565b60008486880960026001871981018816978890046003810283188082028403028082028403028082028403028082028403028082028403029081029092039091026000889003889004909101858311909403939093029303949094049190911702949350505050565b6040516001600160a01b0380851660248301528316604482015260648101829052610ef09085906323b872dd60e01b90608401611355565b6001600160a01b0382166115c45760405162461bcd60e51b815260206004820152601f60248201527f45524332303a206d696e7420746f20746865207a65726f2061646472657373006044820152606401610a7e565b80600260008282546115d69190611b92565b90915550506001600160a01b038216600081815260208181526040808320805486019055518481527fddf252ad1be2c89b69c2b068fc378daa952ba7f163c4a11628f55a4df523b3ef910160405180910390a35050565b6000611682826040518060400160405280602081526020017f5361666545524332303a206c6f772d6c6576656c2063616c6c206661696c6564815250856001600160a01b03166118349092919063ffffffff16565b90508051600014806116a35750808060200190518101906116a39190611bbe565b6112925760405162461bcd60e51b815260206004820152602a60248201527f5361666545524332303a204552433230206f7065726174696f6e20646964206e6044820152691bdd081cdd58d8d9595960b21b6064820152608401610a7e565b6001600160a01b0382166117625760405162461bcd60e51b815260206004820152602160248201527f45524332303a206275726e2066726f6d20746865207a65726f206164647265736044820152607360f81b6064820152608401610a7e565b6001600160a01b038216600090815260208190526040902054818110156117d65760405162461bcd60e51b815260206004820152602260248201527f45524332303a206275726e20616d6f756e7420657863656564732062616c616e604482015261636560f01b6064820152608401610a7e565b6001600160a01b0383166000818152602081815260408083208686039055600280548790039055518581529192917fddf252ad1be2c89b69c2b068fc378daa952ba7f163c4a11628f55a4df523b3ef910160405180910390a3505050565b6060610beb848460008585600080866001600160a01b0316858760405161185b9190611d12565b60006040518083038185875af1925050503d8060008114611898576040519150601f19603f3d011682016040523d82523d6000602084013e61189d565b606091505b50915091506118ae878383876118b9565b979650505050505050565b60608315611928578251600003611921576001600160a01b0385163b6119215760405162461bcd60e51b815260206004820152601d60248201527f416464726573733a2063616c6c20746f206e6f6e2d636f6e74726163740000006044820152606401610a7e565b5081610beb565b610beb838381511561193d5781518083602001fd5b8060405162461bcd60e51b8152600401610a7e919061197b565b60005b8381101561197257818101518382015260200161195a565b50506000910152565b602081526000825180602084015261199a816040850160208701611957565b601f01601f19169190910160400192915050565b6000602082840312156119c057600080fd5b5035919050565b80356001600160a01b03811681146119de57600080fd5b919050565b600080604083850312156119f657600080fd5b6119ff836119c7565b946020939093013593505050565b600080600060608486031215611a2257600080fd5b611a2b846119c7565b9250611a39602085016119c7565b9150604084013590509250925092565b600080600060608486031215611a5e57600080fd5b611a67846119c7565b95602085013595506040909401359392505050565b600060208284031215611a8e57600080fd5b610604826119c7565b60008060408385031215611aaa57600080fd5b82359150611aba602084016119c7565b90509250929050565b600080600060608486031215611ad857600080fd5b83359250611ae8602085016119c7565b9150611af6604085016119c7565b90509250925092565b60008060408385031215611b1257600080fd5b611b1b836119c7565b9150611aba602084016119c7565b600060208284031215611b3b57600080fd5b5051919050565b600181811c90821680611b5657607f821691505b602082108103611b7657634e487b7160e01b600052602260045260246000fd5b50919050565b634e487b7160e01b600052601160045260246000fd5b808201808211156105bd576105bd611b7c565b60ff81811683821601908111156105bd576105bd611b7c565b600060208284031215611bd057600080fd5b8151801515811461060457600080fd5b818103818111156105bd576105bd611b7c565b600181815b80851115611c2e578160001904821115611c1457611c14611b7c565b80851615611c2157918102915b93841c9390800290611bf8565b509250929050565b600082611c45575060016105bd565b81611c52575060006105bd565b8160018114611c685760028114611c7257611c8e565b60019150506105bd565b60ff841115611c8357611c83611b7c565b50506001821b6105bd565b5060208310610133831016604e8410600b8410161715611cb1575081810a6105bd565b611cbb8383611bf3565b8060001904821115611ccf57611ccf611b7c565b029392505050565b600061060460ff841683611c36565b634e487b7160e01b600052602160045260246000fd5b634e487b7160e01b600052601260045260246000fd5b60008251611d24818460208701611957565b919091019291505056fea26469706673582212208faa76573b80d01526c581989a5421d4f7fbeb33490d6bb2ec88bd35a91e99af64736f6c63430008170033a2646970667358221220d684b0744c2983698ab7fc8024571e1f3c1e6b7773bec2b4f5456e849caf993b64736f6c63430008170033",
    "linkReferences": {}
  },
  "methodIdentifiers": {
    "allVaults(uint256)": "9094a91e",
    "createVault(address,uint256,address)": "af2b09ab",
    "getCreationBytecode(address,uint256)": "2f071961",
    "getNumberOfVaults()": "d3e0bc56",
    "requestFlashLoan(address,uint256,address)": "912b7bdd",
    "tokenToVault(address)": "0c7e1725"
  },
  "id": 34
}