{"abi":[{"type":"function","name":"allVaults","inputs":[{"name":"","type":"uint256","internalType":"uint256"}],"outputs":[{"name":"","type":"address","internalType":"address"}],"stateMutability":"view"},{"type":"function","name":"createVault","inputs":[{"name":"asset","type":"address","internalType":"address"},{"name":"basisPoint","type":"uint256","internalType":"uint256"},{"name":"treasury","type":"address","internalType":"address"}],"outputs":[{"name":"vault","type":"address","internalType":"address"}],"stateMutability":"nonpayable"},{"type":"function","name":"getCreationBytecode","inputs":[{"name":"asset","type":"address","internalType":"address"},{"name":"_foo","type":"uint256","internalType":"uint256"}],"outputs":[{"name":"","type":"bytes","internalType":"bytes"}],"stateMutability":"pure"},{"type":"function","name":"getNumberOfVaults","inputs":[],"outputs":[{"name":"","type":"uint256","internalType":"uint256"}],"stateMutability":"view"},{"type":"function","name":"tokenToVault","inputs":[{"name":"token","type":"address","internalType":"address"}],"outputs":[{"name":"vault","type":"address","internalType":"address"}],"stateMutability":"view"},{"type":"error","name":"Factory__InvaildAsset","inputs":[]},{"type":"error","name":"Factory__VaultExists","inputs":[]}],"bytecode":{"object":"0x608060405234801561001057600080fd5b506122c7806100206000396000f3fe60806040523480156200001157600080fd5b50600436106200005e5760003560e01c80630c7e172514620000635780632f07196114620000ac5780639094a91e14620000d2578063af2b09ab14620000e9578063d3e0bc561462000100575b600080fd5b6200008f6200007436600462000404565b6000602081905290815260409020546001600160a01b031681565b6040516001600160a01b0390911681526020015b60405180910390f35b620000c3620000bd3660046200042b565b62000112565b604051620000a3919062000480565b6200008f620000e3366004620004b5565b62000191565b6200008f620000fa366004620004cf565b620001bc565b600154604051908152602001620000a3565b60606000604051806020016200012890620003dd565b601f1982820381018352601f9091011660408181526001600160a01b03871660208301528101859052909150819060600160408051601f198184030181529082905262000179929160200162000516565b60405160208183030381529060405291505092915050565b60018181548110620001a257600080fd5b6000918252602090912001546001600160a01b0316905081565b60006001600160a01b038416620001e6576040516311841a9360e21b815260040160405180910390fd5b6001600160a01b0384811660009081526020819052604090205416156200022057604051632f568d9960e21b815260040160405180910390fd5b6000604051806020016200023490620003dd565b601f1982820381018352601f9091011660408181526001600160a01b03808916602084015290820187905285166060820152909150600090829060800160408051601f198184030181529082905262000291929160200162000516565b60408051601f19818403018152908290526bffffffffffffffffffffffff19606089901b1660208301529150600090603401604051602081830303815290604052805190602001209050808251602084016000f59350866001600160a01b0316846001600160a01b03166338d52e0f6040518163ffffffff1660e01b8152600401602060405180830381865afa15801562000330573d6000803e3d6000fd5b505050506040513d601f19601f8201168201806040525081019062000356919062000549565b6001600160a01b0316146200036f576200036f62000569565b5050600180548082019091557fb10e2d527612073b26eecdfd717e6a320cf44b4afac2b0732d9fcbe2b7fa0cf60180546001600160a01b038085166001600160a01b031992831681179093559690961660009081526020819052604090208054909616179094559392505050565b611d12806200058083390190565b6001600160a01b03811681146200040157600080fd5b50565b6000602082840312156200041757600080fd5b81356200042481620003eb565b9392505050565b600080604083850312156200043f57600080fd5b82356200044c81620003eb565b946020939093013593505050565b60005b83811015620004775781810151838201526020016200045d565b50506000910152565b6020815260008251806020840152620004a18160408501602087016200045a565b601f01601f19169190910160400192915050565b600060208284031215620004c857600080fd5b5035919050565b600080600060608486031215620004e557600080fd5b8335620004f281620003eb565b92506020840135915060408401356200050b81620003eb565b809150509250925092565b600083516200052a8184602088016200045a565b835190830190620005408183602088016200045a565b01949350505050565b6000602082840312156200055c57600080fd5b81516200042481620003eb565b634e487b7160e01b600052600160045260246000fdfe60c06040523480156200001157600080fd5b5060405162001d1238038062001d128339810160408190526200003491620001f6565b826040518060400160405280600b81526020016a2b30bab63a102a37b5b2b760a91b8152506040518060400160405280600381526020016215931560ea1b8152508160039081620000869190620002e3565b506004620000958282620002e3565b505050600080620000ac83620000f860201b60201c565b9150915081620000be576012620000c0565b805b60ff1660a05250506001600160a01b03908116608052600580546001600160a01b0319169290911691909117905560065550620003fa565b60408051600481526024810182526020810180516001600160e01b031663313ce56760e01b17905290516000918291829182916001600160a01b038716916200014191620003af565b600060405180830381855afa9150503d80600081146200017e576040519150601f19603f3d011682016040523d82523d6000602084013e62000183565b606091505b50915091508180156200019857506020815110155b15620001d057600081806020019051810190620001b69190620003e0565b905060ff8111620001ce576001969095509350505050565b505b5060009485945092505050565b6001600160a01b0381168114620001f357600080fd5b50565b6000806000606084860312156200020c57600080fd5b83516200021981620001dd565b6020850151604086015191945092506200023381620001dd565b809150509250925092565b634e487b7160e01b600052604160045260246000fd5b600181811c908216806200026957607f821691505b6020821081036200028a57634e487b7160e01b600052602260045260246000fd5b50919050565b601f821115620002de57600081815260208120601f850160051c81016020861015620002b95750805b601f850160051c820191505b81811015620002da57828155600101620002c5565b5050505b505050565b81516001600160401b03811115620002ff57620002ff6200023e565b620003178162000310845462000254565b8462000290565b602080601f8311600181146200034f5760008415620003365750858301515b600019600386901b1c1916600185901b178555620002da565b600085815260208120601f198616915b8281101562000380578886015182559484019460019091019084016200035f565b50858210156200039f5787850151600019600388901b60f8161c191681555b5050505050600190811b01905550565b6000825160005b81811015620003d25760208186018101518583015201620003b6565b506000920191825250919050565b600060208284031215620003f357600080fd5b5051919050565b60805160a0516118cf6200044360003960006105de01526000818161028f0152818161044d01528181610ce301528181610d7601528181610e3a0152610f5d01526118cf6000f3fe608060405234801561001057600080fd5b50600436106101da5760003560e01c80638da5cb5b11610104578063ba087652116100a2578063ce96cb7711610071578063ce96cb77146103e9578063d905777e146103fc578063dd62ed3e1461040f578063ef8b30f71461042257600080fd5b8063ba087652146103ba578063ba0af7a9146103cd578063c63d75b6146102da578063c6e6f592146103d657600080fd5b8063a457c2d7116100de578063a457c2d71461036e578063a9059cbb14610381578063b3d7f6b914610394578063b460af94146103a757600080fd5b80638da5cb5b1461034057806394bf804d1461035357806395d89b411461036657600080fd5b8063313ce5671161017c5780634cdad5061161014b5780634cdad506146102ef5780636e553f65146103025780636eb06bfc1461031557806370a082311461031757600080fd5b8063313ce5671461027357806338d52e0f1461028d57806339509351146102c7578063402d267d146102da57600080fd5b8063095ea7b3116101b8578063095ea7b3146102225780630a28a4771461024557806318160ddd1461025857806323b872dd1461026057600080fd5b806301e1d114146101df57806306fdde03146101fa57806307a2d13a1461020f575b600080fd5b6101e7610435565b6040519081526020015b60405180910390f35b6102026104c5565b6040516101f19190611519565b6101e761021d36600461154c565b610557565b610235610230366004611581565b61056a565b60405190151581526020016101f1565b6101e761025336600461154c565b610582565b6002546101e7565b61023561026e3660046115ab565b6105b2565b61027b6105d6565b60405160ff90911681526020016101f1565b7f00000000000000000000000000000000000000000000000000000000000000005b6040516001600160a01b0390911681526020016101f1565b6102356102d5366004611581565b610602565b6101e76102e83660046115e7565b5060001990565b6101e76102fd36600461154c565b610624565b6101e7610310366004611602565b61064e565b005b6101e76103253660046115e7565b6001600160a01b031660009081526020819052604090205490565b6005546102af906001600160a01b031681565b6101e7610361366004611602565b610677565b610202610691565b61023561037c366004611581565b6106a0565b61023561038f366004611581565b61071b565b6101e76103a236600461154c565b610729565b6101e76103b536600461162e565b61074e565b6101e76103c836600461162e565b6107ca565b6101e760065481565b6101e76103e436600461154c565b61083e565b6101e76103f73660046115e7565b61084b565b6101e761040a3660046115e7565b61086f565b6101e761041d36600461166a565b61088d565b6101e761043036600461154c565b6108b8565b6040516370a0823160e01b81523060048201526000907f00000000000000000000000000000000000000000000000000000000000000006001600160a01b0316906370a0823190602401602060405180830381865afa15801561049c573d6000803e3d6000fd5b505050506040513d601f19601f820116820180604052508101906104c09190611694565b905090565b6060600380546104d4906116ad565b80601f0160208091040260200160405190810160405280929190818152602001828054610500906116ad565b801561054d5780601f106105225761010080835404028352916020019161054d565b820191906000526020600020905b81548152906001019060200180831161053057829003601f168201915b5050505050905090565b60006105648260006108d7565b92915050565b600033610578818585610911565b5060019392505050565b6000806105978361059260065490565b610a35565b90506105ab6105a682856116fd565b610a46565b9392505050565b6000336105c0858285610a53565b6105cb858585610acd565b506001949350505050565b60006104c0817f0000000000000000000000000000000000000000000000000000000000000000611710565b600033610578818585610615838361088d565b61061f91906116fd565b610911565b60008061063083610557565b90506106448161063f60065490565b610c71565b6105ab9082611729565b600061065e565b60405180910390fd5b6000610669846108b8565b90506105ab33848684610c8d565b60008061068384610729565b90506105ab33848387610c8d565b6060600480546104d4906116ad565b600033816106ae828661088d565b90508381101561070e5760405162461bcd60e51b815260206004820152602560248201527f45524332303a2064656372656173656420616c6c6f77616e63652062656c6f77604482015264207a65726f60d81b6064820152608401610655565b6105cb8286868403610911565b600033610578818585610acd565b60008061073583610d12565b90506107448161059260065490565b6105ab90826116fd565b60006107598261084b565b8411156107a85760405162461bcd60e51b815260206004820152601f60248201527f455243343632363a207769746864726177206d6f7265207468616e206d6178006044820152606401610655565b60006107b385610582565b90506107c23385858885610d1f565b949350505050565b60006107d58261086f565b8411156108245760405162461bcd60e51b815260206004820152601d60248201527f455243343632363a2072656465656d206d6f7265207468616e206d61780000006044820152606401610655565b600061082f85610624565b90506107c23385858489610d1f565b6000610564826000610da3565b6001600160a01b0381166000908152602081905260408120546105649060006108d7565b6001600160a01b038116600090815260208190526040812054610564565b6001600160a01b03918216600090815260016020908152604080832093909416825291909152205490565b6000806108c88361063f60065490565b90506105ab6103e48285611729565b60006105ab6108e4610435565b6108ef9060016116fd565b6108fb6000600a611820565b60025461090891906116fd565b85919085610dd3565b6001600160a01b0383166109735760405162461bcd60e51b8152602060048201526024808201527f45524332303a20617070726f76652066726f6d20746865207a65726f206164646044820152637265737360e01b6064820152608401610655565b6001600160a01b0382166109d45760405162461bcd60e51b815260206004820152602260248201527f45524332303a20617070726f766520746f20746865207a65726f206164647265604482015261737360f01b6064820152608401610655565b6001600160a01b0383811660008181526001602090815260408083209487168084529482529182902085905590518481527f8c5be1e5ebec7d5bd14f71427d1e84f3dd0314c0f7b2291e5b200ac8c7c3b925910160405180910390a3505050565b60006105ab83836127106001610dd3565b6000610564826001610da3565b6000610a5f848461088d565b90506000198114610ac75781811015610aba5760405162461bcd60e51b815260206004820152601d60248201527f45524332303a20696e73756666696369656e7420616c6c6f77616e63650000006044820152606401610655565b610ac78484848403610911565b50505050565b6001600160a01b038316610b315760405162461bcd60e51b815260206004820152602560248201527f45524332303a207472616e736665722066726f6d20746865207a65726f206164604482015264647265737360d81b6064820152608401610655565b6001600160a01b038216610b935760405162461bcd60e51b815260206004820152602360248201527f45524332303a207472616e7366657220746f20746865207a65726f206164647260448201526265737360e81b6064820152608401610655565b6001600160a01b03831660009081526020819052604090205481811015610c0b5760405162461bcd60e51b815260206004820152602660248201527f45524332303a207472616e7366657220616d6f756e7420657863656564732062604482015265616c616e636560d01b6064820152608401610655565b6001600160a01b03848116600081815260208181526040808320878703905593871680835291849020805487019055925185815290927fddf252ad1be2c89b69c2b068fc378daa952ba7f163c4a11628f55a4df523b3ef910160405180910390a3610ac7565b60006105ab82610c83612710826116fd565b8591906001610dd3565b6000610c9c8361063f60065490565b90506000610cb26005546001600160a01b031690565b9050610cc086868686610e35565b600082118015610cd957506001600160a01b0381163014155b15610d0a57610d0a7f00000000000000000000000000000000000000000000000000000000000000005b8284610ec7565b505050505050565b60006105648260016108d7565b6000610d2e8361059260065490565b90506000610d446005546001600160a01b031690565b9050610d538787878787610f2a565b600082118015610d6c57506001600160a01b0381163014155b15610d9a57610d9a7f0000000000000000000000000000000000000000000000000000000000000000610d03565b50505050505050565b60006105ab610db382600a611820565b600254610dc091906116fd565b610dc8610435565b6109089060016116fd565b600080610de1868686610fea565b90506001836002811115610df757610df761182f565b148015610e14575060008480610e0f57610e0f611845565b868809115b15610e2757610e246001826116fd565b90505b95945050505050565b505050565b610e617f00000000000000000000000000000000000000000000000000000000000000008530856110d4565b610e6b838261110c565b826001600160a01b0316846001600160a01b03167fdcbc1c05240f31ff3ad067ef1ee35ce4997762752e3a095284754544f4c709d78484604051610eb9929190918252602082015260400190565b60405180910390a350505050565b6040516001600160a01b038316602482015260448101829052610e3090849063a9059cbb60e01b906064015b60408051601f198184030181529190526020810180516001600160e01b03166001600160e01b0319909316929092179091526111cb565b826001600160a01b0316856001600160a01b031614610f4e57610f4e838683610a53565b610f5883826112a0565b610f837f00000000000000000000000000000000000000000000000000000000000000008584610ec7565b826001600160a01b0316846001600160a01b0316866001600160a01b03167ffbde797d201c681b91056529119e0b02407c7bb96a4a2c75c01fc9667232c8db8585604051610fdb929190918252602082015260400190565b60405180910390a45050505050565b60008080600019858709858702925082811083820303915050806000036110245783828161101a5761101a611845565b04925050506105ab565b80841161106b5760405162461bcd60e51b81526020600482015260156024820152744d6174683a206d756c446976206f766572666c6f7760581b6044820152606401610655565b60008486880960026001871981018816978890046003810283188082028403028082028403028082028403028082028403028082028403029081029092039091026000889003889004909101858311909403939093029303949094049190911702949350505050565b6040516001600160a01b0380851660248301528316604482015260648101829052610ac79085906323b872dd60e01b90608401610ef3565b6001600160a01b0382166111625760405162461bcd60e51b815260206004820152601f60248201527f45524332303a206d696e7420746f20746865207a65726f2061646472657373006044820152606401610655565b806002600082825461117491906116fd565b90915550506001600160a01b038216600081815260208181526040808320805486019055518481527fddf252ad1be2c89b69c2b068fc378daa952ba7f163c4a11628f55a4df523b3ef910160405180910390a35050565b6000611220826040518060400160405280602081526020017f5361666545524332303a206c6f772d6c6576656c2063616c6c206661696c6564815250856001600160a01b03166113d29092919063ffffffff16565b9050805160001480611241575080806020019051810190611241919061185b565b610e305760405162461bcd60e51b815260206004820152602a60248201527f5361666545524332303a204552433230206f7065726174696f6e20646964206e6044820152691bdd081cdd58d8d9595960b21b6064820152608401610655565b6001600160a01b0382166113005760405162461bcd60e51b815260206004820152602160248201527f45524332303a206275726e2066726f6d20746865207a65726f206164647265736044820152607360f81b6064820152608401610655565b6001600160a01b038216600090815260208190526040902054818110156113745760405162461bcd60e51b815260206004820152602260248201527f45524332303a206275726e20616d6f756e7420657863656564732062616c616e604482015261636560f01b6064820152608401610655565b6001600160a01b0383166000818152602081815260408083208686039055600280548790039055518581529192917fddf252ad1be2c89b69c2b068fc378daa952ba7f163c4a11628f55a4df523b3ef910160405180910390a3505050565b60606107c2848460008585600080866001600160a01b031685876040516113f9919061187d565b60006040518083038185875af1925050503d8060008114611436576040519150601f19603f3d011682016040523d82523d6000602084013e61143b565b606091505b509150915061144c87838387611457565b979650505050505050565b606083156114c65782516000036114bf576001600160a01b0385163b6114bf5760405162461bcd60e51b815260206004820152601d60248201527f416464726573733a2063616c6c20746f206e6f6e2d636f6e74726163740000006044820152606401610655565b50816107c2565b6107c283838151156114db5781518083602001fd5b8060405162461bcd60e51b81526004016106559190611519565b60005b838110156115105781810151838201526020016114f8565b50506000910152565b60208152600082518060208401526115388160408501602087016114f5565b601f01601f19169190910160400192915050565b60006020828403121561155e57600080fd5b5035919050565b80356001600160a01b038116811461157c57600080fd5b919050565b6000806040838503121561159457600080fd5b61159d83611565565b946020939093013593505050565b6000806000606084860312156115c057600080fd5b6115c984611565565b92506115d760208501611565565b9150604084013590509250925092565b6000602082840312156115f957600080fd5b6105ab82611565565b6000806040838503121561161557600080fd5b8235915061162560208401611565565b90509250929050565b60008060006060848603121561164357600080fd5b8335925061165360208501611565565b915061166160408501611565565b90509250925092565b6000806040838503121561167d57600080fd5b61168683611565565b915061162560208401611565565b6000602082840312156116a657600080fd5b5051919050565b600181811c908216806116c157607f821691505b6020821081036116e157634e487b7160e01b600052602260045260246000fd5b50919050565b634e487b7160e01b600052601160045260246000fd5b80820180821115610564576105646116e7565b60ff8181168382160190811115610564576105646116e7565b81810381811115610564576105646116e7565b600181815b8085111561177757816000190482111561175d5761175d6116e7565b8085161561176a57918102915b93841c9390800290611741565b509250929050565b60008261178e57506001610564565b8161179b57506000610564565b81600181146117b157600281146117bb576117d7565b6001915050610564565b60ff8411156117cc576117cc6116e7565b50506001821b610564565b5060208310610133831016604e8410600b84101617156117fa575081810a610564565b611804838361173c565b8060001904821115611818576118186116e7565b029392505050565b60006105ab60ff84168361177f565b634e487b7160e01b600052602160045260246000fd5b634e487b7160e01b600052601260045260246000fd5b60006020828403121561186d57600080fd5b815180151581146105ab57600080fd5b6000825161188f8184602087016114f5565b919091019291505056fea264697066735822122085311b6ff1c5da18fa12400f72add121fa102caba5ac349dba2f35d012c49e4d64736f6c63430008150033a2646970667358221220cd81311bcd830375a751895fa4e74812553ad3e0b0a748dfd1a1bae84f81c6f264736f6c63430008150033","linkReferences":{}},"methodIdentifiers":{"allVaults(uint256)":"9094a91e","createVault(address,uint256,address)":"af2b09ab","getCreationBytecode(address,uint256)":"2f071961","getNumberOfVaults()":"d3e0bc56","tokenToVault(address)":"0c7e1725"},"id":32}