{
  "abi": [
    {
      "inputs": [],
      "name": "Factory__InvaildAsset",
      "type": "error"
    },
    {
      "inputs": [],
      "name": "Factory__VaultExists",
      "type": "error"
    },
    {
      "inputs": [
        {
          "internalType": "uint256",
          "name": "",
          "type": "uint256"
        }
      ],
      "name": "allVaults",
      "outputs": [
        {
          "internalType": "address",
          "name": "",
          "type": "address"
        }
      ],
      "stateMutability": "view",
      "type": "function"
    },
    {
      "inputs": [
        {
          "internalType": "address",
          "name": "asset",
          "type": "address"
        },
        {
          "internalType": "uint256",
          "name": "basisPoint",
          "type": "uint256"
        },
        {
          "internalType": "address",
          "name": "treasury",
          "type": "address"
        }
      ],
      "name": "createVault",
      "outputs": [
        {
          "internalType": "address",
          "name": "vault",
          "type": "address"
        }
      ],
      "stateMutability": "nonpayable",
      "type": "function"
    },
    {
      "inputs": [
        {
          "internalType": "address",
          "name": "asset",
          "type": "address"
        },
        {
          "internalType": "uint256",
          "name": "_foo",
          "type": "uint256"
        }
      ],
      "name": "getCreationBytecode",
      "outputs": [
        {
          "internalType": "bytes",
          "name": "",
          "type": "bytes"
        }
      ],
      "stateMutability": "pure",
      "type": "function"
    },
    {
      "inputs": [],
      "name": "getNumberOfVaults",
      "outputs": [
        {
          "internalType": "uint256",
          "name": "",
          "type": "uint256"
        }
      ],
      "stateMutability": "view",
      "type": "function"
    },
    {
      "inputs": [
        {
          "internalType": "address",
          "name": "asset",
          "type": "address"
        },
        {
          "internalType": "uint256",
          "name": "amount",
          "type": "uint256"
        },
        {
          "internalType": "address",
          "name": "receiver",
          "type": "address"
        }
      ],
      "name": "requestFlashLoan",
      "outputs": [],
      "stateMutability": "nonpayable",
      "type": "function"
    },
    {
      "inputs": [
        {
          "internalType": "address",
          "name": "token",
          "type": "address"
        }
      ],
      "name": "tokenToVault",
      "outputs": [
        {
          "internalType": "address",
          "name": "vault",
          "type": "address"
        }
      ],
      "stateMutability": "view",
      "type": "function"
    }
  ],
  "bytecode": {
    "object": "0x608060405234801561001057600080fd5b506128db806100206000396000f3fe60806040523480156200001157600080fd5b50600436106200006a5760003560e01c80630c7e1725146200006f5780632f07196114620000b85780639094a91e14620000de578063912b7bdd14620000f5578063af2b09ab146200010e578063d3e0bc561462000125575b600080fd5b6200009b6200008036600462000552565b6000602081905290815260409020546001600160a01b031681565b6040516001600160a01b0390911681526020015b60405180910390f35b620000cf620000c936600462000577565b62000137565b604051620000af9190620005ca565b6200009b620000ef366004620005ff565b620001b6565b6200010c6200010636600462000619565b620001e1565b005b6200009b6200011f36600462000619565b620002e3565b600154604051908152602001620000af565b60606000604051806020016200014d9062000527565b601f1982820381018352601f9091011660408181526001600160a01b03871660208301528101859052909150819060600160408051601f19818403018152908290526200019e92916020016200065a565b60405160208183030381529060405291505092915050565b60018181548110620001c757600080fd5b6000918252602090912001546001600160a01b0316905081565b6001600160a01b0380841660009081526020818152604080832054815163ba0af7a960e01b815291519394169263ba0af7a9926004808401939192918290030181865afa15801562000237573d6000803e3d6000fd5b505050506040513d601f19601f820116820180604052508101906200025d91906200068d565b6001600160a01b038581166000908152602081905260409081902054905163063555a760e31b81528583166004820152602481018790526044810184905292935016906331aaad3890606401600060405180830381600087803b158015620002c457600080fd5b505af1158015620002d9573d6000803e3d6000fd5b5050505050505050565b60006001600160a01b0384166200030d576040516311841a9360e21b815260040160405180910390fd5b6001600160a01b0384811660009081526020819052604090205416156200034757604051632f568d9960e21b815260040160405180910390fd5b6000604051806020016200035b9062000527565b601f1982820381018352601f9091011660408181526001600160a01b03808916602084015290820187905285166060820152306080820152909150600090829060a00160408051601f1981840301815290829052620003be92916020016200065a565b60408051601f19818403018152908290526bffffffffffffffffffffffff19606089811b821660208501526034840189905287811b8216605485015230901b1660688301529150600090607c01604051602081830303815290604052805190602001209050808251602084016000f59350833b6200043b57600080fd5b6200044684620004b4565b5050600180548082019091557fb10e2d527612073b26eecdfd717e6a320cf44b4afac2b0732d9fcbe2b7fa0cf60180546001600160a01b038085166001600160a01b031992831681179093559690961660009081526020819052604090208054909616179094559392505050565b6040516001600160a01b0382166024820152620004fe9060440160408051601f198184030181529190526020810180516001600160e01b031663161765e160e11b17905262000501565b50565b620004fe8160006a636f6e736f6c652e6c6f679050600080835160208501845afa505050565b6121fe80620006a883390190565b80356001600160a01b03811681146200054d57600080fd5b919050565b6000602082840312156200056557600080fd5b620005708262000535565b9392505050565b600080604083850312156200058b57600080fd5b620005968362000535565b946020939093013593505050565b60005b83811015620005c1578181015183820152602001620005a7565b50506000910152565b6020815260008251806020840152620005eb816040850160208701620005a4565b601f01601f19169190910160400192915050565b6000602082840312156200061257600080fd5b5035919050565b6000806000606084860312156200062f57600080fd5b6200063a8462000535565b925060208401359150620006516040850162000535565b90509250925092565b600083516200066e818460208801620005a4565b83519083019062000684818360208801620005a4565b01949350505050565b600060208284031215620006a057600080fd5b505191905056fe60e06040523480156200001157600080fd5b50604051620021fe380380620021fe8339810160408190526200003491620001fd565b836040518060400160405280600b81526020016a2b30bab63a102a37b5b2b760a91b8152506040518060400160405280600381526020016215931560ea1b815250816003908162000086919062000300565b50600462000095828262000300565b505050600080620000ac83620000ff60201b60201c565b9150915081620000be576012620000c0565b805b60ff1660a05250506001600160a01b03908116608052600680546001600160a01b031916938216939093179092556007929092551660c0525062000417565b60408051600481526024810182526020810180516001600160e01b031663313ce56760e01b17905290516000918291829182916001600160a01b038716916200014891620003cc565b600060405180830381855afa9150503d806000811462000185576040519150601f19603f3d011682016040523d82523d6000602084013e6200018a565b606091505b50915091508180156200019f57506020815110155b15620001d757600081806020019051810190620001bd9190620003fd565b905060ff8111620001d5576001969095509350505050565b505b5060009485945092505050565b6001600160a01b0381168114620001fa57600080fd5b50565b600080600080608085870312156200021457600080fd5b84516200022181620001e4565b6020860151604087015191955093506200023b81620001e4565b60608601519092506200024e81620001e4565b939692955090935050565b634e487b7160e01b600052604160045260246000fd5b600181811c908216806200028457607f821691505b602082108103620002a557634e487b7160e01b600052602260045260246000fd5b50919050565b601f821115620002fb576000816000526020600020601f850160051c81016020861015620002d65750805b601f850160051c820191505b81811015620002f757828155600101620002e2565b5050505b505050565b81516001600160401b038111156200031c576200031c62000259565b62000334816200032d84546200026f565b84620002ab565b602080601f8311600181146200036c5760008415620003535750858301515b600019600386901b1c1916600185901b178555620002f7565b600085815260208120601f198616915b828110156200039d578886015182559484019460019091019084016200037c565b5085821015620003bc5787850151600019600388901b60f8161c191681555b5050505050600190811b01905550565b6000825160005b81811015620003ef5760208186018101518583015201620003d3565b506000920191825250919050565b6000602082840312156200041057600080fd5b5051919050565b60805160a05160c051611d6a62000494600039600061040d0152600061062f0152600081816102c3015281816104a601528181610658015281816106f00152818161077d01528181610823015281816108d1015281816109860152818161111b015281816111d0015281816112a201526113c50152611d6a6000f3fe608060405234801561001057600080fd5b50600436106101f05760003560e01c80638da5cb5b1161010f578063ba0af7a9116100a2578063ce96cb7711610071578063ce96cb7714610442578063d905777e14610455578063dd62ed3e14610468578063ef8b30f71461047b57600080fd5b8063ba0af7a9146103ff578063c45a015514610408578063c63d75b61461030e578063c6e6f5921461042f57600080fd5b8063a9059cbb116100de578063a9059cbb146103b3578063b3d7f6b9146103c6578063b460af94146103d9578063ba087652146103ec57600080fd5b80638da5cb5b1461037257806394bf804d1461038557806395d89b4114610398578063a457c2d7146103a057600080fd5b8063313ce56711610187578063402d267d11610156578063402d267d1461030e5780634cdad506146103235780636e553f651461033657806370a082311461034957600080fd5b8063313ce5671461029257806331aaad38146102ac57806338d52e0f146102c157806339509351146102fb57600080fd5b80630a28a477116101c35780630a28a4771461025b578063169b0d7f1461026e57806318160ddd1461027757806323b872dd1461027f57600080fd5b806301e1d114146101f557806306fdde031461021057806307a2d13a14610225578063095ea7b314610238575b600080fd5b6101fd61048e565b6040519081526020015b60405180910390f35b61021861051e565b6040516102079190611981565b6101fd6102333660046119b4565b6105b0565b61024b6102463660046119e9565b6105c3565b6040519015158152602001610207565b6101fd6102693660046119b4565b6105db565b6101fd60055481565b6002546101fd565b61024b61028d366004611a13565b610603565b61029a610627565b60405160ff9091168152602001610207565b6102bf6102ba366004611a4f565b610653565b005b7f00000000000000000000000000000000000000000000000000000000000000005b6040516001600160a01b039091168152602001610207565b61024b6103093660046119e9565b610a23565b6101fd61031c366004611a82565b5060001990565b6101fd6103313660046119b4565b610a45565b6101fd610344366004611a9d565b610a68565b6101fd610357366004611a82565b6001600160a01b031660009081526020819052604090205490565b6006546102e3906001600160a01b031681565b6101fd610393366004611a9d565b610a91565b610218610aab565b61024b6103ae3660046119e9565b610aba565b61024b6103c13660046119e9565b610b35565b6101fd6103d43660046119b4565b610b43565b6101fd6103e7366004611ac9565b610b66565b6101fd6103fa366004611ac9565b610be2565b6101fd60075481565b6102e37f000000000000000000000000000000000000000000000000000000000000000081565b6101fd61043d3660046119b4565b610c56565b6101fd610450366004611a82565b610c63565b6101fd610463366004611a82565b610c87565b6101fd610476366004611b05565b610ca5565b6101fd6104893660046119b4565b610cd0565b6040516370a0823160e01b81523060048201526000907f00000000000000000000000000000000000000000000000000000000000000006001600160a01b0316906370a0823190602401602060405180830381865afa1580156104f5573d6000803e3d6000fd5b505050506040513d601f19601f820116820180604052508101906105199190611b2f565b905090565b60606003805461052d90611b48565b80601f016020809104026020016040519081016040528092919081815260200182805461055990611b48565b80156105a65780601f1061057b576101008083540402835291602001916105a6565b820191906000526020600020905b81548152906001019060200180831161058957829003601f168201915b5050505050905090565b60006105bd826000610cec565b92915050565b6000336105d1818585610d26565b5060019392505050565b6000806105e88382610e4a565b90506105fc6105f78285611b98565b610e5b565b9392505050565b600033610611858285610e68565b61061c858585610ee2565b506001949350505050565b6000610519817f0000000000000000000000000000000000000000000000000000000000000000611bab565b8282827f00000000000000000000000000000000000000000000000000000000000000006040516370a0823160e01b81523060048201526001600160a01b0391909116906370a0823190602401602060405180830381865afa1580156106bd573d6000803e3d6000fd5b505050506040513d601f19601f820116820180604052508101906106e19190611b2f565b85106106ec57600080fd5b60007f00000000000000000000000000000000000000000000000000000000000000006040516370a0823160e01b81523060048201526001600160a01b0391909116906370a0823190602401602060405180830381865afa158015610755573d6000803e3d6000fd5b505050506040513d601f19601f820116820180604052508101906107799190611b2f565b90507f000000000000000000000000000000000000000000000000000000000000000060405163a9059cbb60e01b81526001600160a01b03898116600483015260248201899052919091169063a9059cbb906044016020604051808303816000875af11580156107ed573d6000803e3d6000fd5b505050506040513d601f19601f820116820180604052508101906108119190611bc4565b506001600160a01b0387166364f9510e7f00000000000000000000000000000000000000000000000000000000000000006040516001600160e01b031960e084901b1681526001600160a01b03909116600482015260248101899052604481018890523060648201526084016020604051808303816000875af115801561089c573d6000803e3d6000fd5b505050506040513d601f19601f820116820180604052508101906108c09190611bc4565b5060006108cd8787611086565b90507f00000000000000000000000000000000000000000000000000000000000000006001600160a01b03166323b872dd893061090a858c611b98565b6040516001600160e01b031960e086901b1681526001600160a01b03938416600482015292909116602483015260448201526064016020604051808303816000875af115801561095e573d6000803e3d6000fd5b505050506040513d601f19601f820116820180604052508101906109829190611bc4565b50817f00000000000000000000000000000000000000000000000000000000000000006040516370a0823160e01b81523060048201526001600160a01b0391909116906370a0823190602401602060405180830381865afa1580156109eb573d6000803e3d6000fd5b505050506040513d601f19601f82011682018060405250810190610a0f9190611b2f565b11610a1957600080fd5b5050505050505050565b6000336105d1818585610a368383610ca5565b610a409190611b98565b610d26565b600080610a51836105b0565b9050610a5e8160006110ac565b6105fc9082611be6565b6000610a78565b60405180910390fd5b6000610a8384610cd0565b90506105fc338486846110c8565b600080610a9d84610b43565b90506105fc338483876110c8565b60606004805461052d90611b48565b60003381610ac88286610ca5565b905083811015610b285760405162461bcd60e51b815260206004820152602560248201527f45524332303a2064656372656173656420616c6c6f77616e63652062656c6f77604482015264207a65726f60d81b6064820152608401610a6f565b61061c8286868403610d26565b6000336105d1818585610ee2565b600080610b4f83611152565b9050610b5c816000610e4a565b6105fc9082611b98565b6000610b7182610c63565b841115610bc05760405162461bcd60e51b815260206004820152601f60248201527f455243343632363a207769746864726177206d6f7265207468616e206d6178006044820152606401610a6f565b6000610bcb856105db565b9050610bda338585888561115f565b949350505050565b6000610bed82610c87565b841115610c3c5760405162461bcd60e51b815260206004820152601d60248201527f455243343632363a2072656465656d206d6f7265207468616e206d61780000006044820152606401610a6f565b6000610c4785610a45565b9050610bda338585848961115f565b60006105bd82600061120b565b6001600160a01b0381166000908152602081905260408120546105bd906000610cec565b6001600160a01b0381166000908152602081905260408120546105bd565b6001600160a01b03918216600090815260016020908152604080832093909416825291909152205490565b600080610cdd83826110ac565b90506105fc61043d8285611be6565b60006105fc610cf961048e565b610d04906001611b98565b610d106000600a611cdd565b600254610d1d9190611b98565b8591908561123b565b6001600160a01b038316610d885760405162461bcd60e51b8152602060048201526024808201527f45524332303a20617070726f76652066726f6d20746865207a65726f206164646044820152637265737360e01b6064820152608401610a6f565b6001600160a01b038216610de95760405162461bcd60e51b815260206004820152602260248201527f45524332303a20617070726f766520746f20746865207a65726f206164647265604482015261737360f01b6064820152608401610a6f565b6001600160a01b0383811660008181526001602090815260408083209487168084529482529182902085905590518481527f8c5be1e5ebec7d5bd14f71427d1e84f3dd0314c0f7b2291e5b200ac8c7c3b925910160405180910390a3505050565b60006105fc8383612710600161123b565b60006105bd82600161120b565b6000610e748484610ca5565b90506000198114610edc5781811015610ecf5760405162461bcd60e51b815260206004820152601d60248201527f45524332303a20696e73756666696369656e7420616c6c6f77616e63650000006044820152606401610a6f565b610edc8484848403610d26565b50505050565b6001600160a01b038316610f465760405162461bcd60e51b815260206004820152602560248201527f45524332303a207472616e736665722066726f6d20746865207a65726f206164604482015264647265737360d81b6064820152608401610a6f565b6001600160a01b038216610fa85760405162461bcd60e51b815260206004820152602360248201527f45524332303a207472616e7366657220746f20746865207a65726f206164647260448201526265737360e81b6064820152608401610a6f565b6001600160a01b038316600090815260208190526040902054818110156110205760405162461bcd60e51b815260206004820152602660248201527f45524332303a207472616e7366657220616d6f756e7420657863656564732062604482015265616c616e636560d01b6064820152608401610a6f565b6001600160a01b03848116600081815260208181526040808320878703905593871680835291849020805487019055925185815290927fddf252ad1be2c89b69c2b068fc378daa952ba7f163c4a11628f55a4df523b3ef910160405180910390a3610edc565b60008115611388198390048411151761109e57600080fd5b506127109102611388010490565b60006105fc826110be61271082611b98565b859190600161123b565b60006110d483826110ac565b905060006110ea6006546001600160a01b031690565b90506110f88686868661129d565b60008211801561111157506001600160a01b0381163014155b15611141576111417f0000000000000000000000000000000000000000000000000000000000000000828461132f565b505060058054600101905550505050565b60006105bd826001610cec565b600061116b8382610e4a565b905060006111816006546001600160a01b031690565b9050600061119085600a611086565b9050600061119e8287611b98565b90506111ad8989898489611392565b6000841180156111c657506001600160a01b0383163014155b156111f6576111f67f0000000000000000000000000000000000000000000000000000000000000000848661132f565b50506005805460001901905550505050505050565b60006105fc61121b82600a611cdd565b6002546112289190611b98565b61123061048e565b610d1d906001611b98565b600080611249868686611452565b9050600183600281111561125f5761125f611cec565b14801561127c57506000848061127757611277611d02565b868809115b1561128f5761128c600182611b98565b90505b95945050505050565b505050565b6112c97f000000000000000000000000000000000000000000000000000000000000000085308561153c565b6112d38382611574565b826001600160a01b0316846001600160a01b03167fdcbc1c05240f31ff3ad067ef1ee35ce4997762752e3a095284754544f4c709d78484604051611321929190918252602082015260400190565b60405180910390a350505050565b6040516001600160a01b03831660248201526044810182905261129890849063a9059cbb60e01b906064015b60408051601f198184030181529190526020810180516001600160e01b03166001600160e01b031990931692909217909152611633565b826001600160a01b0316856001600160a01b0316146113b6576113b6838683610e68565b6113c08382611708565b6113eb7f0000000000000000000000000000000000000000000000000000000000000000858461132f565b826001600160a01b0316846001600160a01b0316866001600160a01b03167ffbde797d201c681b91056529119e0b02407c7bb96a4a2c75c01fc9667232c8db8585604051611443929190918252602082015260400190565b60405180910390a45050505050565b600080806000198587098587029250828110838203039150508060000361148c5783828161148257611482611d02565b04925050506105fc565b8084116114d35760405162461bcd60e51b81526020600482015260156024820152744d6174683a206d756c446976206f766572666c6f7760581b6044820152606401610a6f565b60008486880960026001871981018816978890046003810283188082028403028082028403028082028403028082028403028082028403029081029092039091026000889003889004909101858311909403939093029303949094049190911702949350505050565b6040516001600160a01b0380851660248301528316604482015260648101829052610edc9085906323b872dd60e01b9060840161135b565b6001600160a01b0382166115ca5760405162461bcd60e51b815260206004820152601f60248201527f45524332303a206d696e7420746f20746865207a65726f2061646472657373006044820152606401610a6f565b80600260008282546115dc9190611b98565b90915550506001600160a01b038216600081815260208181526040808320805486019055518481527fddf252ad1be2c89b69c2b068fc378daa952ba7f163c4a11628f55a4df523b3ef910160405180910390a35050565b6000611688826040518060400160405280602081526020017f5361666545524332303a206c6f772d6c6576656c2063616c6c206661696c6564815250856001600160a01b031661183a9092919063ffffffff16565b90508051600014806116a95750808060200190518101906116a99190611bc4565b6112985760405162461bcd60e51b815260206004820152602a60248201527f5361666545524332303a204552433230206f7065726174696f6e20646964206e6044820152691bdd081cdd58d8d9595960b21b6064820152608401610a6f565b6001600160a01b0382166117685760405162461bcd60e51b815260206004820152602160248201527f45524332303a206275726e2066726f6d20746865207a65726f206164647265736044820152607360f81b6064820152608401610a6f565b6001600160a01b038216600090815260208190526040902054818110156117dc5760405162461bcd60e51b815260206004820152602260248201527f45524332303a206275726e20616d6f756e7420657863656564732062616c616e604482015261636560f01b6064820152608401610a6f565b6001600160a01b0383166000818152602081815260408083208686039055600280548790039055518581529192917fddf252ad1be2c89b69c2b068fc378daa952ba7f163c4a11628f55a4df523b3ef910160405180910390a3505050565b6060610bda848460008585600080866001600160a01b031685876040516118619190611d18565b60006040518083038185875af1925050503d806000811461189e576040519150601f19603f3d011682016040523d82523d6000602084013e6118a3565b606091505b50915091506118b4878383876118bf565b979650505050505050565b6060831561192e578251600003611927576001600160a01b0385163b6119275760405162461bcd60e51b815260206004820152601d60248201527f416464726573733a2063616c6c20746f206e6f6e2d636f6e74726163740000006044820152606401610a6f565b5081610bda565b610bda83838151156119435781518083602001fd5b8060405162461bcd60e51b8152600401610a6f9190611981565b60005b83811015611978578181015183820152602001611960565b50506000910152565b60208152600082518060208401526119a081604085016020870161195d565b601f01601f19169190910160400192915050565b6000602082840312156119c657600080fd5b5035919050565b80356001600160a01b03811681146119e457600080fd5b919050565b600080604083850312156119fc57600080fd5b611a05836119cd565b946020939093013593505050565b600080600060608486031215611a2857600080fd5b611a31846119cd565b9250611a3f602085016119cd565b9150604084013590509250925092565b600080600060608486031215611a6457600080fd5b611a6d846119cd565b95602085013595506040909401359392505050565b600060208284031215611a9457600080fd5b6105fc826119cd565b60008060408385031215611ab057600080fd5b82359150611ac0602084016119cd565b90509250929050565b600080600060608486031215611ade57600080fd5b83359250611aee602085016119cd565b9150611afc604085016119cd565b90509250925092565b60008060408385031215611b1857600080fd5b611b21836119cd565b9150611ac0602084016119cd565b600060208284031215611b4157600080fd5b5051919050565b600181811c90821680611b5c57607f821691505b602082108103611b7c57634e487b7160e01b600052602260045260246000fd5b50919050565b634e487b7160e01b600052601160045260246000fd5b808201808211156105bd576105bd611b82565b60ff81811683821601908111156105bd576105bd611b82565b600060208284031215611bd657600080fd5b815180151581146105fc57600080fd5b818103818111156105bd576105bd611b82565b600181815b80851115611c34578160001904821115611c1a57611c1a611b82565b80851615611c2757918102915b93841c9390800290611bfe565b509250929050565b600082611c4b575060016105bd565b81611c58575060006105bd565b8160018114611c6e5760028114611c7857611c94565b60019150506105bd565b60ff841115611c8957611c89611b82565b50506001821b6105bd565b5060208310610133831016604e8410600b8410161715611cb7575081810a6105bd565b611cc18383611bf9565b8060001904821115611cd557611cd5611b82565b029392505050565b60006105fc60ff841683611c3c565b634e487b7160e01b600052602160045260246000fd5b634e487b7160e01b600052601260045260246000fd5b60008251611d2a81846020870161195d565b919091019291505056fea2646970667358221220ade8b64a0266bced28a9dd6e2e44e4d039785ffba9b007d66c905733d59d1d4664736f6c63430008170033a2646970667358221220da40093e677755ce30af98d41875608a9d9108f4e08ab99a1d0a0561596ae3cd64736f6c63430008170033",
    "linkReferences": {}
  },
  "methodIdentifiers": {
    "allVaults(uint256)": "9094a91e",
    "createVault(address,uint256,address)": "af2b09ab",
    "getCreationBytecode(address,uint256)": "2f071961",
    "getNumberOfVaults()": "d3e0bc56",
    "requestFlashLoan(address,uint256,address)": "912b7bdd",
    "tokenToVault(address)": "0c7e1725"
  },
  "id": 35
}