{
  "abi": [
    {
      "inputs": [
        {
          "internalType": "address",
          "name": "_token",
          "type": "address"
        }
      ],
      "stateMutability": "nonpayable",
      "type": "constructor"
    },
    {
      "inputs": [
        {
          "internalType": "uint256",
          "name": "_amount",
          "type": "uint256"
        }
      ],
      "name": "deposit",
      "outputs": [],
      "stateMutability": "nonpayable",
      "type": "function"
    },
    {
      "inputs": [],
      "name": "token",
      "outputs": [
        {
          "internalType": "contract IERC20",
          "name": "",
          "type": "address"
        }
      ],
      "stateMutability": "view",
      "type": "function"
    },
    {
      "inputs": [],
      "name": "totalSupply",
      "outputs": [
        {
          "internalType": "uint256",
          "name": "",
          "type": "uint256"
        }
      ],
      "stateMutability": "view",
      "type": "function"
    },
    {
      "inputs": [
        {
          "internalType": "uint256",
          "name": "_shares",
          "type": "uint256"
        }
      ],
      "name": "withdraw",
      "outputs": [],
      "stateMutability": "nonpayable",
      "type": "function"
    }
  ],
  "bytecode": {
    "object": "0x60a060405234801561001057600080fd5b5060405161056438038061056483398101604081905261002f91610040565b6001600160a01b0316608052610070565b60006020828403121561005257600080fd5b81516001600160a01b038116811461006957600080fd5b9392505050565b6080516104bf6100a560003960008181609a0152818160ed0152818161019c0152818161023e01526102f701526104bf6000f3fe608060405234801561001057600080fd5b506004361061004c5760003560e01c806318160ddd146100515780632e1a7d4d1461006d578063b6b55f2514610082578063fc0c546a14610095575b600080fd5b61005a60005481565b6040519081526020015b60405180910390f35b61008061007b3660046103b3565b6100d4565b005b6100806100903660046103b3565b610217565b6100bc7f000000000000000000000000000000000000000000000000000000000000000081565b6040516001600160a01b039091168152602001610064565b600080546040516370a0823160e01b81523060048201527f00000000000000000000000000000000000000000000000000000000000000006001600160a01b0316906370a0823190602401602060405180830381865afa15801561013c573d6000803e3d6000fd5b505050506040513d601f19601f8201168201806040525081019061016091906103cc565b61016a90846103fb565b6101749190610418565b9050610180338261032e565b60405163a9059cbb60e01b8152336004820152602481018290527f00000000000000000000000000000000000000000000000000000000000000006001600160a01b03169063a9059cbb906044015b6020604051808303816000875af11580156101ee573d6000803e3d6000fd5b505050506040513d601f19601f82011682018060405250810190610212919061043a565b505050565b600080546000036102295750806102cb565b6040516370a0823160e01b81523060048201527f00000000000000000000000000000000000000000000000000000000000000006001600160a01b0316906370a0823190602401602060405180830381865afa15801561028d573d6000803e3d6000fd5b505050506040513d601f19601f820116820180604052508101906102b191906103cc565b6000546102be90846103fb565b6102c89190610418565b90505b6102d53382610375565b6040516323b872dd60e01b8152336004820152306024820152604481018390527f00000000000000000000000000000000000000000000000000000000000000006001600160a01b0316906323b872dd906064016101cf565b8060008082825461033f9190610463565b90915550506001600160a01b0382166000908152600160205260408120805483929061036c908490610463565b90915550505050565b806000808282546103869190610476565b90915550506001600160a01b0382166000908152600160205260408120805483929061036c908490610476565b6000602082840312156103c557600080fd5b5035919050565b6000602082840312156103de57600080fd5b5051919050565b634e487b7160e01b600052601160045260246000fd5b8082028115828204841417610412576104126103e5565b92915050565b60008261043557634e487b7160e01b600052601260045260246000fd5b500490565b60006020828403121561044c57600080fd5b8151801515811461045c57600080fd5b9392505050565b81810381811115610412576104126103e5565b80820180821115610412576104126103e556fea26469706673582212200efe756f8a93de8538e44faede46c775e049abb49f9c43af9cc0fd4a14f17c4664736f6c63430008170033",
    "linkReferences": {}
  },
  "methodIdentifiers": {
    "deposit(uint256)": "b6b55f25",
    "token()": "fc0c546a",
    "totalSupply()": "18160ddd",
    "withdraw(uint256)": "2e1a7d4d"
  },
  "id": 35
}